{
	"MathOperation.sol": {
		"MathOperation": {
			"abi": [
				{
					"inputs": [
						{
							"internalType": "uint256",
							"name": "_value",
							"type": "uint256"
						}
					],
					"name": "addToScore",
					"outputs": [],
					"stateMutability": "nonpayable",
					"type": "function"
				},
				{
					"inputs": [
						{
							"internalType": "uint256",
							"name": "_number",
							"type": "uint256"
						}
					],
					"name": "divideScore",
					"outputs": [],
					"stateMutability": "nonpayable",
					"type": "function"
				},
				{
					"inputs": [
						{
							"internalType": "uint256",
							"name": "_value",
							"type": "uint256"
						}
					],
					"name": "multiplyScore",
					"outputs": [],
					"stateMutability": "nonpayable",
					"type": "function"
				},
				{
					"inputs": [],
					"name": "score",
					"outputs": [
						{
							"internalType": "uint256",
							"name": "",
							"type": "uint256"
						}
					],
					"stateMutability": "view",
					"type": "function"
				},
				{
					"inputs": [
						{
							"internalType": "uint256",
							"name": "_value",
							"type": "uint256"
						}
					],
					"name": "substractScore",
					"outputs": [],
					"stateMutability": "nonpayable",
					"type": "function"
				}
			],
			"devdoc": {
				"kind": "dev",
				"methods": {},
				"version": 1
			},
			"evm": {
				"assembly": "    /* \"MathOperation.sol\":61:554  contract MathOperation{... */\n  mstore(0x40, 0x80)\n    /* \"MathOperation.sol\":110:111  0 */\n  0x00\n    /* \"MathOperation.sol\":90:111  uint public score = 0 */\n  0x00\n  sstore\n    /* \"MathOperation.sol\":61:554  contract MathOperation{... */\n  callvalue\n  dup1\n  iszero\n  tag_1\n  jumpi\n  revert(0x00, 0x00)\ntag_1:\n  pop\n  dataSize(sub_0)\n  dup1\n  dataOffset(sub_0)\n  0x00\n  codecopy\n  0x00\n  return\nstop\n\nsub_0: assembly {\n        /* \"MathOperation.sol\":61:554  contract MathOperation{... */\n      mstore(0x40, 0x80)\n      callvalue\n      dup1\n      iszero\n      tag_1\n      jumpi\n      revert(0x00, 0x00)\n    tag_1:\n      pop\n      jumpi(tag_2, lt(calldatasize, 0x04))\n      shr(0xe0, calldataload(0x00))\n      dup1\n      0x4c4ba893\n      eq\n      tag_3\n      jumpi\n      dup1\n      0xa9f3de4c\n      eq\n      tag_4\n      jumpi\n      dup1\n      0xebcc9022\n      eq\n      tag_5\n      jumpi\n      dup1\n      0xefedc669\n      eq\n      tag_6\n      jumpi\n      dup1\n      0xf2be04ec\n      eq\n      tag_7\n      jumpi\n    tag_2:\n      revert(0x00, 0x00)\n        /* \"MathOperation.sol\":199:271  function multiplyScore(uint _value) public{... */\n    tag_3:\n      tag_8\n      0x04\n      dup1\n      calldatasize\n      sub\n      dup2\n      add\n      swap1\n      tag_9\n      swap2\n      swap1\n      tag_10\n      jump\t// in\n    tag_9:\n      tag_11\n      jump\t// in\n    tag_8:\n      stop\n        /* \"MathOperation.sol\":421:551  function  divideScore(uint _number) public{... */\n    tag_4:\n      tag_12\n      0x04\n      dup1\n      calldatasize\n      sub\n      dup2\n      add\n      swap1\n      tag_13\n      swap2\n      swap1\n      tag_10\n      jump\t// in\n    tag_13:\n      tag_14\n      jump\t// in\n    tag_12:\n      stop\n        /* \"MathOperation.sol\":118:191  function addToScore(uint _value) public{... */\n    tag_5:\n      tag_15\n      0x04\n      dup1\n      calldatasize\n      sub\n      dup2\n      add\n      swap1\n      tag_16\n      swap2\n      swap1\n      tag_10\n      jump\t// in\n    tag_16:\n      tag_17\n      jump\t// in\n    tag_15:\n      stop\n        /* \"MathOperation.sol\":90:111  uint public score = 0 */\n    tag_6:\n      tag_18\n      tag_19\n      jump\t// in\n    tag_18:\n      mload(0x40)\n      tag_20\n      swap2\n      swap1\n      tag_21\n      jump\t// in\n    tag_20:\n      mload(0x40)\n      dup1\n      swap2\n      sub\n      swap1\n      return\n        /* \"MathOperation.sol\":279:413  function substractScore(uint _value) public{... */\n    tag_7:\n      tag_22\n      0x04\n      dup1\n      calldatasize\n      sub\n      dup2\n      add\n      swap1\n      tag_23\n      swap2\n      swap1\n      tag_10\n      jump\t// in\n    tag_23:\n      tag_24\n      jump\t// in\n    tag_22:\n      stop\n        /* \"MathOperation.sol\":199:271  function multiplyScore(uint _value) public{... */\n    tag_11:\n        /* \"MathOperation.sol\":257:263  _value */\n      dup1\n        /* \"MathOperation.sol\":248:253  score */\n      0x00\n      0x00\n        /* \"MathOperation.sol\":248:263  score *= _value */\n      dup3\n      dup3\n      sload\n      tag_26\n      swap2\n      swap1\n      tag_27\n      jump\t// in\n    tag_26:\n      swap3\n      pop\n      pop\n      dup2\n      swap1\n      sstore\n      pop\n        /* \"MathOperation.sol\":199:271  function multiplyScore(uint _value) public{... */\n      pop\n      jump\t// out\n        /* \"MathOperation.sol\":421:551  function  divideScore(uint _number) public{... */\n    tag_14:\n        /* \"MathOperation.sol\":490:491  0 */\n      0x00\n        /* \"MathOperation.sol\":482:489  _number */\n      dup2\n        /* \"MathOperation.sol\":482:491  _number>0 */\n      gt\n        /* \"MathOperation.sol\":474:513  require(_number>0,\"Cannot devide by 0\") */\n      tag_29\n      jumpi\n      mload(0x40)\n      0x08c379a000000000000000000000000000000000000000000000000000000000\n      dup2\n      mstore\n      0x04\n      add\n      tag_30\n      swap1\n      tag_31\n      jump\t// in\n    tag_30:\n      mload(0x40)\n      dup1\n      swap2\n      sub\n      swap1\n      revert\n    tag_29:\n        /* \"MathOperation.sol\":533:540  _number */\n      dup1\n        /* \"MathOperation.sol\":524:529  score */\n      0x00\n      0x00\n        /* \"MathOperation.sol\":524:540  score /= _number */\n      dup3\n      dup3\n      sload\n      tag_32\n      swap2\n      swap1\n      tag_33\n      jump\t// in\n    tag_32:\n      swap3\n      pop\n      pop\n      dup2\n      swap1\n      sstore\n      pop\n        /* \"MathOperation.sol\":421:551  function  divideScore(uint _number) public{... */\n      pop\n      jump\t// out\n        /* \"MathOperation.sol\":118:191  function addToScore(uint _value) public{... */\n    tag_17:\n        /* \"MathOperation.sol\":177:183  _value */\n      dup1\n        /* \"MathOperation.sol\":168:173  score */\n      0x00\n      0x00\n        /* \"MathOperation.sol\":168:183  score += _value */\n      dup3\n      dup3\n      sload\n      tag_35\n      swap2\n      swap1\n      tag_36\n      jump\t// in\n    tag_35:\n      swap3\n      pop\n      pop\n      dup2\n      swap1\n      sstore\n      pop\n        /* \"MathOperation.sol\":118:191  function addToScore(uint _value) public{... */\n      pop\n      jump\t// out\n        /* \"MathOperation.sol\":90:111  uint public score = 0 */\n    tag_19:\n      sload(0x00)\n      dup2\n      jump\t// out\n        /* \"MathOperation.sol\":279:413  function substractScore(uint _value) public{... */\n    tag_24:\n        /* \"MathOperation.sol\":344:350  _value */\n      dup1\n        /* \"MathOperation.sol\":337:342  score */\n      sload(0x00)\n        /* \"MathOperation.sol\":337:350  score>=_value */\n      lt\n      iszero\n        /* \"MathOperation.sol\":329:383  require(score>=_value,\"Not enough score to substract\") */\n      tag_38\n      jumpi\n      mload(0x40)\n      0x08c379a000000000000000000000000000000000000000000000000000000000\n      dup2\n      mstore\n      0x04\n      add\n      tag_39\n      swap1\n      tag_40\n      jump\t// in\n    tag_39:\n      mload(0x40)\n      dup1\n      swap2\n      sub\n      swap1\n      revert\n    tag_38:\n        /* \"MathOperation.sol\":399:405  _value */\n      dup1\n        /* \"MathOperation.sol\":390:395  score */\n      0x00\n      0x00\n        /* \"MathOperation.sol\":390:405  score -= _value */\n      dup3\n      dup3\n      sload\n      tag_41\n      swap2\n      swap1\n      tag_42\n      jump\t// in\n    tag_41:\n      swap3\n      pop\n      pop\n      dup2\n      swap1\n      sstore\n      pop\n        /* \"MathOperation.sol\":279:413  function substractScore(uint _value) public{... */\n      pop\n      jump\t// out\n        /* \"#utility.yul\":88:205   */\n    tag_44:\n        /* \"#utility.yul\":197:198   */\n      0x00\n        /* \"#utility.yul\":194:195   */\n      0x00\n        /* \"#utility.yul\":187:199   */\n      revert\n        /* \"#utility.yul\":334:411   */\n    tag_46:\n        /* \"#utility.yul\":371:378   */\n      0x00\n        /* \"#utility.yul\":400:405   */\n      dup2\n        /* \"#utility.yul\":389:405   */\n      swap1\n      pop\n        /* \"#utility.yul\":334:411   */\n      swap2\n      swap1\n      pop\n      jump\t// out\n        /* \"#utility.yul\":417:539   */\n    tag_47:\n        /* \"#utility.yul\":490:514   */\n      tag_63\n        /* \"#utility.yul\":508:513   */\n      dup2\n        /* \"#utility.yul\":490:514   */\n      tag_46\n      jump\t// in\n    tag_63:\n        /* \"#utility.yul\":483:488   */\n      dup2\n        /* \"#utility.yul\":480:515   */\n      eq\n        /* \"#utility.yul\":470:533   */\n      tag_64\n      jumpi\n        /* \"#utility.yul\":529:530   */\n      0x00\n        /* \"#utility.yul\":526:527   */\n      0x00\n        /* \"#utility.yul\":519:531   */\n      revert\n        /* \"#utility.yul\":470:533   */\n    tag_64:\n        /* \"#utility.yul\":417:539   */\n      pop\n      jump\t// out\n        /* \"#utility.yul\":545:684   */\n    tag_48:\n        /* \"#utility.yul\":591:596   */\n      0x00\n        /* \"#utility.yul\":629:635   */\n      dup2\n        /* \"#utility.yul\":616:636   */\n      calldataload\n        /* \"#utility.yul\":607:636   */\n      swap1\n      pop\n        /* \"#utility.yul\":645:678   */\n      tag_66\n        /* \"#utility.yul\":672:677   */\n      dup2\n        /* \"#utility.yul\":645:678   */\n      tag_47\n      jump\t// in\n    tag_66:\n        /* \"#utility.yul\":545:684   */\n      swap3\n      swap2\n      pop\n      pop\n      jump\t// out\n        /* \"#utility.yul\":690:1019   */\n    tag_10:\n        /* \"#utility.yul\":749:755   */\n      0x00\n        /* \"#utility.yul\":798:800   */\n      0x20\n        /* \"#utility.yul\":786:795   */\n      dup3\n        /* \"#utility.yul\":777:784   */\n      dup5\n        /* \"#utility.yul\":773:796   */\n      sub\n        /* \"#utility.yul\":769:801   */\n      slt\n        /* \"#utility.yul\":766:885   */\n      iszero\n      tag_68\n      jumpi\n        /* \"#utility.yul\":804:883   */\n      tag_69\n      tag_44\n      jump\t// in\n    tag_69:\n        /* \"#utility.yul\":766:885   */\n    tag_68:\n        /* \"#utility.yul\":924:925   */\n      0x00\n        /* \"#utility.yul\":949:1002   */\n      tag_70\n        /* \"#utility.yul\":994:1001   */\n      dup5\n        /* \"#utility.yul\":985:991   */\n      dup3\n        /* \"#utility.yul\":974:983   */\n      dup6\n        /* \"#utility.yul\":970:992   */\n      add\n        /* \"#utility.yul\":949:1002   */\n      tag_48\n      jump\t// in\n    tag_70:\n        /* \"#utility.yul\":939:1002   */\n      swap2\n      pop\n        /* \"#utility.yul\":895:1012   */\n      pop\n        /* \"#utility.yul\":690:1019   */\n      swap3\n      swap2\n      pop\n      pop\n      jump\t// out\n        /* \"#utility.yul\":1025:1143   */\n    tag_49:\n        /* \"#utility.yul\":1112:1136   */\n      tag_72\n        /* \"#utility.yul\":1130:1135   */\n      dup2\n        /* \"#utility.yul\":1112:1136   */\n      tag_46\n      jump\t// in\n    tag_72:\n        /* \"#utility.yul\":1107:1110   */\n      dup3\n        /* \"#utility.yul\":1100:1137   */\n      mstore\n        /* \"#utility.yul\":1025:1143   */\n      pop\n      pop\n      jump\t// out\n        /* \"#utility.yul\":1149:1371   */\n    tag_21:\n        /* \"#utility.yul\":1242:1246   */\n      0x00\n        /* \"#utility.yul\":1280:1282   */\n      0x20\n        /* \"#utility.yul\":1269:1278   */\n      dup3\n        /* \"#utility.yul\":1265:1283   */\n      add\n        /* \"#utility.yul\":1257:1283   */\n      swap1\n      pop\n        /* \"#utility.yul\":1293:1364   */\n      tag_74\n        /* \"#utility.yul\":1361:1362   */\n      0x00\n        /* \"#utility.yul\":1350:1359   */\n      dup4\n        /* \"#utility.yul\":1346:1363   */\n      add\n        /* \"#utility.yul\":1337:1343   */\n      dup5\n        /* \"#utility.yul\":1293:1364   */\n      tag_49\n      jump\t// in\n    tag_74:\n        /* \"#utility.yul\":1149:1371   */\n      swap3\n      swap2\n      pop\n      pop\n      jump\t// out\n        /* \"#utility.yul\":1377:1557   */\n    tag_50:\n        /* \"#utility.yul\":1425:1502   */\n      0x4e487b7100000000000000000000000000000000000000000000000000000000\n        /* \"#utility.yul\":1422:1423   */\n      0x00\n        /* \"#utility.yul\":1415:1503   */\n      mstore\n        /* \"#utility.yul\":1522:1526   */\n      0x11\n        /* \"#utility.yul\":1519:1520   */\n      0x04\n        /* \"#utility.yul\":1512:1527   */\n      mstore\n        /* \"#utility.yul\":1546:1550   */\n      0x24\n        /* \"#utility.yul\":1543:1544   */\n      0x00\n        /* \"#utility.yul\":1536:1551   */\n      revert\n        /* \"#utility.yul\":1563:1973   */\n    tag_27:\n        /* \"#utility.yul\":1603:1610   */\n      0x00\n        /* \"#utility.yul\":1626:1646   */\n      tag_77\n        /* \"#utility.yul\":1644:1645   */\n      dup3\n        /* \"#utility.yul\":1626:1646   */\n      tag_46\n      jump\t// in\n    tag_77:\n        /* \"#utility.yul\":1621:1646   */\n      swap2\n      pop\n        /* \"#utility.yul\":1660:1680   */\n      tag_78\n        /* \"#utility.yul\":1678:1679   */\n      dup4\n        /* \"#utility.yul\":1660:1680   */\n      tag_46\n      jump\t// in\n    tag_78:\n        /* \"#utility.yul\":1655:1680   */\n      swap3\n      pop\n        /* \"#utility.yul\":1715:1716   */\n      dup3\n        /* \"#utility.yul\":1712:1713   */\n      dup3\n        /* \"#utility.yul\":1708:1717   */\n      mul\n        /* \"#utility.yul\":1737:1767   */\n      tag_79\n        /* \"#utility.yul\":1755:1766   */\n      dup2\n        /* \"#utility.yul\":1737:1767   */\n      tag_46\n      jump\t// in\n    tag_79:\n        /* \"#utility.yul\":1726:1767   */\n      swap2\n      pop\n        /* \"#utility.yul\":1916:1917   */\n      dup3\n        /* \"#utility.yul\":1907:1914   */\n      dup3\n        /* \"#utility.yul\":1903:1918   */\n      div\n        /* \"#utility.yul\":1900:1901   */\n      dup5\n        /* \"#utility.yul\":1897:1919   */\n      eq\n        /* \"#utility.yul\":1877:1878   */\n      dup4\n        /* \"#utility.yul\":1870:1879   */\n      iszero\n        /* \"#utility.yul\":1850:1933   */\n      or\n        /* \"#utility.yul\":1827:1966   */\n      tag_80\n      jumpi\n        /* \"#utility.yul\":1946:1964   */\n      tag_81\n      tag_50\n      jump\t// in\n    tag_81:\n        /* \"#utility.yul\":1827:1966   */\n    tag_80:\n        /* \"#utility.yul\":1611:1973   */\n      pop\n        /* \"#utility.yul\":1563:1973   */\n      swap3\n      swap2\n      pop\n      pop\n      jump\t// out\n        /* \"#utility.yul\":1979:2148   */\n    tag_51:\n        /* \"#utility.yul\":2063:2074   */\n      0x00\n        /* \"#utility.yul\":2097:2103   */\n      dup3\n        /* \"#utility.yul\":2092:2095   */\n      dup3\n        /* \"#utility.yul\":2085:2104   */\n      mstore\n        /* \"#utility.yul\":2137:2141   */\n      0x20\n        /* \"#utility.yul\":2132:2135   */\n      dup3\n        /* \"#utility.yul\":2128:2142   */\n      add\n        /* \"#utility.yul\":2113:2142   */\n      swap1\n      pop\n        /* \"#utility.yul\":1979:2148   */\n      swap3\n      swap2\n      pop\n      pop\n      jump\t// out\n        /* \"#utility.yul\":2154:2322   */\n    tag_52:\n        /* \"#utility.yul\":2294:2314   */\n      0x43616e6e6f742064657669646520627920300000000000000000000000000000\n        /* \"#utility.yul\":2290:2291   */\n      0x00\n        /* \"#utility.yul\":2282:2288   */\n      dup3\n        /* \"#utility.yul\":2278:2292   */\n      add\n        /* \"#utility.yul\":2271:2315   */\n      mstore\n        /* \"#utility.yul\":2154:2322   */\n      pop\n      jump\t// out\n        /* \"#utility.yul\":2328:2694   */\n    tag_53:\n        /* \"#utility.yul\":2470:2473   */\n      0x00\n        /* \"#utility.yul\":2491:2558   */\n      tag_85\n        /* \"#utility.yul\":2555:2557   */\n      0x12\n        /* \"#utility.yul\":2550:2553   */\n      dup4\n        /* \"#utility.yul\":2491:2558   */\n      tag_51\n      jump\t// in\n    tag_85:\n        /* \"#utility.yul\":2484:2558   */\n      swap2\n      pop\n        /* \"#utility.yul\":2567:2660   */\n      tag_86\n        /* \"#utility.yul\":2656:2659   */\n      dup3\n        /* \"#utility.yul\":2567:2660   */\n      tag_52\n      jump\t// in\n    tag_86:\n        /* \"#utility.yul\":2685:2687   */\n      0x20\n        /* \"#utility.yul\":2680:2683   */\n      dup3\n        /* \"#utility.yul\":2676:2688   */\n      add\n        /* \"#utility.yul\":2669:2688   */\n      swap1\n      pop\n        /* \"#utility.yul\":2328:2694   */\n      swap2\n      swap1\n      pop\n      jump\t// out\n        /* \"#utility.yul\":2700:3119   */\n    tag_31:\n        /* \"#utility.yul\":2866:2870   */\n      0x00\n        /* \"#utility.yul\":2904:2906   */\n      0x20\n        /* \"#utility.yul\":2893:2902   */\n      dup3\n        /* \"#utility.yul\":2889:2907   */\n      add\n        /* \"#utility.yul\":2881:2907   */\n      swap1\n      pop\n        /* \"#utility.yul\":2953:2962   */\n      dup2\n        /* \"#utility.yul\":2947:2951   */\n      dup2\n        /* \"#utility.yul\":2943:2963   */\n      sub\n        /* \"#utility.yul\":2939:2940   */\n      0x00\n        /* \"#utility.yul\":2928:2937   */\n      dup4\n        /* \"#utility.yul\":2924:2941   */\n      add\n        /* \"#utility.yul\":2917:2964   */\n      mstore\n        /* \"#utility.yul\":2981:3112   */\n      tag_88\n        /* \"#utility.yul\":3107:3111   */\n      dup2\n        /* \"#utility.yul\":2981:3112   */\n      tag_53\n      jump\t// in\n    tag_88:\n        /* \"#utility.yul\":2973:3112   */\n      swap1\n      pop\n        /* \"#utility.yul\":2700:3119   */\n      swap2\n      swap1\n      pop\n      jump\t// out\n        /* \"#utility.yul\":3125:3305   */\n    tag_54:\n        /* \"#utility.yul\":3173:3250   */\n      0x4e487b7100000000000000000000000000000000000000000000000000000000\n        /* \"#utility.yul\":3170:3171   */\n      0x00\n        /* \"#utility.yul\":3163:3251   */\n      mstore\n        /* \"#utility.yul\":3270:3274   */\n      0x12\n        /* \"#utility.yul\":3267:3268   */\n      0x04\n        /* \"#utility.yul\":3260:3275   */\n      mstore\n        /* \"#utility.yul\":3294:3298   */\n      0x24\n        /* \"#utility.yul\":3291:3292   */\n      0x00\n        /* \"#utility.yul\":3284:3299   */\n      revert\n        /* \"#utility.yul\":3311:3496   */\n    tag_33:\n        /* \"#utility.yul\":3351:3352   */\n      0x00\n        /* \"#utility.yul\":3368:3388   */\n      tag_91\n        /* \"#utility.yul\":3386:3387   */\n      dup3\n        /* \"#utility.yul\":3368:3388   */\n      tag_46\n      jump\t// in\n    tag_91:\n        /* \"#utility.yul\":3363:3388   */\n      swap2\n      pop\n        /* \"#utility.yul\":3402:3422   */\n      tag_92\n        /* \"#utility.yul\":3420:3421   */\n      dup4\n        /* \"#utility.yul\":3402:3422   */\n      tag_46\n      jump\t// in\n    tag_92:\n        /* \"#utility.yul\":3397:3422   */\n      swap3\n      pop\n        /* \"#utility.yul\":3441:3442   */\n      dup3\n        /* \"#utility.yul\":3431:3466   */\n      tag_93\n      jumpi\n        /* \"#utility.yul\":3446:3464   */\n      tag_94\n      tag_54\n      jump\t// in\n    tag_94:\n        /* \"#utility.yul\":3431:3466   */\n    tag_93:\n        /* \"#utility.yul\":3488:3489   */\n      dup3\n        /* \"#utility.yul\":3485:3486   */\n      dup3\n        /* \"#utility.yul\":3481:3490   */\n      div\n        /* \"#utility.yul\":3476:3490   */\n      swap1\n      pop\n        /* \"#utility.yul\":3311:3496   */\n      swap3\n      swap2\n      pop\n      pop\n      jump\t// out\n        /* \"#utility.yul\":3502:3693   */\n    tag_36:\n        /* \"#utility.yul\":3542:3545   */\n      0x00\n        /* \"#utility.yul\":3561:3581   */\n      tag_96\n        /* \"#utility.yul\":3579:3580   */\n      dup3\n        /* \"#utility.yul\":3561:3581   */\n      tag_46\n      jump\t// in\n    tag_96:\n        /* \"#utility.yul\":3556:3581   */\n      swap2\n      pop\n        /* \"#utility.yul\":3595:3615   */\n      tag_97\n        /* \"#utility.yul\":3613:3614   */\n      dup4\n        /* \"#utility.yul\":3595:3615   */\n      tag_46\n      jump\t// in\n    tag_97:\n        /* \"#utility.yul\":3590:3615   */\n      swap3\n      pop\n        /* \"#utility.yul\":3638:3639   */\n      dup3\n        /* \"#utility.yul\":3635:3636   */\n      dup3\n        /* \"#utility.yul\":3631:3640   */\n      add\n        /* \"#utility.yul\":3624:3640   */\n      swap1\n      pop\n        /* \"#utility.yul\":3659:3662   */\n      dup1\n        /* \"#utility.yul\":3656:3657   */\n      dup3\n        /* \"#utility.yul\":3653:3663   */\n      gt\n        /* \"#utility.yul\":3650:3686   */\n      iszero\n      tag_98\n      jumpi\n        /* \"#utility.yul\":3666:3684   */\n      tag_99\n      tag_50\n      jump\t// in\n    tag_99:\n        /* \"#utility.yul\":3650:3686   */\n    tag_98:\n        /* \"#utility.yul\":3502:3693   */\n      swap3\n      swap2\n      pop\n      pop\n      jump\t// out\n        /* \"#utility.yul\":3699:3878   */\n    tag_55:\n        /* \"#utility.yul\":3839:3870   */\n      0x4e6f7420656e6f7567682073636f726520746f20737562737472616374000000\n        /* \"#utility.yul\":3835:3836   */\n      0x00\n        /* \"#utility.yul\":3827:3833   */\n      dup3\n        /* \"#utility.yul\":3823:3837   */\n      add\n        /* \"#utility.yul\":3816:3871   */\n      mstore\n        /* \"#utility.yul\":3699:3878   */\n      pop\n      jump\t// out\n        /* \"#utility.yul\":3884:4250   */\n    tag_56:\n        /* \"#utility.yul\":4026:4029   */\n      0x00\n        /* \"#utility.yul\":4047:4114   */\n      tag_102\n        /* \"#utility.yul\":4111:4113   */\n      0x1d\n        /* \"#utility.yul\":4106:4109   */\n      dup4\n        /* \"#utility.yul\":4047:4114   */\n      tag_51\n      jump\t// in\n    tag_102:\n        /* \"#utility.yul\":4040:4114   */\n      swap2\n      pop\n        /* \"#utility.yul\":4123:4216   */\n      tag_103\n        /* \"#utility.yul\":4212:4215   */\n      dup3\n        /* \"#utility.yul\":4123:4216   */\n      tag_55\n      jump\t// in\n    tag_103:\n        /* \"#utility.yul\":4241:4243   */\n      0x20\n        /* \"#utility.yul\":4236:4239   */\n      dup3\n        /* \"#utility.yul\":4232:4244   */\n      add\n        /* \"#utility.yul\":4225:4244   */\n      swap1\n      pop\n        /* \"#utility.yul\":3884:4250   */\n      swap2\n      swap1\n      pop\n      jump\t// out\n        /* \"#utility.yul\":4256:4675   */\n    tag_40:\n        /* \"#utility.yul\":4422:4426   */\n      0x00\n        /* \"#utility.yul\":4460:4462   */\n      0x20\n        /* \"#utility.yul\":4449:4458   */\n      dup3\n        /* \"#utility.yul\":4445:4463   */\n      add\n        /* \"#utility.yul\":4437:4463   */\n      swap1\n      pop\n        /* \"#utility.yul\":4509:4518   */\n      dup2\n        /* \"#utility.yul\":4503:4507   */\n      dup2\n        /* \"#utility.yul\":4499:4519   */\n      sub\n        /* \"#utility.yul\":4495:4496   */\n      0x00\n        /* \"#utility.yul\":4484:4493   */\n      dup4\n        /* \"#utility.yul\":4480:4497   */\n      add\n        /* \"#utility.yul\":4473:4520   */\n      mstore\n        /* \"#utility.yul\":4537:4668   */\n      tag_105\n        /* \"#utility.yul\":4663:4667   */\n      dup2\n        /* \"#utility.yul\":4537:4668   */\n      tag_56\n      jump\t// in\n    tag_105:\n        /* \"#utility.yul\":4529:4668   */\n      swap1\n      pop\n        /* \"#utility.yul\":4256:4675   */\n      swap2\n      swap1\n      pop\n      jump\t// out\n        /* \"#utility.yul\":4681:4875   */\n    tag_42:\n        /* \"#utility.yul\":4721:4725   */\n      0x00\n        /* \"#utility.yul\":4741:4761   */\n      tag_107\n        /* \"#utility.yul\":4759:4760   */\n      dup3\n        /* \"#utility.yul\":4741:4761   */\n      tag_46\n      jump\t// in\n    tag_107:\n        /* \"#utility.yul\":4736:4761   */\n      swap2\n      pop\n        /* \"#utility.yul\":4775:4795   */\n      tag_108\n        /* \"#utility.yul\":4793:4794   */\n      dup4\n        /* \"#utility.yul\":4775:4795   */\n      tag_46\n      jump\t// in\n    tag_108:\n        /* \"#utility.yul\":4770:4795   */\n      swap3\n      pop\n        /* \"#utility.yul\":4819:4820   */\n      dup3\n        /* \"#utility.yul\":4816:4817   */\n      dup3\n        /* \"#utility.yul\":4812:4821   */\n      sub\n        /* \"#utility.yul\":4804:4821   */\n      swap1\n      pop\n        /* \"#utility.yul\":4843:4844   */\n      dup2\n        /* \"#utility.yul\":4837:4841   */\n      dup2\n        /* \"#utility.yul\":4834:4845   */\n      gt\n        /* \"#utility.yul\":4831:4868   */\n      iszero\n      tag_109\n      jumpi\n        /* \"#utility.yul\":4848:4866   */\n      tag_110\n      tag_50\n      jump\t// in\n    tag_110:\n        /* \"#utility.yul\":4831:4868   */\n    tag_109:\n        /* \"#utility.yul\":4681:4875   */\n      swap3\n      swap2\n      pop\n      pop\n      jump\t// out\n\n    auxdata: 0xa2646970667358221220e3c29e2f8a540f9a41da2b102d468a2942057413b0be8d164386c542a2aca10d64736f6c634300081f0033\n}\n",
				"bytecode": {
					"linkReferences": {},
					"object": "60806040525f5f553480156011575f5ffd5b506104ab8061001f5f395ff3fe608060405234801561000f575f5ffd5b5060043610610055575f3560e01c80634c4ba89314610059578063a9f3de4c14610075578063ebcc902214610091578063efedc669146100ad578063f2be04ec146100cb575b5f5ffd5b610073600480360381019061006e9190610211565b6100e7565b005b61008f600480360381019061008a9190610211565b610101565b005b6100ab60048036038101906100a69190610211565b61015d565b005b6100b5610177565b6040516100c2919061024b565b60405180910390f35b6100e560048036038101906100e09190610211565b61017c565b005b805f5f8282546100f79190610291565b9250508190555050565b5f8111610143576040517f08c379a000000000000000000000000000000000000000000000000000000000815260040161013a9061032c565b60405180910390fd5b805f5f8282546101539190610377565b9250508190555050565b805f5f82825461016d91906103a7565b9250508190555050565b5f5481565b805f5410156101c0576040517f08c379a00000000000000000000000000000000000000000000000000000000081526004016101b790610424565b60405180910390fd5b805f5f8282546101d09190610442565b9250508190555050565b5f5ffd5b5f819050919050565b6101f0816101de565b81146101fa575f5ffd5b50565b5f8135905061020b816101e7565b92915050565b5f60208284031215610226576102256101da565b5b5f610233848285016101fd565b91505092915050565b610245816101de565b82525050565b5f60208201905061025e5f83018461023c565b92915050565b7f4e487b71000000000000000000000000000000000000000000000000000000005f52601160045260245ffd5b5f61029b826101de565b91506102a6836101de565b92508282026102b4816101de565b915082820484148315176102cb576102ca610264565b5b5092915050565b5f82825260208201905092915050565b7f43616e6e6f7420646576696465206279203000000000000000000000000000005f82015250565b5f6103166012836102d2565b9150610321826102e2565b602082019050919050565b5f6020820190508181035f8301526103438161030a565b9050919050565b7f4e487b71000000000000000000000000000000000000000000000000000000005f52601260045260245ffd5b5f610381826101de565b915061038c836101de565b92508261039c5761039b61034a565b5b828204905092915050565b5f6103b1826101de565b91506103bc836101de565b92508282019050808211156103d4576103d3610264565b5b92915050565b7f4e6f7420656e6f7567682073636f726520746f207375627374726163740000005f82015250565b5f61040e601d836102d2565b9150610419826103da565b602082019050919050565b5f6020820190508181035f83015261043b81610402565b9050919050565b5f61044c826101de565b9150610457836101de565b925082820390508181111561046f5761046e610264565b5b9291505056fea2646970667358221220e3c29e2f8a540f9a41da2b102d468a2942057413b0be8d164386c542a2aca10d64736f6c634300081f0033",
					"opcodes": "PUSH1 0x80 PUSH1 0x40 MSTORE PUSH0 PUSH0 SSTORE CALLVALUE DUP1 ISZERO PUSH1 0x11 JUMPI PUSH0 PUSH0 REVERT JUMPDEST POP PUSH2 0x4AB DUP1 PUSH2 0x1F PUSH0 CODECOPY PUSH0 RETURN INVALID PUSH1 0x80 PUSH1 0x40 MSTORE CALLVALUE DUP1 ISZERO PUSH2 0xF JUMPI PUSH0 PUSH0 REVERT JUMPDEST POP PUSH1 0x4 CALLDATASIZE LT PUSH2 0x55 JUMPI PUSH0 CALLDATALOAD PUSH1 0xE0 SHR DUP1 PUSH4 0x4C4BA893 EQ PUSH2 0x59 JUMPI DUP1 PUSH4 0xA9F3DE4C EQ PUSH2 0x75 JUMPI DUP1 PUSH4 0xEBCC9022 EQ PUSH2 0x91 JUMPI DUP1 PUSH4 0xEFEDC669 EQ PUSH2 0xAD JUMPI DUP1 PUSH4 0xF2BE04EC EQ PUSH2 0xCB JUMPI JUMPDEST PUSH0 PUSH0 REVERT JUMPDEST PUSH2 0x73 PUSH1 0x4 DUP1 CALLDATASIZE SUB DUP2 ADD SWAP1 PUSH2 0x6E SWAP2 SWAP1 PUSH2 0x211 JUMP JUMPDEST PUSH2 0xE7 JUMP JUMPDEST STOP JUMPDEST PUSH2 0x8F PUSH1 0x4 DUP1 CALLDATASIZE SUB DUP2 ADD SWAP1 PUSH2 0x8A SWAP2 SWAP1 PUSH2 0x211 JUMP JUMPDEST PUSH2 0x101 JUMP JUMPDEST STOP JUMPDEST PUSH2 0xAB PUSH1 0x4 DUP1 CALLDATASIZE SUB DUP2 ADD SWAP1 PUSH2 0xA6 SWAP2 SWAP1 PUSH2 0x211 JUMP JUMPDEST PUSH2 0x15D JUMP JUMPDEST STOP JUMPDEST PUSH2 0xB5 PUSH2 0x177 JUMP JUMPDEST PUSH1 0x40 MLOAD PUSH2 0xC2 SWAP2 SWAP1 PUSH2 0x24B JUMP JUMPDEST PUSH1 0x40 MLOAD DUP1 SWAP2 SUB SWAP1 RETURN JUMPDEST PUSH2 0xE5 PUSH1 0x4 DUP1 CALLDATASIZE SUB DUP2 ADD SWAP1 PUSH2 0xE0 SWAP2 SWAP1 PUSH2 0x211 JUMP JUMPDEST PUSH2 0x17C JUMP JUMPDEST STOP JUMPDEST DUP1 PUSH0 PUSH0 DUP3 DUP3 SLOAD PUSH2 0xF7 SWAP2 SWAP1 PUSH2 0x291 JUMP JUMPDEST SWAP3 POP POP DUP2 SWAP1 SSTORE POP POP JUMP JUMPDEST PUSH0 DUP2 GT PUSH2 0x143 JUMPI PUSH1 0x40 MLOAD PUSH32 0x8C379A000000000000000000000000000000000000000000000000000000000 DUP2 MSTORE PUSH1 0x4 ADD PUSH2 0x13A SWAP1 PUSH2 0x32C JUMP JUMPDEST PUSH1 0x40 MLOAD DUP1 SWAP2 SUB SWAP1 REVERT JUMPDEST DUP1 PUSH0 PUSH0 DUP3 DUP3 SLOAD PUSH2 0x153 SWAP2 SWAP1 PUSH2 0x377 JUMP JUMPDEST SWAP3 POP POP DUP2 SWAP1 SSTORE POP POP JUMP JUMPDEST DUP1 PUSH0 PUSH0 DUP3 DUP3 SLOAD PUSH2 0x16D SWAP2 SWAP1 PUSH2 0x3A7 JUMP JUMPDEST SWAP3 POP POP DUP2 SWAP1 SSTORE POP POP JUMP JUMPDEST PUSH0 SLOAD DUP2 JUMP JUMPDEST DUP1 PUSH0 SLOAD LT ISZERO PUSH2 0x1C0 JUMPI PUSH1 0x40 MLOAD PUSH32 0x8C379A000000000000000000000000000000000000000000000000000000000 DUP2 MSTORE PUSH1 0x4 ADD PUSH2 0x1B7 SWAP1 PUSH2 0x424 JUMP JUMPDEST PUSH1 0x40 MLOAD DUP1 SWAP2 SUB SWAP1 REVERT JUMPDEST DUP1 PUSH0 PUSH0 DUP3 DUP3 SLOAD PUSH2 0x1D0 SWAP2 SWAP1 PUSH2 0x442 JUMP JUMPDEST SWAP3 POP POP DUP2 SWAP1 SSTORE POP POP JUMP JUMPDEST PUSH0 PUSH0 REVERT JUMPDEST PUSH0 DUP2 SWAP1 POP SWAP2 SWAP1 POP JUMP JUMPDEST PUSH2 0x1F0 DUP2 PUSH2 0x1DE JUMP JUMPDEST DUP2 EQ PUSH2 0x1FA JUMPI PUSH0 PUSH0 REVERT JUMPDEST POP JUMP JUMPDEST PUSH0 DUP2 CALLDATALOAD SWAP1 POP PUSH2 0x20B DUP2 PUSH2 0x1E7 JUMP JUMPDEST SWAP3 SWAP2 POP POP JUMP JUMPDEST PUSH0 PUSH1 0x20 DUP3 DUP5 SUB SLT ISZERO PUSH2 0x226 JUMPI PUSH2 0x225 PUSH2 0x1DA JUMP JUMPDEST JUMPDEST PUSH0 PUSH2 0x233 DUP5 DUP3 DUP6 ADD PUSH2 0x1FD JUMP JUMPDEST SWAP2 POP POP SWAP3 SWAP2 POP POP JUMP JUMPDEST PUSH2 0x245 DUP2 PUSH2 0x1DE JUMP JUMPDEST DUP3 MSTORE POP POP JUMP JUMPDEST PUSH0 PUSH1 0x20 DUP3 ADD SWAP1 POP PUSH2 0x25E PUSH0 DUP4 ADD DUP5 PUSH2 0x23C JUMP JUMPDEST SWAP3 SWAP2 POP POP JUMP JUMPDEST PUSH32 0x4E487B7100000000000000000000000000000000000000000000000000000000 PUSH0 MSTORE PUSH1 0x11 PUSH1 0x4 MSTORE PUSH1 0x24 PUSH0 REVERT JUMPDEST PUSH0 PUSH2 0x29B DUP3 PUSH2 0x1DE JUMP JUMPDEST SWAP2 POP PUSH2 0x2A6 DUP4 PUSH2 0x1DE JUMP JUMPDEST SWAP3 POP DUP3 DUP3 MUL PUSH2 0x2B4 DUP2 PUSH2 0x1DE JUMP JUMPDEST SWAP2 POP DUP3 DUP3 DIV DUP5 EQ DUP4 ISZERO OR PUSH2 0x2CB JUMPI PUSH2 0x2CA PUSH2 0x264 JUMP JUMPDEST JUMPDEST POP SWAP3 SWAP2 POP POP JUMP JUMPDEST PUSH0 DUP3 DUP3 MSTORE PUSH1 0x20 DUP3 ADD SWAP1 POP SWAP3 SWAP2 POP POP JUMP JUMPDEST PUSH32 0x43616E6E6F742064657669646520627920300000000000000000000000000000 PUSH0 DUP3 ADD MSTORE POP JUMP JUMPDEST PUSH0 PUSH2 0x316 PUSH1 0x12 DUP4 PUSH2 0x2D2 JUMP JUMPDEST SWAP2 POP PUSH2 0x321 DUP3 PUSH2 0x2E2 JUMP JUMPDEST PUSH1 0x20 DUP3 ADD SWAP1 POP SWAP2 SWAP1 POP JUMP JUMPDEST PUSH0 PUSH1 0x20 DUP3 ADD SWAP1 POP DUP2 DUP2 SUB PUSH0 DUP4 ADD MSTORE PUSH2 0x343 DUP2 PUSH2 0x30A JUMP JUMPDEST SWAP1 POP SWAP2 SWAP1 POP JUMP JUMPDEST PUSH32 0x4E487B7100000000000000000000000000000000000000000000000000000000 PUSH0 MSTORE PUSH1 0x12 PUSH1 0x4 MSTORE PUSH1 0x24 PUSH0 REVERT JUMPDEST PUSH0 PUSH2 0x381 DUP3 PUSH2 0x1DE JUMP JUMPDEST SWAP2 POP PUSH2 0x38C DUP4 PUSH2 0x1DE JUMP JUMPDEST SWAP3 POP DUP3 PUSH2 0x39C JUMPI PUSH2 0x39B PUSH2 0x34A JUMP JUMPDEST JUMPDEST DUP3 DUP3 DIV SWAP1 POP SWAP3 SWAP2 POP POP JUMP JUMPDEST PUSH0 PUSH2 0x3B1 DUP3 PUSH2 0x1DE JUMP JUMPDEST SWAP2 POP PUSH2 0x3BC DUP4 PUSH2 0x1DE JUMP JUMPDEST SWAP3 POP DUP3 DUP3 ADD SWAP1 POP DUP1 DUP3 GT ISZERO PUSH2 0x3D4 JUMPI PUSH2 0x3D3 PUSH2 0x264 JUMP JUMPDEST JUMPDEST SWAP3 SWAP2 POP POP JUMP JUMPDEST PUSH32 0x4E6F7420656E6F7567682073636F726520746F20737562737472616374000000 PUSH0 DUP3 ADD MSTORE POP JUMP JUMPDEST PUSH0 PUSH2 0x40E PUSH1 0x1D DUP4 PUSH2 0x2D2 JUMP JUMPDEST SWAP2 POP PUSH2 0x419 DUP3 PUSH2 0x3DA JUMP JUMPDEST PUSH1 0x20 DUP3 ADD SWAP1 POP SWAP2 SWAP1 POP JUMP JUMPDEST PUSH0 PUSH1 0x20 DUP3 ADD SWAP1 POP DUP2 DUP2 SUB PUSH0 DUP4 ADD MSTORE PUSH2 0x43B DUP2 PUSH2 0x402 JUMP JUMPDEST SWAP1 POP SWAP2 SWAP1 POP JUMP JUMPDEST PUSH0 PUSH2 0x44C DUP3 PUSH2 0x1DE JUMP JUMPDEST SWAP2 POP PUSH2 0x457 DUP4 PUSH2 0x1DE JUMP JUMPDEST SWAP3 POP DUP3 DUP3 SUB SWAP1 POP DUP2 DUP2 GT ISZERO PUSH2 0x46F JUMPI PUSH2 0x46E PUSH2 0x264 JUMP JUMPDEST JUMPDEST SWAP3 SWAP2 POP POP JUMP INVALID LOG2 PUSH5 0x6970667358 0x22 SLT KECCAK256 CALLF 0xC29E 0x2F DUP11 SLOAD 0xF SWAP11 COINBASE 0xDA 0x2B LT 0x2D CHAINID DUP11 0x29 TIMESTAMP SDIV PUSH21 0x13B0BE8D164386C542A2ACA10D64736F6C63430008 0x1F STOP CALLER "
				},
				"gasEstimates": {
					"creation": {
						"codeDepositCost": "239000",
						"executionCost": "5283",
						"totalCost": "244283"
					},
					"external": {
						"addToScore(uint256)": "infinite",
						"divideScore(uint256)": "infinite",
						"multiplyScore(uint256)": "infinite",
						"score()": "2468",
						"substractScore(uint256)": "infinite"
					}
				},
				"methodIdentifiers": {
					"addToScore(uint256)": "ebcc9022",
					"divideScore(uint256)": "a9f3de4c",
					"multiplyScore(uint256)": "4c4ba893",
					"score()": "efedc669",
					"substractScore(uint256)": "f2be04ec"
				}
			},
			"storageLayout": {
				"storage": [
					{
						"astId": 4,
						"contract": "MathOperation.sol:MathOperation",
						"label": "score",
						"offset": 0,
						"slot": "0",
						"type": "t_uint256"
					}
				],
				"types": {
					"t_uint256": {
						"encoding": "inplace",
						"label": "uint256",
						"numberOfBytes": "32"
					}
				}
			},
			"userdoc": {
				"kind": "user",
				"methods": {},
				"version": 1
			}
		}
	}
}