{
	"gradingSystem.sol": {
		"GradingSystem": {
			"abi": [
				{
					"inputs": [
						{
							"internalType": "uint256",
							"name": "score",
							"type": "uint256"
						}
					],
					"name": "addScore",
					"outputs": [],
					"stateMutability": "nonpayable",
					"type": "function"
				},
				{
					"inputs": [],
					"name": "getLetterGrade",
					"outputs": [
						{
							"internalType": "string",
							"name": "",
							"type": "string"
						}
					],
					"stateMutability": "view",
					"type": "function"
				},
				{
					"inputs": [
						{
							"internalType": "address",
							"name": "",
							"type": "address"
						}
					],
					"name": "grades",
					"outputs": [
						{
							"internalType": "uint256",
							"name": "",
							"type": "uint256"
						}
					],
					"stateMutability": "view",
					"type": "function"
				},
				{
					"inputs": [],
					"name": "hasPassed",
					"outputs": [
						{
							"internalType": "bool",
							"name": "",
							"type": "bool"
						}
					],
					"stateMutability": "view",
					"type": "function"
				}
			],
			"devdoc": {
				"kind": "dev",
				"methods": {},
				"version": 1
			},
			"evm": {
				"assembly": "    /* \"gradingSystem.sol\":59:1022  contract GradingSystem{... */\n  mstore(0x40, 0x80)\n  callvalue\n  dup1\n  iszero\n  tag_1\n  jumpi\n  revert(0x00, 0x00)\ntag_1:\n  pop\n  dataSize(sub_0)\n  dup1\n  dataOffset(sub_0)\n  0x00\n  codecopy\n  0x00\n  return\nstop\n\nsub_0: assembly {\n        /* \"gradingSystem.sol\":59:1022  contract GradingSystem{... */\n      mstore(0x40, 0x80)\n      callvalue\n      dup1\n      iszero\n      tag_1\n      jumpi\n      revert(0x00, 0x00)\n    tag_1:\n      pop\n      jumpi(tag_2, lt(calldatasize, 0x04))\n      shr(0xe0, calldataload(0x00))\n      dup1\n      0x10b2afce\n      eq\n      tag_3\n      jumpi\n      dup1\n      0x5eb29adf\n      eq\n      tag_4\n      jumpi\n      dup1\n      0x6eb8f684\n      eq\n      tag_5\n      jumpi\n      dup1\n      0xd49fc751\n      eq\n      tag_6\n      jumpi\n    tag_2:\n      revert(0x00, 0x00)\n        /* \"gradingSystem.sol\":174:390  function addScore(uint score)public {... */\n    tag_3:\n      tag_7\n      0x04\n      dup1\n      calldatasize\n      sub\n      dup2\n      add\n      swap1\n      tag_8\n      swap2\n      swap1\n      tag_9\n      jump\t// in\n    tag_8:\n      tag_10\n      jump\t// in\n    tag_7:\n      stop\n        /* \"gradingSystem.sol\":396:915  function getLetterGrade()public view returns(string memory){... */\n    tag_4:\n      tag_11\n      tag_12\n      jump\t// in\n    tag_11:\n      mload(0x40)\n      tag_13\n      swap2\n      swap1\n      tag_14\n      jump\t// in\n    tag_13:\n      mload(0x40)\n      dup1\n      swap2\n      sub\n      swap1\n      return\n        /* \"gradingSystem.sol\":921:1019  function hasPassed() public view returns (bool) {... */\n    tag_5:\n      tag_15\n      tag_16\n      jump\t// in\n    tag_15:\n      mload(0x40)\n      tag_17\n      swap2\n      swap1\n      tag_18\n      jump\t// in\n    tag_17:\n      mload(0x40)\n      dup1\n      swap2\n      sub\n      swap1\n      return\n        /* \"gradingSystem.sol\":88:127  mapping (address => uint) public grades */\n    tag_6:\n      tag_19\n      0x04\n      dup1\n      calldatasize\n      sub\n      dup2\n      add\n      swap1\n      tag_20\n      swap2\n      swap1\n      tag_21\n      jump\t// in\n    tag_20:\n      tag_22\n      jump\t// in\n    tag_19:\n      mload(0x40)\n      tag_23\n      swap2\n      swap1\n      tag_24\n      jump\t// in\n    tag_23:\n      mload(0x40)\n      dup1\n      swap2\n      sub\n      swap1\n      return\n        /* \"gradingSystem.sol\":174:390  function addScore(uint score)public {... */\n    tag_10:\n        /* \"gradingSystem.sol\":232:235  100 */\n      0x64\n        /* \"gradingSystem.sol\":225:230  score */\n      dup2\n        /* \"gradingSystem.sol\":225:235  score<=100 */\n      gt\n      iszero\n        /* \"gradingSystem.sol\":217:268  require(score<=100,\"Score should be less than 100\") */\n      tag_26\n      jumpi\n      mload(0x40)\n      0x08c379a000000000000000000000000000000000000000000000000000000000\n      dup2\n      mstore\n      0x04\n      add\n      tag_27\n      swap1\n      tag_28\n      jump\t// in\n    tag_27:\n      mload(0x40)\n      dup1\n      swap2\n      sub\n      swap1\n      revert\n    tag_26:\n        /* \"gradingSystem.sol\":343:348  score */\n      dup1\n        /* \"gradingSystem.sol\":324:330  grades */\n      0x00\n        /* \"gradingSystem.sol\":324:342  grades[msg.sender] */\n      0x00\n        /* \"gradingSystem.sol\":331:341  msg.sender */\n      caller\n        /* \"gradingSystem.sol\":324:342  grades[msg.sender] */\n      0xffffffffffffffffffffffffffffffffffffffff\n      and\n      0xffffffffffffffffffffffffffffffffffffffff\n      and\n      dup2\n      mstore\n      0x20\n      add\n      swap1\n      dup2\n      mstore\n      0x20\n      add\n      0x00\n      keccak256\n        /* \"gradingSystem.sol\":324:348  grades[msg.sender]=score */\n      dup2\n      swap1\n      sstore\n      pop\n        /* \"gradingSystem.sol\":174:390  function addScore(uint score)public {... */\n      pop\n      jump\t// out\n        /* \"gradingSystem.sol\":396:915  function getLetterGrade()public view returns(string memory){... */\n    tag_12:\n        /* \"gradingSystem.sol\":441:454  string memory */\n      0x60\n        /* \"gradingSystem.sol\":466:476  uint score */\n      0x00\n        /* \"gradingSystem.sol\":479:485  grades */\n      0x00\n        /* \"gradingSystem.sol\":479:497  grades[msg.sender] */\n      0x00\n        /* \"gradingSystem.sol\":486:496  msg.sender */\n      caller\n        /* \"gradingSystem.sol\":479:497  grades[msg.sender] */\n      0xffffffffffffffffffffffffffffffffffffffff\n      and\n      0xffffffffffffffffffffffffffffffffffffffff\n      and\n      dup2\n      mstore\n      0x20\n      add\n      swap1\n      dup2\n      mstore\n      0x20\n      add\n      0x00\n      keccak256\n      sload\n        /* \"gradingSystem.sol\":466:497  uint score = grades[msg.sender] */\n      swap1\n      pop\n        /* \"gradingSystem.sol\":552:554  80 */\n      0x50\n        /* \"gradingSystem.sol\":545:550  score */\n      dup2\n        /* \"gradingSystem.sol\":545:554  score>=80 */\n      lt\n        /* \"gradingSystem.sol\":542:908  if(score>=80){... */\n      tag_30\n      jumpi\n        /* \"gradingSystem.sol\":570:581  return \"A+\" */\n      mload(0x40)\n      dup1\n      0x40\n      add\n      0x40\n      mstore\n      dup1\n      0x02\n      dup2\n      mstore\n      0x20\n      add\n      0x412b000000000000000000000000000000000000000000000000000000000000\n      dup2\n      mstore\n      pop\n      swap2\n      pop\n      pop\n      jump(tag_29)\n        /* \"gradingSystem.sol\":542:908  if(score>=80){... */\n    tag_30:\n        /* \"gradingSystem.sol\":619:621  70 */\n      0x46\n        /* \"gradingSystem.sol\":612:617  score */\n      dup2\n        /* \"gradingSystem.sol\":612:621  score>=70 */\n      lt\n        /* \"gradingSystem.sol\":608:908  if (score>=70){... */\n      tag_32\n      jumpi\n        /* \"gradingSystem.sol\":637:647  return \"A\" */\n      mload(0x40)\n      dup1\n      0x40\n      add\n      0x40\n      mstore\n      dup1\n      0x01\n      dup2\n      mstore\n      0x20\n      add\n      0x4100000000000000000000000000000000000000000000000000000000000000\n      dup2\n      mstore\n      pop\n      swap2\n      pop\n      pop\n      jump(tag_29)\n        /* \"gradingSystem.sol\":608:908  if (score>=70){... */\n    tag_32:\n        /* \"gradingSystem.sol\":685:687  60 */\n      0x3c\n        /* \"gradingSystem.sol\":678:683  score */\n      dup2\n        /* \"gradingSystem.sol\":678:687  score>=60 */\n      lt\n        /* \"gradingSystem.sol\":674:908  if (score>=60){... */\n      tag_34\n      jumpi\n        /* \"gradingSystem.sol\":703:713  return \"B\" */\n      mload(0x40)\n      dup1\n      0x40\n      add\n      0x40\n      mstore\n      dup1\n      0x01\n      dup2\n      mstore\n      0x20\n      add\n      0x4200000000000000000000000000000000000000000000000000000000000000\n      dup2\n      mstore\n      pop\n      swap2\n      pop\n      pop\n      jump(tag_29)\n        /* \"gradingSystem.sol\":674:908  if (score>=60){... */\n    tag_34:\n        /* \"gradingSystem.sol\":751:753  50 */\n      0x32\n        /* \"gradingSystem.sol\":744:749  score */\n      dup2\n        /* \"gradingSystem.sol\":744:753  score>=50 */\n      lt\n        /* \"gradingSystem.sol\":740:908  if (score>=50){... */\n      tag_36\n      jumpi\n        /* \"gradingSystem.sol\":769:779  return \"C\" */\n      mload(0x40)\n      dup1\n      0x40\n      add\n      0x40\n      mstore\n      dup1\n      0x01\n      dup2\n      mstore\n      0x20\n      add\n      0x4300000000000000000000000000000000000000000000000000000000000000\n      dup2\n      mstore\n      pop\n      swap2\n      pop\n      pop\n      jump(tag_29)\n        /* \"gradingSystem.sol\":740:908  if (score>=50){... */\n    tag_36:\n        /* \"gradingSystem.sol\":817:819  40 */\n      0x28\n        /* \"gradingSystem.sol\":810:815  score */\n      dup2\n        /* \"gradingSystem.sol\":810:819  score>=40 */\n      lt\n        /* \"gradingSystem.sol\":806:908  if (score>=40){... */\n      tag_38\n      jumpi\n        /* \"gradingSystem.sol\":835:845  return \"D\" */\n      mload(0x40)\n      dup1\n      0x40\n      add\n      0x40\n      mstore\n      dup1\n      0x01\n      dup2\n      mstore\n      0x20\n      add\n      0x4400000000000000000000000000000000000000000000000000000000000000\n      dup2\n      mstore\n      pop\n      swap2\n      pop\n      pop\n      jump(tag_29)\n        /* \"gradingSystem.sol\":806:908  if (score>=40){... */\n    tag_38:\n        /* \"gradingSystem.sol\":886:896  return \"F\" */\n      mload(0x40)\n      dup1\n      0x40\n      add\n      0x40\n      mstore\n      dup1\n      0x01\n      dup2\n      mstore\n      0x20\n      add\n      0x4600000000000000000000000000000000000000000000000000000000000000\n      dup2\n      mstore\n      pop\n      swap2\n      pop\n      pop\n        /* \"gradingSystem.sol\":396:915  function getLetterGrade()public view returns(string memory){... */\n    tag_29:\n      swap1\n      jump\t// out\n        /* \"gradingSystem.sol\":921:1019  function hasPassed() public view returns (bool) {... */\n    tag_16:\n        /* \"gradingSystem.sol\":963:967  bool */\n      0x00\n        /* \"gradingSystem.sol\":1009:1011  50 */\n      0x32\n        /* \"gradingSystem.sol\":987:993  grades */\n      0x00\n        /* \"gradingSystem.sol\":987:1005  grades[msg.sender] */\n      0x00\n        /* \"gradingSystem.sol\":994:1004  msg.sender */\n      caller\n        /* \"gradingSystem.sol\":987:1005  grades[msg.sender] */\n      0xffffffffffffffffffffffffffffffffffffffff\n      and\n      0xffffffffffffffffffffffffffffffffffffffff\n      and\n      dup2\n      mstore\n      0x20\n      add\n      swap1\n      dup2\n      mstore\n      0x20\n      add\n      0x00\n      keccak256\n      sload\n        /* \"gradingSystem.sol\":987:1011  grades[msg.sender] >= 50 */\n      lt\n      iszero\n        /* \"gradingSystem.sol\":980:1011  return grades[msg.sender] >= 50 */\n      swap1\n      pop\n        /* \"gradingSystem.sol\":921:1019  function hasPassed() public view returns (bool) {... */\n      swap1\n      jump\t// out\n        /* \"gradingSystem.sol\":88:127  mapping (address => uint) public grades */\n    tag_22:\n      mstore(0x20, 0x00)\n      dup1\n      0x00\n      mstore\n      keccak256(0x00, 0x40)\n      0x00\n      swap2\n      pop\n      swap1\n      pop\n      sload\n      dup2\n      jump\t// out\n        /* \"#utility.yul\":88:205   */\n    tag_42:\n        /* \"#utility.yul\":197:198   */\n      0x00\n        /* \"#utility.yul\":194:195   */\n      0x00\n        /* \"#utility.yul\":187:199   */\n      revert\n        /* \"#utility.yul\":334:411   */\n    tag_44:\n        /* \"#utility.yul\":371:378   */\n      0x00\n        /* \"#utility.yul\":400:405   */\n      dup2\n        /* \"#utility.yul\":389:405   */\n      swap1\n      pop\n        /* \"#utility.yul\":334:411   */\n      swap2\n      swap1\n      pop\n      jump\t// out\n        /* \"#utility.yul\":417:539   */\n    tag_45:\n        /* \"#utility.yul\":490:514   */\n      tag_67\n        /* \"#utility.yul\":508:513   */\n      dup2\n        /* \"#utility.yul\":490:514   */\n      tag_44\n      jump\t// in\n    tag_67:\n        /* \"#utility.yul\":483:488   */\n      dup2\n        /* \"#utility.yul\":480:515   */\n      eq\n        /* \"#utility.yul\":470:533   */\n      tag_68\n      jumpi\n        /* \"#utility.yul\":529:530   */\n      0x00\n        /* \"#utility.yul\":526:527   */\n      0x00\n        /* \"#utility.yul\":519:531   */\n      revert\n        /* \"#utility.yul\":470:533   */\n    tag_68:\n        /* \"#utility.yul\":417:539   */\n      pop\n      jump\t// out\n        /* \"#utility.yul\":545:684   */\n    tag_46:\n        /* \"#utility.yul\":591:596   */\n      0x00\n        /* \"#utility.yul\":629:635   */\n      dup2\n        /* \"#utility.yul\":616:636   */\n      calldataload\n        /* \"#utility.yul\":607:636   */\n      swap1\n      pop\n        /* \"#utility.yul\":645:678   */\n      tag_70\n        /* \"#utility.yul\":672:677   */\n      dup2\n        /* \"#utility.yul\":645:678   */\n      tag_45\n      jump\t// in\n    tag_70:\n        /* \"#utility.yul\":545:684   */\n      swap3\n      swap2\n      pop\n      pop\n      jump\t// out\n        /* \"#utility.yul\":690:1019   */\n    tag_9:\n        /* \"#utility.yul\":749:755   */\n      0x00\n        /* \"#utility.yul\":798:800   */\n      0x20\n        /* \"#utility.yul\":786:795   */\n      dup3\n        /* \"#utility.yul\":777:784   */\n      dup5\n        /* \"#utility.yul\":773:796   */\n      sub\n        /* \"#utility.yul\":769:801   */\n      slt\n        /* \"#utility.yul\":766:885   */\n      iszero\n      tag_72\n      jumpi\n        /* \"#utility.yul\":804:883   */\n      tag_73\n      tag_42\n      jump\t// in\n    tag_73:\n        /* \"#utility.yul\":766:885   */\n    tag_72:\n        /* \"#utility.yul\":924:925   */\n      0x00\n        /* \"#utility.yul\":949:1002   */\n      tag_74\n        /* \"#utility.yul\":994:1001   */\n      dup5\n        /* \"#utility.yul\":985:991   */\n      dup3\n        /* \"#utility.yul\":974:983   */\n      dup6\n        /* \"#utility.yul\":970:992   */\n      add\n        /* \"#utility.yul\":949:1002   */\n      tag_46\n      jump\t// in\n    tag_74:\n        /* \"#utility.yul\":939:1002   */\n      swap2\n      pop\n        /* \"#utility.yul\":895:1012   */\n      pop\n        /* \"#utility.yul\":690:1019   */\n      swap3\n      swap2\n      pop\n      pop\n      jump\t// out\n        /* \"#utility.yul\":1025:1124   */\n    tag_47:\n        /* \"#utility.yul\":1077:1083   */\n      0x00\n        /* \"#utility.yul\":1111:1116   */\n      dup2\n        /* \"#utility.yul\":1105:1117   */\n      mload\n        /* \"#utility.yul\":1095:1117   */\n      swap1\n      pop\n        /* \"#utility.yul\":1025:1124   */\n      swap2\n      swap1\n      pop\n      jump\t// out\n        /* \"#utility.yul\":1130:1299   */\n    tag_48:\n        /* \"#utility.yul\":1214:1225   */\n      0x00\n        /* \"#utility.yul\":1248:1254   */\n      dup3\n        /* \"#utility.yul\":1243:1246   */\n      dup3\n        /* \"#utility.yul\":1236:1255   */\n      mstore\n        /* \"#utility.yul\":1288:1292   */\n      0x20\n        /* \"#utility.yul\":1283:1286   */\n      dup3\n        /* \"#utility.yul\":1279:1293   */\n      add\n        /* \"#utility.yul\":1264:1293   */\n      swap1\n      pop\n        /* \"#utility.yul\":1130:1299   */\n      swap3\n      swap2\n      pop\n      pop\n      jump\t// out\n        /* \"#utility.yul\":1305:1444   */\n    tag_49:\n        /* \"#utility.yul\":1394:1400   */\n      dup3\n        /* \"#utility.yul\":1389:1392   */\n      dup2\n        /* \"#utility.yul\":1384:1387   */\n      dup4\n        /* \"#utility.yul\":1378:1401   */\n      mcopy\n        /* \"#utility.yul\":1435:1436   */\n      0x00\n        /* \"#utility.yul\":1426:1432   */\n      dup4\n        /* \"#utility.yul\":1421:1424   */\n      dup4\n        /* \"#utility.yul\":1417:1433   */\n      add\n        /* \"#utility.yul\":1410:1437   */\n      mstore\n        /* \"#utility.yul\":1305:1444   */\n      pop\n      pop\n      pop\n      jump\t// out\n        /* \"#utility.yul\":1450:1552   */\n    tag_50:\n        /* \"#utility.yul\":1491:1497   */\n      0x00\n        /* \"#utility.yul\":1542:1544   */\n      0x1f\n        /* \"#utility.yul\":1538:1545   */\n      not\n        /* \"#utility.yul\":1533:1535   */\n      0x1f\n        /* \"#utility.yul\":1526:1531   */\n      dup4\n        /* \"#utility.yul\":1522:1536   */\n      add\n        /* \"#utility.yul\":1518:1546   */\n      and\n        /* \"#utility.yul\":1508:1546   */\n      swap1\n      pop\n        /* \"#utility.yul\":1450:1552   */\n      swap2\n      swap1\n      pop\n      jump\t// out\n        /* \"#utility.yul\":1558:1935   */\n    tag_51:\n        /* \"#utility.yul\":1646:1649   */\n      0x00\n        /* \"#utility.yul\":1674:1713   */\n      tag_80\n        /* \"#utility.yul\":1707:1712   */\n      dup3\n        /* \"#utility.yul\":1674:1713   */\n      tag_47\n      jump\t// in\n    tag_80:\n        /* \"#utility.yul\":1729:1800   */\n      tag_81\n        /* \"#utility.yul\":1793:1799   */\n      dup2\n        /* \"#utility.yul\":1788:1791   */\n      dup6\n        /* \"#utility.yul\":1729:1800   */\n      tag_48\n      jump\t// in\n    tag_81:\n        /* \"#utility.yul\":1722:1800   */\n      swap4\n      pop\n        /* \"#utility.yul\":1809:1874   */\n      tag_82\n        /* \"#utility.yul\":1867:1873   */\n      dup2\n        /* \"#utility.yul\":1862:1865   */\n      dup6\n        /* \"#utility.yul\":1855:1859   */\n      0x20\n        /* \"#utility.yul\":1848:1853   */\n      dup7\n        /* \"#utility.yul\":1844:1860   */\n      add\n        /* \"#utility.yul\":1809:1874   */\n      tag_49\n      jump\t// in\n    tag_82:\n        /* \"#utility.yul\":1899:1928   */\n      tag_83\n        /* \"#utility.yul\":1921:1927   */\n      dup2\n        /* \"#utility.yul\":1899:1928   */\n      tag_50\n      jump\t// in\n    tag_83:\n        /* \"#utility.yul\":1894:1897   */\n      dup5\n        /* \"#utility.yul\":1890:1929   */\n      add\n        /* \"#utility.yul\":1883:1929   */\n      swap2\n      pop\n        /* \"#utility.yul\":1650:1935   */\n      pop\n        /* \"#utility.yul\":1558:1935   */\n      swap3\n      swap2\n      pop\n      pop\n      jump\t// out\n        /* \"#utility.yul\":1941:2254   */\n    tag_14:\n        /* \"#utility.yul\":2054:2058   */\n      0x00\n        /* \"#utility.yul\":2092:2094   */\n      0x20\n        /* \"#utility.yul\":2081:2090   */\n      dup3\n        /* \"#utility.yul\":2077:2095   */\n      add\n        /* \"#utility.yul\":2069:2095   */\n      swap1\n      pop\n        /* \"#utility.yul\":2141:2150   */\n      dup2\n        /* \"#utility.yul\":2135:2139   */\n      dup2\n        /* \"#utility.yul\":2131:2151   */\n      sub\n        /* \"#utility.yul\":2127:2128   */\n      0x00\n        /* \"#utility.yul\":2116:2125   */\n      dup4\n        /* \"#utility.yul\":2112:2129   */\n      add\n        /* \"#utility.yul\":2105:2152   */\n      mstore\n        /* \"#utility.yul\":2169:2247   */\n      tag_85\n        /* \"#utility.yul\":2242:2246   */\n      dup2\n        /* \"#utility.yul\":2233:2239   */\n      dup5\n        /* \"#utility.yul\":2169:2247   */\n      tag_51\n      jump\t// in\n    tag_85:\n        /* \"#utility.yul\":2161:2247   */\n      swap1\n      pop\n        /* \"#utility.yul\":1941:2254   */\n      swap3\n      swap2\n      pop\n      pop\n      jump\t// out\n        /* \"#utility.yul\":2260:2350   */\n    tag_52:\n        /* \"#utility.yul\":2294:2301   */\n      0x00\n        /* \"#utility.yul\":2337:2342   */\n      dup2\n        /* \"#utility.yul\":2330:2343   */\n      iszero\n        /* \"#utility.yul\":2323:2344   */\n      iszero\n        /* \"#utility.yul\":2312:2344   */\n      swap1\n      pop\n        /* \"#utility.yul\":2260:2350   */\n      swap2\n      swap1\n      pop\n      jump\t// out\n        /* \"#utility.yul\":2356:2465   */\n    tag_53:\n        /* \"#utility.yul\":2437:2458   */\n      tag_88\n        /* \"#utility.yul\":2452:2457   */\n      dup2\n        /* \"#utility.yul\":2437:2458   */\n      tag_52\n      jump\t// in\n    tag_88:\n        /* \"#utility.yul\":2432:2435   */\n      dup3\n        /* \"#utility.yul\":2425:2459   */\n      mstore\n        /* \"#utility.yul\":2356:2465   */\n      pop\n      pop\n      jump\t// out\n        /* \"#utility.yul\":2471:2681   */\n    tag_18:\n        /* \"#utility.yul\":2558:2562   */\n      0x00\n        /* \"#utility.yul\":2596:2598   */\n      0x20\n        /* \"#utility.yul\":2585:2594   */\n      dup3\n        /* \"#utility.yul\":2581:2599   */\n      add\n        /* \"#utility.yul\":2573:2599   */\n      swap1\n      pop\n        /* \"#utility.yul\":2609:2674   */\n      tag_90\n        /* \"#utility.yul\":2671:2672   */\n      0x00\n        /* \"#utility.yul\":2660:2669   */\n      dup4\n        /* \"#utility.yul\":2656:2673   */\n      add\n        /* \"#utility.yul\":2647:2653   */\n      dup5\n        /* \"#utility.yul\":2609:2674   */\n      tag_53\n      jump\t// in\n    tag_90:\n        /* \"#utility.yul\":2471:2681   */\n      swap3\n      swap2\n      pop\n      pop\n      jump\t// out\n        /* \"#utility.yul\":2687:2813   */\n    tag_54:\n        /* \"#utility.yul\":2724:2731   */\n      0x00\n        /* \"#utility.yul\":2764:2806   */\n      0xffffffffffffffffffffffffffffffffffffffff\n        /* \"#utility.yul\":2757:2762   */\n      dup3\n        /* \"#utility.yul\":2753:2807   */\n      and\n        /* \"#utility.yul\":2742:2807   */\n      swap1\n      pop\n        /* \"#utility.yul\":2687:2813   */\n      swap2\n      swap1\n      pop\n      jump\t// out\n        /* \"#utility.yul\":2819:2915   */\n    tag_55:\n        /* \"#utility.yul\":2856:2863   */\n      0x00\n        /* \"#utility.yul\":2885:2909   */\n      tag_93\n        /* \"#utility.yul\":2903:2908   */\n      dup3\n        /* \"#utility.yul\":2885:2909   */\n      tag_54\n      jump\t// in\n    tag_93:\n        /* \"#utility.yul\":2874:2909   */\n      swap1\n      pop\n        /* \"#utility.yul\":2819:2915   */\n      swap2\n      swap1\n      pop\n      jump\t// out\n        /* \"#utility.yul\":2921:3043   */\n    tag_56:\n        /* \"#utility.yul\":2994:3018   */\n      tag_95\n        /* \"#utility.yul\":3012:3017   */\n      dup2\n        /* \"#utility.yul\":2994:3018   */\n      tag_55\n      jump\t// in\n    tag_95:\n        /* \"#utility.yul\":2987:2992   */\n      dup2\n        /* \"#utility.yul\":2984:3019   */\n      eq\n        /* \"#utility.yul\":2974:3037   */\n      tag_96\n      jumpi\n        /* \"#utility.yul\":3033:3034   */\n      0x00\n        /* \"#utility.yul\":3030:3031   */\n      0x00\n        /* \"#utility.yul\":3023:3035   */\n      revert\n        /* \"#utility.yul\":2974:3037   */\n    tag_96:\n        /* \"#utility.yul\":2921:3043   */\n      pop\n      jump\t// out\n        /* \"#utility.yul\":3049:3188   */\n    tag_57:\n        /* \"#utility.yul\":3095:3100   */\n      0x00\n        /* \"#utility.yul\":3133:3139   */\n      dup2\n        /* \"#utility.yul\":3120:3140   */\n      calldataload\n        /* \"#utility.yul\":3111:3140   */\n      swap1\n      pop\n        /* \"#utility.yul\":3149:3182   */\n      tag_98\n        /* \"#utility.yul\":3176:3181   */\n      dup2\n        /* \"#utility.yul\":3149:3182   */\n      tag_56\n      jump\t// in\n    tag_98:\n        /* \"#utility.yul\":3049:3188   */\n      swap3\n      swap2\n      pop\n      pop\n      jump\t// out\n        /* \"#utility.yul\":3194:3523   */\n    tag_21:\n        /* \"#utility.yul\":3253:3259   */\n      0x00\n        /* \"#utility.yul\":3302:3304   */\n      0x20\n        /* \"#utility.yul\":3290:3299   */\n      dup3\n        /* \"#utility.yul\":3281:3288   */\n      dup5\n        /* \"#utility.yul\":3277:3300   */\n      sub\n        /* \"#utility.yul\":3273:3305   */\n      slt\n        /* \"#utility.yul\":3270:3389   */\n      iszero\n      tag_100\n      jumpi\n        /* \"#utility.yul\":3308:3387   */\n      tag_101\n      tag_42\n      jump\t// in\n    tag_101:\n        /* \"#utility.yul\":3270:3389   */\n    tag_100:\n        /* \"#utility.yul\":3428:3429   */\n      0x00\n        /* \"#utility.yul\":3453:3506   */\n      tag_102\n        /* \"#utility.yul\":3498:3505   */\n      dup5\n        /* \"#utility.yul\":3489:3495   */\n      dup3\n        /* \"#utility.yul\":3478:3487   */\n      dup6\n        /* \"#utility.yul\":3474:3496   */\n      add\n        /* \"#utility.yul\":3453:3506   */\n      tag_57\n      jump\t// in\n    tag_102:\n        /* \"#utility.yul\":3443:3506   */\n      swap2\n      pop\n        /* \"#utility.yul\":3399:3516   */\n      pop\n        /* \"#utility.yul\":3194:3523   */\n      swap3\n      swap2\n      pop\n      pop\n      jump\t// out\n        /* \"#utility.yul\":3529:3647   */\n    tag_58:\n        /* \"#utility.yul\":3616:3640   */\n      tag_104\n        /* \"#utility.yul\":3634:3639   */\n      dup2\n        /* \"#utility.yul\":3616:3640   */\n      tag_44\n      jump\t// in\n    tag_104:\n        /* \"#utility.yul\":3611:3614   */\n      dup3\n        /* \"#utility.yul\":3604:3641   */\n      mstore\n        /* \"#utility.yul\":3529:3647   */\n      pop\n      pop\n      jump\t// out\n        /* \"#utility.yul\":3653:3875   */\n    tag_24:\n        /* \"#utility.yul\":3746:3750   */\n      0x00\n        /* \"#utility.yul\":3784:3786   */\n      0x20\n        /* \"#utility.yul\":3773:3782   */\n      dup3\n        /* \"#utility.yul\":3769:3787   */\n      add\n        /* \"#utility.yul\":3761:3787   */\n      swap1\n      pop\n        /* \"#utility.yul\":3797:3868   */\n      tag_106\n        /* \"#utility.yul\":3865:3866   */\n      0x00\n        /* \"#utility.yul\":3854:3863   */\n      dup4\n        /* \"#utility.yul\":3850:3867   */\n      add\n        /* \"#utility.yul\":3841:3847   */\n      dup5\n        /* \"#utility.yul\":3797:3868   */\n      tag_58\n      jump\t// in\n    tag_106:\n        /* \"#utility.yul\":3653:3875   */\n      swap3\n      swap2\n      pop\n      pop\n      jump\t// out\n        /* \"#utility.yul\":3881:4060   */\n    tag_59:\n        /* \"#utility.yul\":4021:4052   */\n      0x53636f72652073686f756c64206265206c657373207468616e20313030000000\n        /* \"#utility.yul\":4017:4018   */\n      0x00\n        /* \"#utility.yul\":4009:4015   */\n      dup3\n        /* \"#utility.yul\":4005:4019   */\n      add\n        /* \"#utility.yul\":3998:4053   */\n      mstore\n        /* \"#utility.yul\":3881:4060   */\n      pop\n      jump\t// out\n        /* \"#utility.yul\":4066:4432   */\n    tag_60:\n        /* \"#utility.yul\":4208:4211   */\n      0x00\n        /* \"#utility.yul\":4229:4296   */\n      tag_109\n        /* \"#utility.yul\":4293:4295   */\n      0x1d\n        /* \"#utility.yul\":4288:4291   */\n      dup4\n        /* \"#utility.yul\":4229:4296   */\n      tag_48\n      jump\t// in\n    tag_109:\n        /* \"#utility.yul\":4222:4296   */\n      swap2\n      pop\n        /* \"#utility.yul\":4305:4398   */\n      tag_110\n        /* \"#utility.yul\":4394:4397   */\n      dup3\n        /* \"#utility.yul\":4305:4398   */\n      tag_59\n      jump\t// in\n    tag_110:\n        /* \"#utility.yul\":4423:4425   */\n      0x20\n        /* \"#utility.yul\":4418:4421   */\n      dup3\n        /* \"#utility.yul\":4414:4426   */\n      add\n        /* \"#utility.yul\":4407:4426   */\n      swap1\n      pop\n        /* \"#utility.yul\":4066:4432   */\n      swap2\n      swap1\n      pop\n      jump\t// out\n        /* \"#utility.yul\":4438:4857   */\n    tag_28:\n        /* \"#utility.yul\":4604:4608   */\n      0x00\n        /* \"#utility.yul\":4642:4644   */\n      0x20\n        /* \"#utility.yul\":4631:4640   */\n      dup3\n        /* \"#utility.yul\":4627:4645   */\n      add\n        /* \"#utility.yul\":4619:4645   */\n      swap1\n      pop\n        /* \"#utility.yul\":4691:4700   */\n      dup2\n        /* \"#utility.yul\":4685:4689   */\n      dup2\n        /* \"#utility.yul\":4681:4701   */\n      sub\n        /* \"#utility.yul\":4677:4678   */\n      0x00\n        /* \"#utility.yul\":4666:4675   */\n      dup4\n        /* \"#utility.yul\":4662:4679   */\n      add\n        /* \"#utility.yul\":4655:4702   */\n      mstore\n        /* \"#utility.yul\":4719:4850   */\n      tag_112\n        /* \"#utility.yul\":4845:4849   */\n      dup2\n        /* \"#utility.yul\":4719:4850   */\n      tag_60\n      jump\t// in\n    tag_112:\n        /* \"#utility.yul\":4711:4850   */\n      swap1\n      pop\n        /* \"#utility.yul\":4438:4857   */\n      swap2\n      swap1\n      pop\n      jump\t// out\n\n    auxdata: 0xa2646970667358221220acbc208d1f29d6c26b42f3a996120cabe95d58be7b5d1071ad40d122011092fa64736f6c634300081f0033\n}\n",
				"bytecode": {
					"linkReferences": {},
					"object": "6080604052348015600e575f5ffd5b506106068061001c5f395ff3fe608060405234801561000f575f5ffd5b506004361061004a575f3560e01c806310b2afce1461004e5780635eb29adf1461006a5780636eb8f68414610088578063d49fc751146100a6575b5f5ffd5b610068600480360381019061006391906103cd565b6100d6565b005b61007261015e565b60405161007f9190610468565b60405180910390f35b61009061033b565b60405161009d91906104a2565b60405180910390f35b6100c060048036038101906100bb9190610515565b610382565b6040516100cd919061054f565b60405180910390f35b606481111561011a576040517f08c379a0000000000000000000000000000000000000000000000000000000008152600401610111906105b2565b60405180910390fd5b805f5f3373ffffffffffffffffffffffffffffffffffffffff1673ffffffffffffffffffffffffffffffffffffffff1681526020019081526020015f208190555050565b60605f5f5f3373ffffffffffffffffffffffffffffffffffffffff1673ffffffffffffffffffffffffffffffffffffffff1681526020019081526020015f20549050605081106101e6576040518060400160405280600281526020017f412b000000000000000000000000000000000000000000000000000000000000815250915050610338565b6046811061022c576040518060400160405280600181526020017f4100000000000000000000000000000000000000000000000000000000000000815250915050610338565b603c8110610272576040518060400160405280600181526020017f4200000000000000000000000000000000000000000000000000000000000000815250915050610338565b603281106102b8576040518060400160405280600181526020017f4300000000000000000000000000000000000000000000000000000000000000815250915050610338565b602881106102fe576040518060400160405280600181526020017f4400000000000000000000000000000000000000000000000000000000000000815250915050610338565b6040518060400160405280600181526020017f46000000000000000000000000000000000000000000000000000000000000008152509150505b90565b5f60325f5f3373ffffffffffffffffffffffffffffffffffffffff1673ffffffffffffffffffffffffffffffffffffffff1681526020019081526020015f20541015905090565b5f602052805f5260405f205f915090505481565b5f5ffd5b5f819050919050565b6103ac8161039a565b81146103b6575f5ffd5b50565b5f813590506103c7816103a3565b92915050565b5f602082840312156103e2576103e1610396565b5b5f6103ef848285016103b9565b91505092915050565b5f81519050919050565b5f82825260208201905092915050565b8281835e5f83830152505050565b5f601f19601f8301169050919050565b5f61043a826103f8565b6104448185610402565b9350610454818560208601610412565b61045d81610420565b840191505092915050565b5f6020820190508181035f8301526104808184610430565b905092915050565b5f8115159050919050565b61049c81610488565b82525050565b5f6020820190506104b55f830184610493565b92915050565b5f73ffffffffffffffffffffffffffffffffffffffff82169050919050565b5f6104e4826104bb565b9050919050565b6104f4816104da565b81146104fe575f5ffd5b50565b5f8135905061050f816104eb565b92915050565b5f6020828403121561052a57610529610396565b5b5f61053784828501610501565b91505092915050565b6105498161039a565b82525050565b5f6020820190506105625f830184610540565b92915050565b7f53636f72652073686f756c64206265206c657373207468616e203130300000005f82015250565b5f61059c601d83610402565b91506105a782610568565b602082019050919050565b5f6020820190508181035f8301526105c981610590565b905091905056fea2646970667358221220acbc208d1f29d6c26b42f3a996120cabe95d58be7b5d1071ad40d122011092fa64736f6c634300081f0033",
					"opcodes": "PUSH1 0x80 PUSH1 0x40 MSTORE CALLVALUE DUP1 ISZERO PUSH1 0xE JUMPI PUSH0 PUSH0 REVERT JUMPDEST POP PUSH2 0x606 DUP1 PUSH2 0x1C PUSH0 CODECOPY PUSH0 RETURN INVALID PUSH1 0x80 PUSH1 0x40 MSTORE CALLVALUE DUP1 ISZERO PUSH2 0xF JUMPI PUSH0 PUSH0 REVERT JUMPDEST POP PUSH1 0x4 CALLDATASIZE LT PUSH2 0x4A JUMPI PUSH0 CALLDATALOAD PUSH1 0xE0 SHR DUP1 PUSH4 0x10B2AFCE EQ PUSH2 0x4E JUMPI DUP1 PUSH4 0x5EB29ADF EQ PUSH2 0x6A JUMPI DUP1 PUSH4 0x6EB8F684 EQ PUSH2 0x88 JUMPI DUP1 PUSH4 0xD49FC751 EQ PUSH2 0xA6 JUMPI JUMPDEST PUSH0 PUSH0 REVERT JUMPDEST PUSH2 0x68 PUSH1 0x4 DUP1 CALLDATASIZE SUB DUP2 ADD SWAP1 PUSH2 0x63 SWAP2 SWAP1 PUSH2 0x3CD JUMP JUMPDEST PUSH2 0xD6 JUMP JUMPDEST STOP JUMPDEST PUSH2 0x72 PUSH2 0x15E JUMP JUMPDEST PUSH1 0x40 MLOAD PUSH2 0x7F SWAP2 SWAP1 PUSH2 0x468 JUMP JUMPDEST PUSH1 0x40 MLOAD DUP1 SWAP2 SUB SWAP1 RETURN JUMPDEST PUSH2 0x90 PUSH2 0x33B JUMP JUMPDEST PUSH1 0x40 MLOAD PUSH2 0x9D SWAP2 SWAP1 PUSH2 0x4A2 JUMP JUMPDEST PUSH1 0x40 MLOAD DUP1 SWAP2 SUB SWAP1 RETURN JUMPDEST PUSH2 0xC0 PUSH1 0x4 DUP1 CALLDATASIZE SUB DUP2 ADD SWAP1 PUSH2 0xBB SWAP2 SWAP1 PUSH2 0x515 JUMP JUMPDEST PUSH2 0x382 JUMP JUMPDEST PUSH1 0x40 MLOAD PUSH2 0xCD SWAP2 SWAP1 PUSH2 0x54F JUMP JUMPDEST PUSH1 0x40 MLOAD DUP1 SWAP2 SUB SWAP1 RETURN JUMPDEST PUSH1 0x64 DUP2 GT ISZERO PUSH2 0x11A JUMPI PUSH1 0x40 MLOAD PUSH32 0x8C379A000000000000000000000000000000000000000000000000000000000 DUP2 MSTORE PUSH1 0x4 ADD PUSH2 0x111 SWAP1 PUSH2 0x5B2 JUMP JUMPDEST PUSH1 0x40 MLOAD DUP1 SWAP2 SUB SWAP1 REVERT JUMPDEST DUP1 PUSH0 PUSH0 CALLER PUSH20 0xFFFFFFFFFFFFFFFFFFFFFFFFFFFFFFFFFFFFFFFF AND PUSH20 0xFFFFFFFFFFFFFFFFFFFFFFFFFFFFFFFFFFFFFFFF AND DUP2 MSTORE PUSH1 0x20 ADD SWAP1 DUP2 MSTORE PUSH1 0x20 ADD PUSH0 KECCAK256 DUP2 SWAP1 SSTORE POP POP JUMP JUMPDEST PUSH1 0x60 PUSH0 PUSH0 PUSH0 CALLER PUSH20 0xFFFFFFFFFFFFFFFFFFFFFFFFFFFFFFFFFFFFFFFF AND PUSH20 0xFFFFFFFFFFFFFFFFFFFFFFFFFFFFFFFFFFFFFFFF AND DUP2 MSTORE PUSH1 0x20 ADD SWAP1 DUP2 MSTORE PUSH1 0x20 ADD PUSH0 KECCAK256 SLOAD SWAP1 POP PUSH1 0x50 DUP2 LT PUSH2 0x1E6 JUMPI PUSH1 0x40 MLOAD DUP1 PUSH1 0x40 ADD PUSH1 0x40 MSTORE DUP1 PUSH1 0x2 DUP2 MSTORE PUSH1 0x20 ADD PUSH32 0x412B000000000000000000000000000000000000000000000000000000000000 DUP2 MSTORE POP SWAP2 POP POP PUSH2 0x338 JUMP JUMPDEST PUSH1 0x46 DUP2 LT PUSH2 0x22C JUMPI PUSH1 0x40 MLOAD DUP1 PUSH1 0x40 ADD PUSH1 0x40 MSTORE DUP1 PUSH1 0x1 DUP2 MSTORE PUSH1 0x20 ADD PUSH32 0x4100000000000000000000000000000000000000000000000000000000000000 DUP2 MSTORE POP SWAP2 POP POP PUSH2 0x338 JUMP JUMPDEST PUSH1 0x3C DUP2 LT PUSH2 0x272 JUMPI PUSH1 0x40 MLOAD DUP1 PUSH1 0x40 ADD PUSH1 0x40 MSTORE DUP1 PUSH1 0x1 DUP2 MSTORE PUSH1 0x20 ADD PUSH32 0x4200000000000000000000000000000000000000000000000000000000000000 DUP2 MSTORE POP SWAP2 POP POP PUSH2 0x338 JUMP JUMPDEST PUSH1 0x32 DUP2 LT PUSH2 0x2B8 JUMPI PUSH1 0x40 MLOAD DUP1 PUSH1 0x40 ADD PUSH1 0x40 MSTORE DUP1 PUSH1 0x1 DUP2 MSTORE PUSH1 0x20 ADD PUSH32 0x4300000000000000000000000000000000000000000000000000000000000000 DUP2 MSTORE POP SWAP2 POP POP PUSH2 0x338 JUMP JUMPDEST PUSH1 0x28 DUP2 LT PUSH2 0x2FE JUMPI PUSH1 0x40 MLOAD DUP1 PUSH1 0x40 ADD PUSH1 0x40 MSTORE DUP1 PUSH1 0x1 DUP2 MSTORE PUSH1 0x20 ADD PUSH32 0x4400000000000000000000000000000000000000000000000000000000000000 DUP2 MSTORE POP SWAP2 POP POP PUSH2 0x338 JUMP JUMPDEST PUSH1 0x40 MLOAD DUP1 PUSH1 0x40 ADD PUSH1 0x40 MSTORE DUP1 PUSH1 0x1 DUP2 MSTORE PUSH1 0x20 ADD PUSH32 0x4600000000000000000000000000000000000000000000000000000000000000 DUP2 MSTORE POP SWAP2 POP POP JUMPDEST SWAP1 JUMP JUMPDEST PUSH0 PUSH1 0x32 PUSH0 PUSH0 CALLER PUSH20 0xFFFFFFFFFFFFFFFFFFFFFFFFFFFFFFFFFFFFFFFF AND PUSH20 0xFFFFFFFFFFFFFFFFFFFFFFFFFFFFFFFFFFFFFFFF AND DUP2 MSTORE PUSH1 0x20 ADD SWAP1 DUP2 MSTORE PUSH1 0x20 ADD PUSH0 KECCAK256 SLOAD LT ISZERO SWAP1 POP SWAP1 JUMP JUMPDEST PUSH0 PUSH1 0x20 MSTORE DUP1 PUSH0 MSTORE PUSH1 0x40 PUSH0 KECCAK256 PUSH0 SWAP2 POP SWAP1 POP SLOAD DUP2 JUMP JUMPDEST PUSH0 PUSH0 REVERT JUMPDEST PUSH0 DUP2 SWAP1 POP SWAP2 SWAP1 POP JUMP JUMPDEST PUSH2 0x3AC DUP2 PUSH2 0x39A JUMP JUMPDEST DUP2 EQ PUSH2 0x3B6 JUMPI PUSH0 PUSH0 REVERT JUMPDEST POP JUMP JUMPDEST PUSH0 DUP2 CALLDATALOAD SWAP1 POP PUSH2 0x3C7 DUP2 PUSH2 0x3A3 JUMP JUMPDEST SWAP3 SWAP2 POP POP JUMP JUMPDEST PUSH0 PUSH1 0x20 DUP3 DUP5 SUB SLT ISZERO PUSH2 0x3E2 JUMPI PUSH2 0x3E1 PUSH2 0x396 JUMP JUMPDEST JUMPDEST PUSH0 PUSH2 0x3EF DUP5 DUP3 DUP6 ADD PUSH2 0x3B9 JUMP JUMPDEST SWAP2 POP POP SWAP3 SWAP2 POP POP JUMP JUMPDEST PUSH0 DUP2 MLOAD SWAP1 POP SWAP2 SWAP1 POP JUMP JUMPDEST PUSH0 DUP3 DUP3 MSTORE PUSH1 0x20 DUP3 ADD SWAP1 POP SWAP3 SWAP2 POP POP JUMP JUMPDEST DUP3 DUP2 DUP4 MCOPY PUSH0 DUP4 DUP4 ADD MSTORE POP POP POP JUMP JUMPDEST PUSH0 PUSH1 0x1F NOT PUSH1 0x1F DUP4 ADD AND SWAP1 POP SWAP2 SWAP1 POP JUMP JUMPDEST PUSH0 PUSH2 0x43A DUP3 PUSH2 0x3F8 JUMP JUMPDEST PUSH2 0x444 DUP2 DUP6 PUSH2 0x402 JUMP JUMPDEST SWAP4 POP PUSH2 0x454 DUP2 DUP6 PUSH1 0x20 DUP7 ADD PUSH2 0x412 JUMP JUMPDEST PUSH2 0x45D DUP2 PUSH2 0x420 JUMP JUMPDEST DUP5 ADD SWAP2 POP POP SWAP3 SWAP2 POP POP JUMP JUMPDEST PUSH0 PUSH1 0x20 DUP3 ADD SWAP1 POP DUP2 DUP2 SUB PUSH0 DUP4 ADD MSTORE PUSH2 0x480 DUP2 DUP5 PUSH2 0x430 JUMP JUMPDEST SWAP1 POP SWAP3 SWAP2 POP POP JUMP JUMPDEST PUSH0 DUP2 ISZERO ISZERO SWAP1 POP SWAP2 SWAP1 POP JUMP JUMPDEST PUSH2 0x49C DUP2 PUSH2 0x488 JUMP JUMPDEST DUP3 MSTORE POP POP JUMP JUMPDEST PUSH0 PUSH1 0x20 DUP3 ADD SWAP1 POP PUSH2 0x4B5 PUSH0 DUP4 ADD DUP5 PUSH2 0x493 JUMP JUMPDEST SWAP3 SWAP2 POP POP JUMP JUMPDEST PUSH0 PUSH20 0xFFFFFFFFFFFFFFFFFFFFFFFFFFFFFFFFFFFFFFFF DUP3 AND SWAP1 POP SWAP2 SWAP1 POP JUMP JUMPDEST PUSH0 PUSH2 0x4E4 DUP3 PUSH2 0x4BB JUMP JUMPDEST SWAP1 POP SWAP2 SWAP1 POP JUMP JUMPDEST PUSH2 0x4F4 DUP2 PUSH2 0x4DA JUMP JUMPDEST DUP2 EQ PUSH2 0x4FE JUMPI PUSH0 PUSH0 REVERT JUMPDEST POP JUMP JUMPDEST PUSH0 DUP2 CALLDATALOAD SWAP1 POP PUSH2 0x50F DUP2 PUSH2 0x4EB JUMP JUMPDEST SWAP3 SWAP2 POP POP JUMP JUMPDEST PUSH0 PUSH1 0x20 DUP3 DUP5 SUB SLT ISZERO PUSH2 0x52A JUMPI PUSH2 0x529 PUSH2 0x396 JUMP JUMPDEST JUMPDEST PUSH0 PUSH2 0x537 DUP5 DUP3 DUP6 ADD PUSH2 0x501 JUMP JUMPDEST SWAP2 POP POP SWAP3 SWAP2 POP POP JUMP JUMPDEST PUSH2 0x549 DUP2 PUSH2 0x39A JUMP JUMPDEST DUP3 MSTORE POP POP JUMP JUMPDEST PUSH0 PUSH1 0x20 DUP3 ADD SWAP1 POP PUSH2 0x562 PUSH0 DUP4 ADD DUP5 PUSH2 0x540 JUMP JUMPDEST SWAP3 SWAP2 POP POP JUMP JUMPDEST PUSH32 0x53636F72652073686F756C64206265206C657373207468616E20313030000000 PUSH0 DUP3 ADD MSTORE POP JUMP JUMPDEST PUSH0 PUSH2 0x59C PUSH1 0x1D DUP4 PUSH2 0x402 JUMP JUMPDEST SWAP2 POP PUSH2 0x5A7 DUP3 PUSH2 0x568 JUMP JUMPDEST PUSH1 0x20 DUP3 ADD SWAP1 POP SWAP2 SWAP1 POP JUMP JUMPDEST PUSH0 PUSH1 0x20 DUP3 ADD SWAP1 POP DUP2 DUP2 SUB PUSH0 DUP4 ADD MSTORE PUSH2 0x5C9 DUP2 PUSH2 0x590 JUMP JUMPDEST SWAP1 POP SWAP2 SWAP1 POP JUMP INVALID LOG2 PUSH5 0x6970667358 0x22 SLT KECCAK256 0xAC 0xBC KECCAK256 DUP14 0x1F 0x29 0xD6 0xC2 PUSH12 0x42F3A996120CABE95D58BE7B TSTORE LT PUSH18 0xAD40D122011092FA64736F6C634300081F00 CALLER "
				},
				"gasEstimates": {
					"creation": {
						"codeDepositCost": "308400",
						"executionCost": "347",
						"totalCost": "308747"
					},
					"external": {
						"addScore(uint256)": "22605",
						"getLetterGrade()": "infinite",
						"grades(address)": "2845",
						"hasPassed()": "2555"
					}
				},
				"methodIdentifiers": {
					"addScore(uint256)": "10b2afce",
					"getLetterGrade()": "5eb29adf",
					"grades(address)": "d49fc751",
					"hasPassed()": "6eb8f684"
				}
			},
			"storageLayout": {
				"storage": [
					{
						"astId": 5,
						"contract": "gradingSystem.sol:GradingSystem",
						"label": "grades",
						"offset": 0,
						"slot": "0",
						"type": "t_mapping(t_address,t_uint256)"
					}
				],
				"types": {
					"t_address": {
						"encoding": "inplace",
						"label": "address",
						"numberOfBytes": "20"
					},
					"t_mapping(t_address,t_uint256)": {
						"encoding": "mapping",
						"key": "t_address",
						"label": "mapping(address => uint256)",
						"numberOfBytes": "32",
						"value": "t_uint256"
					},
					"t_uint256": {
						"encoding": "inplace",
						"label": "uint256",
						"numberOfBytes": "32"
					}
				}
			},
			"userdoc": {
				"kind": "user",
				"methods": {},
				"version": 1
			}
		}
	}
}