{
	"studentinfo.sol": {
		"Student_info": {
			"abi": [
				{
					"inputs": [
						{
							"internalType": "string",
							"name": "_name",
							"type": "string"
						},
						{
							"internalType": "uint256",
							"name": "_age",
							"type": "uint256"
						}
					],
					"name": "RegisterStudent",
					"outputs": [],
					"stateMutability": "nonpayable",
					"type": "function"
				},
				{
					"inputs": [],
					"name": "StudentAddress",
					"outputs": [
						{
							"internalType": "address",
							"name": "",
							"type": "address"
						}
					],
					"stateMutability": "view",
					"type": "function"
				},
				{
					"inputs": [],
					"name": "StudentAge",
					"outputs": [
						{
							"internalType": "uint256",
							"name": "",
							"type": "uint256"
						}
					],
					"stateMutability": "view",
					"type": "function"
				},
				{
					"inputs": [],
					"name": "StudentName",
					"outputs": [
						{
							"internalType": "string",
							"name": "",
							"type": "string"
						}
					],
					"stateMutability": "view",
					"type": "function"
				},
				{
					"inputs": [],
					"name": "isRegistered",
					"outputs": [
						{
							"internalType": "bool",
							"name": "",
							"type": "bool"
						}
					],
					"stateMutability": "view",
					"type": "function"
				},
				{
					"inputs": [],
					"name": "isValidAge",
					"outputs": [
						{
							"internalType": "bool",
							"name": "",
							"type": "bool"
						}
					],
					"stateMutability": "view",
					"type": "function"
				}
			],
			"devdoc": {
				"kind": "dev",
				"methods": {},
				"version": 1
			},
			"evm": {
				"assembly": "    /* \"studentinfo.sol\":60:491  contract Student_info{... */\n  mstore(0x40, 0x80)\n  callvalue\n  dup1\n  iszero\n  tag_1\n  jumpi\n  revert(0x00, 0x00)\ntag_1:\n  pop\n  dataSize(sub_0)\n  dup1\n  dataOffset(sub_0)\n  0x00\n  codecopy\n  0x00\n  return\nstop\n\nsub_0: assembly {\n        /* \"studentinfo.sol\":60:491  contract Student_info{... */\n      mstore(0x40, 0x80)\n      callvalue\n      dup1\n      iszero\n      tag_1\n      jumpi\n      revert(0x00, 0x00)\n    tag_1:\n      pop\n      jumpi(tag_2, lt(calldatasize, 0x04))\n      shr(0xe0, calldataload(0x00))\n      dup1\n      0x22366844\n      eq\n      tag_3\n      jumpi\n      dup1\n      0x70bc20e0\n      eq\n      tag_4\n      jumpi\n      dup1\n      0x7c846e5e\n      eq\n      tag_5\n      jumpi\n      dup1\n      0xa9ed8698\n      eq\n      tag_6\n      jumpi\n      dup1\n      0xad4dbcea\n      eq\n      tag_7\n      jumpi\n      dup1\n      0xdaa71710\n      eq\n      tag_8\n      jumpi\n    tag_2:\n      revert(0x00, 0x00)\n        /* \"studentinfo.sol\":149:173  bool public isRegistered */\n    tag_3:\n      tag_9\n      tag_10\n      jump\t// in\n    tag_9:\n      mload(0x40)\n      tag_11\n      swap2\n      swap1\n      tag_12\n      jump\t// in\n    tag_11:\n      mload(0x40)\n      dup1\n      swap2\n      sub\n      swap1\n      return\n        /* \"studentinfo.sol\":216:376  function RegisterStudent(string memory _name, uint _age)public {... */\n    tag_4:\n      tag_13\n      0x04\n      dup1\n      calldatasize\n      sub\n      dup2\n      add\n      swap1\n      tag_14\n      swap2\n      swap1\n      tag_15\n      jump\t// in\n    tag_14:\n      tag_16\n      jump\t// in\n    tag_13:\n      stop\n        /* \"studentinfo.sol\":180:209  address public StudentAddress */\n    tag_5:\n      tag_17\n      tag_18\n      jump\t// in\n    tag_17:\n      mload(0x40)\n      tag_19\n      swap2\n      swap1\n      tag_20\n      jump\t// in\n    tag_19:\n      mload(0x40)\n      dup1\n      swap2\n      sub\n      swap1\n      return\n        /* \"studentinfo.sol\":384:488  function isValidAge()public view returns(bool){... */\n    tag_6:\n      tag_21\n      tag_22\n      jump\t// in\n    tag_21:\n      mload(0x40)\n      tag_23\n      swap2\n      swap1\n      tag_12\n      jump\t// in\n    tag_23:\n      mload(0x40)\n      dup1\n      swap2\n      sub\n      swap1\n      return\n        /* \"studentinfo.sol\":120:142  uint public StudentAge */\n    tag_7:\n      tag_24\n      tag_25\n      jump\t// in\n    tag_24:\n      mload(0x40)\n      tag_26\n      swap2\n      swap1\n      tag_27\n      jump\t// in\n    tag_26:\n      mload(0x40)\n      dup1\n      swap2\n      sub\n      swap1\n      return\n        /* \"studentinfo.sol\":88:113  string public StudentName */\n    tag_8:\n      tag_28\n      tag_29\n      jump\t// in\n    tag_28:\n      mload(0x40)\n      tag_30\n      swap2\n      swap1\n      tag_31\n      jump\t// in\n    tag_30:\n      mload(0x40)\n      dup1\n      swap2\n      sub\n      swap1\n      return\n        /* \"studentinfo.sol\":149:173  bool public isRegistered */\n    tag_10:\n      0x02\n      0x00\n      swap1\n      sload\n      swap1\n      0x0100\n      exp\n      swap1\n      div\n      0xff\n      and\n      dup2\n      jump\t// out\n        /* \"studentinfo.sol\":216:376  function RegisterStudent(string memory _name, uint _age)public {... */\n    tag_16:\n        /* \"studentinfo.sol\":295:300  _name */\n      dup2\n        /* \"studentinfo.sol\":282:293  StudentName */\n      0x00\n        /* \"studentinfo.sol\":282:300  StudentName= _name */\n      swap1\n      dup2\n      tag_33\n      swap2\n      swap1\n      tag_34\n      jump\t// in\n    tag_33:\n      pop\n        /* \"studentinfo.sol\":315:319  _age */\n      dup1\n        /* \"studentinfo.sol\":303:313  StudentAge */\n      0x01\n        /* \"studentinfo.sol\":303:319  StudentAge= _age */\n      dup2\n      swap1\n      sstore\n      pop\n        /* \"studentinfo.sol\":335:339  true */\n      0x01\n        /* \"studentinfo.sol\":322:334  isRegistered */\n      0x02\n      0x00\n        /* \"studentinfo.sol\":322:339  isRegistered=true */\n      0x0100\n      exp\n      dup2\n      sload\n      dup2\n      0xff\n      mul\n      not\n      and\n      swap1\n      dup4\n      iszero\n      iszero\n      mul\n      or\n      swap1\n      sstore\n      pop\n        /* \"studentinfo.sol\":358:368  msg.sender */\n      caller\n        /* \"studentinfo.sol\":342:356  StudentAddress */\n      0x02\n      0x01\n        /* \"studentinfo.sol\":342:368  StudentAddress= msg.sender */\n      0x0100\n      exp\n      dup2\n      sload\n      dup2\n      0xffffffffffffffffffffffffffffffffffffffff\n      mul\n      not\n      and\n      swap1\n      dup4\n      0xffffffffffffffffffffffffffffffffffffffff\n      and\n      mul\n      or\n      swap1\n      sstore\n      pop\n        /* \"studentinfo.sol\":216:376  function RegisterStudent(string memory _name, uint _age)public {... */\n      pop\n      pop\n      jump\t// out\n        /* \"studentinfo.sol\":180:209  address public StudentAddress */\n    tag_18:\n      0x02\n      0x01\n      swap1\n      sload\n      swap1\n      0x0100\n      exp\n      swap1\n      div\n      0xffffffffffffffffffffffffffffffffffffffff\n      and\n      dup2\n      jump\t// out\n        /* \"studentinfo.sol\":384:488  function isValidAge()public view returns(bool){... */\n    tag_22:\n        /* \"studentinfo.sol\":425:429  bool */\n      0x00\n        /* \"studentinfo.sol\":460:462  18 */\n      0x12\n        /* \"studentinfo.sol\":448:458  StudentAge */\n      sload(0x01)\n        /* \"studentinfo.sol\":448:462  StudentAge>=18 */\n      lt\n      iszero\n        /* \"studentinfo.sol\":448:480  StudentAge>=18 && StudentAge<=50 */\n      dup1\n      iszero\n      tag_36\n      jumpi\n      pop\n        /* \"studentinfo.sol\":478:480  50 */\n      0x32\n        /* \"studentinfo.sol\":466:476  StudentAge */\n      sload(0x01)\n        /* \"studentinfo.sol\":466:480  StudentAge<=50 */\n      gt\n      iszero\n        /* \"studentinfo.sol\":448:480  StudentAge>=18 && StudentAge<=50 */\n    tag_36:\n        /* \"studentinfo.sol\":441:480  return StudentAge>=18 && StudentAge<=50 */\n      swap1\n      pop\n        /* \"studentinfo.sol\":384:488  function isValidAge()public view returns(bool){... */\n      swap1\n      jump\t// out\n        /* \"studentinfo.sol\":120:142  uint public StudentAge */\n    tag_25:\n      sload(0x01)\n      dup2\n      jump\t// out\n        /* \"studentinfo.sol\":88:113  string public StudentName */\n    tag_29:\n      0x00\n      dup1\n      sload\n      tag_37\n      swap1\n      tag_38\n      jump\t// in\n    tag_37:\n      dup1\n      0x1f\n      add\n      0x20\n      dup1\n      swap2\n      div\n      mul\n      0x20\n      add\n      mload(0x40)\n      swap1\n      dup2\n      add\n      0x40\n      mstore\n      dup1\n      swap3\n      swap2\n      swap1\n      dup2\n      dup2\n      mstore\n      0x20\n      add\n      dup3\n      dup1\n      sload\n      tag_39\n      swap1\n      tag_38\n      jump\t// in\n    tag_39:\n      dup1\n      iszero\n      tag_40\n      jumpi\n      dup1\n      0x1f\n      lt\n      tag_41\n      jumpi\n      0x0100\n      dup1\n      dup4\n      sload\n      div\n      mul\n      dup4\n      mstore\n      swap2\n      0x20\n      add\n      swap2\n      jump(tag_40)\n    tag_41:\n      dup3\n      add\n      swap2\n      swap1\n      0x00\n      mstore\n      keccak256(0x00, 0x20)\n      swap1\n    tag_42:\n      dup2\n      sload\n      dup2\n      mstore\n      swap1\n      0x01\n      add\n      swap1\n      0x20\n      add\n      dup1\n      dup4\n      gt\n      tag_42\n      jumpi\n      dup3\n      swap1\n      sub\n      0x1f\n      and\n      dup3\n      add\n      swap2\n    tag_40:\n      pop\n      pop\n      pop\n      pop\n      pop\n      dup2\n      jump\t// out\n        /* \"#utility.yul\":7:97   */\n    tag_43:\n        /* \"#utility.yul\":41:48   */\n      0x00\n        /* \"#utility.yul\":84:89   */\n      dup2\n        /* \"#utility.yul\":77:90   */\n      iszero\n        /* \"#utility.yul\":70:91   */\n      iszero\n        /* \"#utility.yul\":59:91   */\n      swap1\n      pop\n        /* \"#utility.yul\":7:97   */\n      swap2\n      swap1\n      pop\n      jump\t// out\n        /* \"#utility.yul\":103:212   */\n    tag_44:\n        /* \"#utility.yul\":184:205   */\n      tag_88\n        /* \"#utility.yul\":199:204   */\n      dup2\n        /* \"#utility.yul\":184:205   */\n      tag_43\n      jump\t// in\n    tag_88:\n        /* \"#utility.yul\":179:182   */\n      dup3\n        /* \"#utility.yul\":172:206   */\n      mstore\n        /* \"#utility.yul\":103:212   */\n      pop\n      pop\n      jump\t// out\n        /* \"#utility.yul\":218:428   */\n    tag_12:\n        /* \"#utility.yul\":305:309   */\n      0x00\n        /* \"#utility.yul\":343:345   */\n      0x20\n        /* \"#utility.yul\":332:341   */\n      dup3\n        /* \"#utility.yul\":328:346   */\n      add\n        /* \"#utility.yul\":320:346   */\n      swap1\n      pop\n        /* \"#utility.yul\":356:421   */\n      tag_90\n        /* \"#utility.yul\":418:419   */\n      0x00\n        /* \"#utility.yul\":407:416   */\n      dup4\n        /* \"#utility.yul\":403:420   */\n      add\n        /* \"#utility.yul\":394:400   */\n      dup5\n        /* \"#utility.yul\":356:421   */\n      tag_44\n      jump\t// in\n    tag_90:\n        /* \"#utility.yul\":218:428   */\n      swap3\n      swap2\n      pop\n      pop\n      jump\t// out\n        /* \"#utility.yul\":434:509   */\n    tag_45:\n        /* \"#utility.yul\":467:473   */\n      0x00\n        /* \"#utility.yul\":500:502   */\n      0x40\n        /* \"#utility.yul\":494:503   */\n      mload\n        /* \"#utility.yul\":484:503   */\n      swap1\n      pop\n        /* \"#utility.yul\":434:509   */\n      swap1\n      jump\t// out\n        /* \"#utility.yul\":515:632   */\n    tag_46:\n        /* \"#utility.yul\":624:625   */\n      0x00\n        /* \"#utility.yul\":621:622   */\n      0x00\n        /* \"#utility.yul\":614:626   */\n      revert\n        /* \"#utility.yul\":638:755   */\n    tag_47:\n        /* \"#utility.yul\":747:748   */\n      0x00\n        /* \"#utility.yul\":744:745   */\n      0x00\n        /* \"#utility.yul\":737:749   */\n      revert\n        /* \"#utility.yul\":761:878   */\n    tag_48:\n        /* \"#utility.yul\":870:871   */\n      0x00\n        /* \"#utility.yul\":867:868   */\n      0x00\n        /* \"#utility.yul\":860:872   */\n      revert\n        /* \"#utility.yul\":884:1001   */\n    tag_49:\n        /* \"#utility.yul\":993:994   */\n      0x00\n        /* \"#utility.yul\":990:991   */\n      0x00\n        /* \"#utility.yul\":983:995   */\n      revert\n        /* \"#utility.yul\":1007:1109   */\n    tag_50:\n        /* \"#utility.yul\":1048:1054   */\n      0x00\n        /* \"#utility.yul\":1099:1101   */\n      0x1f\n        /* \"#utility.yul\":1095:1102   */\n      not\n        /* \"#utility.yul\":1090:1092   */\n      0x1f\n        /* \"#utility.yul\":1083:1088   */\n      dup4\n        /* \"#utility.yul\":1079:1093   */\n      add\n        /* \"#utility.yul\":1075:1103   */\n      and\n        /* \"#utility.yul\":1065:1103   */\n      swap1\n      pop\n        /* \"#utility.yul\":1007:1109   */\n      swap2\n      swap1\n      pop\n      jump\t// out\n        /* \"#utility.yul\":1115:1295   */\n    tag_51:\n        /* \"#utility.yul\":1163:1240   */\n      0x4e487b7100000000000000000000000000000000000000000000000000000000\n        /* \"#utility.yul\":1160:1161   */\n      0x00\n        /* \"#utility.yul\":1153:1241   */\n      mstore\n        /* \"#utility.yul\":1260:1264   */\n      0x41\n        /* \"#utility.yul\":1257:1258   */\n      0x04\n        /* \"#utility.yul\":1250:1265   */\n      mstore\n        /* \"#utility.yul\":1284:1288   */\n      0x24\n        /* \"#utility.yul\":1281:1282   */\n      0x00\n        /* \"#utility.yul\":1274:1289   */\n      revert\n        /* \"#utility.yul\":1301:1582   */\n    tag_52:\n        /* \"#utility.yul\":1384:1411   */\n      tag_99\n        /* \"#utility.yul\":1406:1410   */\n      dup3\n        /* \"#utility.yul\":1384:1411   */\n      tag_50\n      jump\t// in\n    tag_99:\n        /* \"#utility.yul\":1376:1382   */\n      dup2\n        /* \"#utility.yul\":1372:1412   */\n      add\n        /* \"#utility.yul\":1514:1520   */\n      dup2\n        /* \"#utility.yul\":1502:1512   */\n      dup2\n        /* \"#utility.yul\":1499:1521   */\n      lt\n        /* \"#utility.yul\":1478:1496   */\n      0xffffffffffffffff\n        /* \"#utility.yul\":1466:1476   */\n      dup3\n        /* \"#utility.yul\":1463:1497   */\n      gt\n        /* \"#utility.yul\":1460:1522   */\n      or\n        /* \"#utility.yul\":1457:1545   */\n      iszero\n      tag_100\n      jumpi\n        /* \"#utility.yul\":1525:1543   */\n      tag_101\n      tag_51\n      jump\t// in\n    tag_101:\n        /* \"#utility.yul\":1457:1545   */\n    tag_100:\n        /* \"#utility.yul\":1565:1575   */\n      dup1\n        /* \"#utility.yul\":1561:1563   */\n      0x40\n        /* \"#utility.yul\":1554:1576   */\n      mstore\n        /* \"#utility.yul\":1344:1582   */\n      pop\n        /* \"#utility.yul\":1301:1582   */\n      pop\n      pop\n      jump\t// out\n        /* \"#utility.yul\":1588:1717   */\n    tag_53:\n        /* \"#utility.yul\":1622:1628   */\n      0x00\n        /* \"#utility.yul\":1649:1669   */\n      tag_103\n      tag_45\n      jump\t// in\n    tag_103:\n        /* \"#utility.yul\":1639:1669   */\n      swap1\n      pop\n        /* \"#utility.yul\":1678:1711   */\n      tag_104\n        /* \"#utility.yul\":1706:1710   */\n      dup3\n        /* \"#utility.yul\":1698:1704   */\n      dup3\n        /* \"#utility.yul\":1678:1711   */\n      tag_52\n      jump\t// in\n    tag_104:\n        /* \"#utility.yul\":1588:1717   */\n      swap2\n      swap1\n      pop\n      jump\t// out\n        /* \"#utility.yul\":1723:2031   */\n    tag_54:\n        /* \"#utility.yul\":1785:1789   */\n      0x00\n        /* \"#utility.yul\":1875:1893   */\n      0xffffffffffffffff\n        /* \"#utility.yul\":1867:1873   */\n      dup3\n        /* \"#utility.yul\":1864:1894   */\n      gt\n        /* \"#utility.yul\":1861:1917   */\n      iszero\n      tag_106\n      jumpi\n        /* \"#utility.yul\":1897:1915   */\n      tag_107\n      tag_51\n      jump\t// in\n    tag_107:\n        /* \"#utility.yul\":1861:1917   */\n    tag_106:\n        /* \"#utility.yul\":1935:1964   */\n      tag_108\n        /* \"#utility.yul\":1957:1963   */\n      dup3\n        /* \"#utility.yul\":1935:1964   */\n      tag_50\n      jump\t// in\n    tag_108:\n        /* \"#utility.yul\":1927:1964   */\n      swap1\n      pop\n        /* \"#utility.yul\":2019:2023   */\n      0x20\n        /* \"#utility.yul\":2013:2017   */\n      dup2\n        /* \"#utility.yul\":2009:2024   */\n      add\n        /* \"#utility.yul\":2001:2024   */\n      swap1\n      pop\n        /* \"#utility.yul\":1723:2031   */\n      swap2\n      swap1\n      pop\n      jump\t// out\n        /* \"#utility.yul\":2037:2185   */\n    tag_55:\n        /* \"#utility.yul\":2135:2141   */\n      dup3\n        /* \"#utility.yul\":2130:2133   */\n      dup2\n        /* \"#utility.yul\":2125:2128   */\n      dup4\n        /* \"#utility.yul\":2112:2142   */\n      calldatacopy\n        /* \"#utility.yul\":2176:2177   */\n      0x00\n        /* \"#utility.yul\":2167:2173   */\n      dup4\n        /* \"#utility.yul\":2162:2165   */\n      dup4\n        /* \"#utility.yul\":2158:2174   */\n      add\n        /* \"#utility.yul\":2151:2178   */\n      mstore\n        /* \"#utility.yul\":2037:2185   */\n      pop\n      pop\n      pop\n      jump\t// out\n        /* \"#utility.yul\":2191:2616   */\n    tag_56:\n        /* \"#utility.yul\":2269:2274   */\n      0x00\n        /* \"#utility.yul\":2294:2360   */\n      tag_111\n        /* \"#utility.yul\":2310:2359   */\n      tag_112\n        /* \"#utility.yul\":2352:2358   */\n      dup5\n        /* \"#utility.yul\":2310:2359   */\n      tag_54\n      jump\t// in\n    tag_112:\n        /* \"#utility.yul\":2294:2360   */\n      tag_53\n      jump\t// in\n    tag_111:\n        /* \"#utility.yul\":2285:2360   */\n      swap1\n      pop\n        /* \"#utility.yul\":2383:2389   */\n      dup3\n        /* \"#utility.yul\":2376:2381   */\n      dup2\n        /* \"#utility.yul\":2369:2390   */\n      mstore\n        /* \"#utility.yul\":2421:2425   */\n      0x20\n        /* \"#utility.yul\":2414:2419   */\n      dup2\n        /* \"#utility.yul\":2410:2426   */\n      add\n        /* \"#utility.yul\":2459:2462   */\n      dup5\n        /* \"#utility.yul\":2450:2456   */\n      dup5\n        /* \"#utility.yul\":2445:2448   */\n      dup5\n        /* \"#utility.yul\":2441:2457   */\n      add\n        /* \"#utility.yul\":2438:2463   */\n      gt\n        /* \"#utility.yul\":2435:2547   */\n      iszero\n      tag_113\n      jumpi\n        /* \"#utility.yul\":2466:2545   */\n      tag_114\n      tag_49\n      jump\t// in\n    tag_114:\n        /* \"#utility.yul\":2435:2547   */\n    tag_113:\n        /* \"#utility.yul\":2556:2610   */\n      tag_115\n        /* \"#utility.yul\":2603:2609   */\n      dup5\n        /* \"#utility.yul\":2598:2601   */\n      dup3\n        /* \"#utility.yul\":2593:2596   */\n      dup6\n        /* \"#utility.yul\":2556:2610   */\n      tag_55\n      jump\t// in\n    tag_115:\n        /* \"#utility.yul\":2275:2616   */\n      pop\n        /* \"#utility.yul\":2191:2616   */\n      swap4\n      swap3\n      pop\n      pop\n      pop\n      jump\t// out\n        /* \"#utility.yul\":2636:2976   */\n    tag_57:\n        /* \"#utility.yul\":2692:2697   */\n      0x00\n        /* \"#utility.yul\":2741:2744   */\n      dup3\n        /* \"#utility.yul\":2734:2738   */\n      0x1f\n        /* \"#utility.yul\":2726:2732   */\n      dup4\n        /* \"#utility.yul\":2722:2739   */\n      add\n        /* \"#utility.yul\":2718:2745   */\n      slt\n        /* \"#utility.yul\":2708:2830   */\n      tag_117\n      jumpi\n        /* \"#utility.yul\":2749:2828   */\n      tag_118\n      tag_48\n      jump\t// in\n    tag_118:\n        /* \"#utility.yul\":2708:2830   */\n    tag_117:\n        /* \"#utility.yul\":2866:2872   */\n      dup2\n        /* \"#utility.yul\":2853:2873   */\n      calldataload\n        /* \"#utility.yul\":2891:2970   */\n      tag_119\n        /* \"#utility.yul\":2966:2969   */\n      dup5\n        /* \"#utility.yul\":2958:2964   */\n      dup3\n        /* \"#utility.yul\":2951:2955   */\n      0x20\n        /* \"#utility.yul\":2943:2949   */\n      dup7\n        /* \"#utility.yul\":2939:2956   */\n      add\n        /* \"#utility.yul\":2891:2970   */\n      tag_56\n      jump\t// in\n    tag_119:\n        /* \"#utility.yul\":2882:2970   */\n      swap2\n      pop\n        /* \"#utility.yul\":2698:2976   */\n      pop\n        /* \"#utility.yul\":2636:2976   */\n      swap3\n      swap2\n      pop\n      pop\n      jump\t// out\n        /* \"#utility.yul\":2982:3059   */\n    tag_58:\n        /* \"#utility.yul\":3019:3026   */\n      0x00\n        /* \"#utility.yul\":3048:3053   */\n      dup2\n        /* \"#utility.yul\":3037:3053   */\n      swap1\n      pop\n        /* \"#utility.yul\":2982:3059   */\n      swap2\n      swap1\n      pop\n      jump\t// out\n        /* \"#utility.yul\":3065:3187   */\n    tag_59:\n        /* \"#utility.yul\":3138:3162   */\n      tag_122\n        /* \"#utility.yul\":3156:3161   */\n      dup2\n        /* \"#utility.yul\":3138:3162   */\n      tag_58\n      jump\t// in\n    tag_122:\n        /* \"#utility.yul\":3131:3136   */\n      dup2\n        /* \"#utility.yul\":3128:3163   */\n      eq\n        /* \"#utility.yul\":3118:3181   */\n      tag_123\n      jumpi\n        /* \"#utility.yul\":3177:3178   */\n      0x00\n        /* \"#utility.yul\":3174:3175   */\n      0x00\n        /* \"#utility.yul\":3167:3179   */\n      revert\n        /* \"#utility.yul\":3118:3181   */\n    tag_123:\n        /* \"#utility.yul\":3065:3187   */\n      pop\n      jump\t// out\n        /* \"#utility.yul\":3193:3332   */\n    tag_60:\n        /* \"#utility.yul\":3239:3244   */\n      0x00\n        /* \"#utility.yul\":3277:3283   */\n      dup2\n        /* \"#utility.yul\":3264:3284   */\n      calldataload\n        /* \"#utility.yul\":3255:3284   */\n      swap1\n      pop\n        /* \"#utility.yul\":3293:3326   */\n      tag_125\n        /* \"#utility.yul\":3320:3325   */\n      dup2\n        /* \"#utility.yul\":3293:3326   */\n      tag_59\n      jump\t// in\n    tag_125:\n        /* \"#utility.yul\":3193:3332   */\n      swap3\n      swap2\n      pop\n      pop\n      jump\t// out\n        /* \"#utility.yul\":3338:3992   */\n    tag_15:\n        /* \"#utility.yul\":3416:3422   */\n      0x00\n        /* \"#utility.yul\":3424:3430   */\n      0x00\n        /* \"#utility.yul\":3473:3475   */\n      0x40\n        /* \"#utility.yul\":3461:3470   */\n      dup4\n        /* \"#utility.yul\":3452:3459   */\n      dup6\n        /* \"#utility.yul\":3448:3471   */\n      sub\n        /* \"#utility.yul\":3444:3476   */\n      slt\n        /* \"#utility.yul\":3441:3560   */\n      iszero\n      tag_127\n      jumpi\n        /* \"#utility.yul\":3479:3558   */\n      tag_128\n      tag_46\n      jump\t// in\n    tag_128:\n        /* \"#utility.yul\":3441:3560   */\n    tag_127:\n        /* \"#utility.yul\":3627:3628   */\n      0x00\n        /* \"#utility.yul\":3616:3625   */\n      dup4\n        /* \"#utility.yul\":3612:3629   */\n      add\n        /* \"#utility.yul\":3599:3630   */\n      calldataload\n        /* \"#utility.yul\":3657:3675   */\n      0xffffffffffffffff\n        /* \"#utility.yul\":3649:3655   */\n      dup2\n        /* \"#utility.yul\":3646:3676   */\n      gt\n        /* \"#utility.yul\":3643:3760   */\n      iszero\n      tag_129\n      jumpi\n        /* \"#utility.yul\":3679:3758   */\n      tag_130\n      tag_47\n      jump\t// in\n    tag_130:\n        /* \"#utility.yul\":3643:3760   */\n    tag_129:\n        /* \"#utility.yul\":3784:3847   */\n      tag_131\n        /* \"#utility.yul\":3839:3846   */\n      dup6\n        /* \"#utility.yul\":3830:3836   */\n      dup3\n        /* \"#utility.yul\":3819:3828   */\n      dup7\n        /* \"#utility.yul\":3815:3837   */\n      add\n        /* \"#utility.yul\":3784:3847   */\n      tag_57\n      jump\t// in\n    tag_131:\n        /* \"#utility.yul\":3774:3847   */\n      swap3\n      pop\n        /* \"#utility.yul\":3570:3857   */\n      pop\n        /* \"#utility.yul\":3896:3898   */\n      0x20\n        /* \"#utility.yul\":3922:3975   */\n      tag_132\n        /* \"#utility.yul\":3967:3974   */\n      dup6\n        /* \"#utility.yul\":3958:3964   */\n      dup3\n        /* \"#utility.yul\":3947:3956   */\n      dup7\n        /* \"#utility.yul\":3943:3965   */\n      add\n        /* \"#utility.yul\":3922:3975   */\n      tag_60\n      jump\t// in\n    tag_132:\n        /* \"#utility.yul\":3912:3975   */\n      swap2\n      pop\n        /* \"#utility.yul\":3867:3985   */\n      pop\n        /* \"#utility.yul\":3338:3992   */\n      swap3\n      pop\n      swap3\n      swap1\n      pop\n      jump\t// out\n        /* \"#utility.yul\":3998:4124   */\n    tag_61:\n        /* \"#utility.yul\":4035:4042   */\n      0x00\n        /* \"#utility.yul\":4075:4117   */\n      0xffffffffffffffffffffffffffffffffffffffff\n        /* \"#utility.yul\":4068:4073   */\n      dup3\n        /* \"#utility.yul\":4064:4118   */\n      and\n        /* \"#utility.yul\":4053:4118   */\n      swap1\n      pop\n        /* \"#utility.yul\":3998:4124   */\n      swap2\n      swap1\n      pop\n      jump\t// out\n        /* \"#utility.yul\":4130:4226   */\n    tag_62:\n        /* \"#utility.yul\":4167:4174   */\n      0x00\n        /* \"#utility.yul\":4196:4220   */\n      tag_135\n        /* \"#utility.yul\":4214:4219   */\n      dup3\n        /* \"#utility.yul\":4196:4220   */\n      tag_61\n      jump\t// in\n    tag_135:\n        /* \"#utility.yul\":4185:4220   */\n      swap1\n      pop\n        /* \"#utility.yul\":4130:4226   */\n      swap2\n      swap1\n      pop\n      jump\t// out\n        /* \"#utility.yul\":4232:4350   */\n    tag_63:\n        /* \"#utility.yul\":4319:4343   */\n      tag_137\n        /* \"#utility.yul\":4337:4342   */\n      dup2\n        /* \"#utility.yul\":4319:4343   */\n      tag_62\n      jump\t// in\n    tag_137:\n        /* \"#utility.yul\":4314:4317   */\n      dup3\n        /* \"#utility.yul\":4307:4344   */\n      mstore\n        /* \"#utility.yul\":4232:4350   */\n      pop\n      pop\n      jump\t// out\n        /* \"#utility.yul\":4356:4578   */\n    tag_20:\n        /* \"#utility.yul\":4449:4453   */\n      0x00\n        /* \"#utility.yul\":4487:4489   */\n      0x20\n        /* \"#utility.yul\":4476:4485   */\n      dup3\n        /* \"#utility.yul\":4472:4490   */\n      add\n        /* \"#utility.yul\":4464:4490   */\n      swap1\n      pop\n        /* \"#utility.yul\":4500:4571   */\n      tag_139\n        /* \"#utility.yul\":4568:4569   */\n      0x00\n        /* \"#utility.yul\":4557:4566   */\n      dup4\n        /* \"#utility.yul\":4553:4570   */\n      add\n        /* \"#utility.yul\":4544:4550   */\n      dup5\n        /* \"#utility.yul\":4500:4571   */\n      tag_63\n      jump\t// in\n    tag_139:\n        /* \"#utility.yul\":4356:4578   */\n      swap3\n      swap2\n      pop\n      pop\n      jump\t// out\n        /* \"#utility.yul\":4584:4702   */\n    tag_64:\n        /* \"#utility.yul\":4671:4695   */\n      tag_141\n        /* \"#utility.yul\":4689:4694   */\n      dup2\n        /* \"#utility.yul\":4671:4695   */\n      tag_58\n      jump\t// in\n    tag_141:\n        /* \"#utility.yul\":4666:4669   */\n      dup3\n        /* \"#utility.yul\":4659:4696   */\n      mstore\n        /* \"#utility.yul\":4584:4702   */\n      pop\n      pop\n      jump\t// out\n        /* \"#utility.yul\":4708:4930   */\n    tag_27:\n        /* \"#utility.yul\":4801:4805   */\n      0x00\n        /* \"#utility.yul\":4839:4841   */\n      0x20\n        /* \"#utility.yul\":4828:4837   */\n      dup3\n        /* \"#utility.yul\":4824:4842   */\n      add\n        /* \"#utility.yul\":4816:4842   */\n      swap1\n      pop\n        /* \"#utility.yul\":4852:4923   */\n      tag_143\n        /* \"#utility.yul\":4920:4921   */\n      0x00\n        /* \"#utility.yul\":4909:4918   */\n      dup4\n        /* \"#utility.yul\":4905:4922   */\n      add\n        /* \"#utility.yul\":4896:4902   */\n      dup5\n        /* \"#utility.yul\":4852:4923   */\n      tag_64\n      jump\t// in\n    tag_143:\n        /* \"#utility.yul\":4708:4930   */\n      swap3\n      swap2\n      pop\n      pop\n      jump\t// out\n        /* \"#utility.yul\":4936:5035   */\n    tag_65:\n        /* \"#utility.yul\":4988:4994   */\n      0x00\n        /* \"#utility.yul\":5022:5027   */\n      dup2\n        /* \"#utility.yul\":5016:5028   */\n      mload\n        /* \"#utility.yul\":5006:5028   */\n      swap1\n      pop\n        /* \"#utility.yul\":4936:5035   */\n      swap2\n      swap1\n      pop\n      jump\t// out\n        /* \"#utility.yul\":5041:5210   */\n    tag_66:\n        /* \"#utility.yul\":5125:5136   */\n      0x00\n        /* \"#utility.yul\":5159:5165   */\n      dup3\n        /* \"#utility.yul\":5154:5157   */\n      dup3\n        /* \"#utility.yul\":5147:5166   */\n      mstore\n        /* \"#utility.yul\":5199:5203   */\n      0x20\n        /* \"#utility.yul\":5194:5197   */\n      dup3\n        /* \"#utility.yul\":5190:5204   */\n      add\n        /* \"#utility.yul\":5175:5204   */\n      swap1\n      pop\n        /* \"#utility.yul\":5041:5210   */\n      swap3\n      swap2\n      pop\n      pop\n      jump\t// out\n        /* \"#utility.yul\":5216:5355   */\n    tag_67:\n        /* \"#utility.yul\":5305:5311   */\n      dup3\n        /* \"#utility.yul\":5300:5303   */\n      dup2\n        /* \"#utility.yul\":5295:5298   */\n      dup4\n        /* \"#utility.yul\":5289:5312   */\n      mcopy\n        /* \"#utility.yul\":5346:5347   */\n      0x00\n        /* \"#utility.yul\":5337:5343   */\n      dup4\n        /* \"#utility.yul\":5332:5335   */\n      dup4\n        /* \"#utility.yul\":5328:5344   */\n      add\n        /* \"#utility.yul\":5321:5348   */\n      mstore\n        /* \"#utility.yul\":5216:5355   */\n      pop\n      pop\n      pop\n      jump\t// out\n        /* \"#utility.yul\":5361:5738   */\n    tag_68:\n        /* \"#utility.yul\":5449:5452   */\n      0x00\n        /* \"#utility.yul\":5477:5516   */\n      tag_148\n        /* \"#utility.yul\":5510:5515   */\n      dup3\n        /* \"#utility.yul\":5477:5516   */\n      tag_65\n      jump\t// in\n    tag_148:\n        /* \"#utility.yul\":5532:5603   */\n      tag_149\n        /* \"#utility.yul\":5596:5602   */\n      dup2\n        /* \"#utility.yul\":5591:5594   */\n      dup6\n        /* \"#utility.yul\":5532:5603   */\n      tag_66\n      jump\t// in\n    tag_149:\n        /* \"#utility.yul\":5525:5603   */\n      swap4\n      pop\n        /* \"#utility.yul\":5612:5677   */\n      tag_150\n        /* \"#utility.yul\":5670:5676   */\n      dup2\n        /* \"#utility.yul\":5665:5668   */\n      dup6\n        /* \"#utility.yul\":5658:5662   */\n      0x20\n        /* \"#utility.yul\":5651:5656   */\n      dup7\n        /* \"#utility.yul\":5647:5663   */\n      add\n        /* \"#utility.yul\":5612:5677   */\n      tag_67\n      jump\t// in\n    tag_150:\n        /* \"#utility.yul\":5702:5731   */\n      tag_151\n        /* \"#utility.yul\":5724:5730   */\n      dup2\n        /* \"#utility.yul\":5702:5731   */\n      tag_50\n      jump\t// in\n    tag_151:\n        /* \"#utility.yul\":5697:5700   */\n      dup5\n        /* \"#utility.yul\":5693:5732   */\n      add\n        /* \"#utility.yul\":5686:5732   */\n      swap2\n      pop\n        /* \"#utility.yul\":5453:5738   */\n      pop\n        /* \"#utility.yul\":5361:5738   */\n      swap3\n      swap2\n      pop\n      pop\n      jump\t// out\n        /* \"#utility.yul\":5744:6057   */\n    tag_31:\n        /* \"#utility.yul\":5857:5861   */\n      0x00\n        /* \"#utility.yul\":5895:5897   */\n      0x20\n        /* \"#utility.yul\":5884:5893   */\n      dup3\n        /* \"#utility.yul\":5880:5898   */\n      add\n        /* \"#utility.yul\":5872:5898   */\n      swap1\n      pop\n        /* \"#utility.yul\":5944:5953   */\n      dup2\n        /* \"#utility.yul\":5938:5942   */\n      dup2\n        /* \"#utility.yul\":5934:5954   */\n      sub\n        /* \"#utility.yul\":5930:5931   */\n      0x00\n        /* \"#utility.yul\":5919:5928   */\n      dup4\n        /* \"#utility.yul\":5915:5932   */\n      add\n        /* \"#utility.yul\":5908:5955   */\n      mstore\n        /* \"#utility.yul\":5972:6050   */\n      tag_153\n        /* \"#utility.yul\":6045:6049   */\n      dup2\n        /* \"#utility.yul\":6036:6042   */\n      dup5\n        /* \"#utility.yul\":5972:6050   */\n      tag_68\n      jump\t// in\n    tag_153:\n        /* \"#utility.yul\":5964:6050   */\n      swap1\n      pop\n        /* \"#utility.yul\":5744:6057   */\n      swap3\n      swap2\n      pop\n      pop\n      jump\t// out\n        /* \"#utility.yul\":6063:6243   */\n    tag_69:\n        /* \"#utility.yul\":6111:6188   */\n      0x4e487b7100000000000000000000000000000000000000000000000000000000\n        /* \"#utility.yul\":6108:6109   */\n      0x00\n        /* \"#utility.yul\":6101:6189   */\n      mstore\n        /* \"#utility.yul\":6208:6212   */\n      0x22\n        /* \"#utility.yul\":6205:6206   */\n      0x04\n        /* \"#utility.yul\":6198:6213   */\n      mstore\n        /* \"#utility.yul\":6232:6236   */\n      0x24\n        /* \"#utility.yul\":6229:6230   */\n      0x00\n        /* \"#utility.yul\":6222:6237   */\n      revert\n        /* \"#utility.yul\":6249:6569   */\n    tag_38:\n        /* \"#utility.yul\":6293:6299   */\n      0x00\n        /* \"#utility.yul\":6330:6331   */\n      0x02\n        /* \"#utility.yul\":6324:6328   */\n      dup3\n        /* \"#utility.yul\":6320:6332   */\n      div\n        /* \"#utility.yul\":6310:6332   */\n      swap1\n      pop\n        /* \"#utility.yul\":6377:6378   */\n      0x01\n        /* \"#utility.yul\":6371:6375   */\n      dup3\n        /* \"#utility.yul\":6367:6379   */\n      and\n        /* \"#utility.yul\":6398:6416   */\n      dup1\n        /* \"#utility.yul\":6388:6469   */\n      tag_156\n      jumpi\n        /* \"#utility.yul\":6454:6458   */\n      0x7f\n        /* \"#utility.yul\":6446:6452   */\n      dup3\n        /* \"#utility.yul\":6442:6459   */\n      and\n        /* \"#utility.yul\":6432:6459   */\n      swap2\n      pop\n        /* \"#utility.yul\":6388:6469   */\n    tag_156:\n        /* \"#utility.yul\":6516:6518   */\n      0x20\n        /* \"#utility.yul\":6508:6514   */\n      dup3\n        /* \"#utility.yul\":6505:6519   */\n      lt\n        /* \"#utility.yul\":6485:6503   */\n      dup2\n        /* \"#utility.yul\":6482:6520   */\n      sub\n        /* \"#utility.yul\":6479:6563   */\n      tag_157\n      jumpi\n        /* \"#utility.yul\":6535:6553   */\n      tag_158\n      tag_69\n      jump\t// in\n    tag_158:\n        /* \"#utility.yul\":6479:6563   */\n    tag_157:\n        /* \"#utility.yul\":6300:6569   */\n      pop\n        /* \"#utility.yul\":6249:6569   */\n      swap2\n      swap1\n      pop\n      jump\t// out\n        /* \"#utility.yul\":6575:6716   */\n    tag_70:\n        /* \"#utility.yul\":6624:6628   */\n      0x00\n        /* \"#utility.yul\":6647:6650   */\n      dup2\n        /* \"#utility.yul\":6639:6650   */\n      swap1\n      pop\n        /* \"#utility.yul\":6670:6673   */\n      dup2\n        /* \"#utility.yul\":6667:6668   */\n      0x00\n        /* \"#utility.yul\":6660:6674   */\n      mstore\n        /* \"#utility.yul\":6704:6708   */\n      0x20\n        /* \"#utility.yul\":6701:6702   */\n      0x00\n        /* \"#utility.yul\":6691:6709   */\n      keccak256\n        /* \"#utility.yul\":6683:6709   */\n      swap1\n      pop\n        /* \"#utility.yul\":6575:6716   */\n      swap2\n      swap1\n      pop\n      jump\t// out\n        /* \"#utility.yul\":6722:6815   */\n    tag_71:\n        /* \"#utility.yul\":6759:6765   */\n      0x00\n        /* \"#utility.yul\":6806:6808   */\n      0x20\n        /* \"#utility.yul\":6801:6803   */\n      0x1f\n        /* \"#utility.yul\":6794:6799   */\n      dup4\n        /* \"#utility.yul\":6790:6804   */\n      add\n        /* \"#utility.yul\":6786:6809   */\n      div\n        /* \"#utility.yul\":6776:6809   */\n      swap1\n      pop\n        /* \"#utility.yul\":6722:6815   */\n      swap2\n      swap1\n      pop\n      jump\t// out\n        /* \"#utility.yul\":6821:6928   */\n    tag_72:\n        /* \"#utility.yul\":6865:6873   */\n      0x00\n        /* \"#utility.yul\":6915:6920   */\n      dup3\n        /* \"#utility.yul\":6909:6913   */\n      dup3\n        /* \"#utility.yul\":6905:6921   */\n      shl\n        /* \"#utility.yul\":6884:6921   */\n      swap1\n      pop\n        /* \"#utility.yul\":6821:6928   */\n      swap3\n      swap2\n      pop\n      pop\n      jump\t// out\n        /* \"#utility.yul\":6934:7327   */\n    tag_73:\n        /* \"#utility.yul\":7003:7009   */\n      0x00\n        /* \"#utility.yul\":7053:7054   */\n      0x08\n        /* \"#utility.yul\":7041:7051   */\n      dup4\n        /* \"#utility.yul\":7037:7055   */\n      mul\n        /* \"#utility.yul\":7076:7173   */\n      tag_163\n        /* \"#utility.yul\":7106:7172   */\n      0xffffffffffffffffffffffffffffffffffffffffffffffffffffffffffffffff\n        /* \"#utility.yul\":7095:7104   */\n      dup3\n        /* \"#utility.yul\":7076:7173   */\n      tag_72\n      jump\t// in\n    tag_163:\n        /* \"#utility.yul\":7194:7233   */\n      tag_164\n        /* \"#utility.yul\":7224:7232   */\n      dup7\n        /* \"#utility.yul\":7213:7222   */\n      dup4\n        /* \"#utility.yul\":7194:7233   */\n      tag_72\n      jump\t// in\n    tag_164:\n        /* \"#utility.yul\":7182:7233   */\n      swap6\n      pop\n        /* \"#utility.yul\":7266:7270   */\n      dup1\n        /* \"#utility.yul\":7262:7271   */\n      not\n        /* \"#utility.yul\":7255:7260   */\n      dup5\n        /* \"#utility.yul\":7251:7272   */\n      and\n        /* \"#utility.yul\":7242:7272   */\n      swap4\n      pop\n        /* \"#utility.yul\":7315:7319   */\n      dup1\n        /* \"#utility.yul\":7305:7313   */\n      dup7\n        /* \"#utility.yul\":7301:7320   */\n      and\n        /* \"#utility.yul\":7294:7299   */\n      dup5\n        /* \"#utility.yul\":7291:7321   */\n      or\n        /* \"#utility.yul\":7281:7321   */\n      swap3\n      pop\n        /* \"#utility.yul\":7010:7327   */\n      pop\n      pop\n        /* \"#utility.yul\":6934:7327   */\n      swap4\n      swap3\n      pop\n      pop\n      pop\n      jump\t// out\n        /* \"#utility.yul\":7333:7393   */\n    tag_74:\n        /* \"#utility.yul\":7361:7364   */\n      0x00\n        /* \"#utility.yul\":7382:7387   */\n      dup2\n        /* \"#utility.yul\":7375:7387   */\n      swap1\n      pop\n        /* \"#utility.yul\":7333:7393   */\n      swap2\n      swap1\n      pop\n      jump\t// out\n        /* \"#utility.yul\":7399:7541   */\n    tag_75:\n        /* \"#utility.yul\":7449:7458   */\n      0x00\n        /* \"#utility.yul\":7482:7535   */\n      tag_167\n        /* \"#utility.yul\":7500:7534   */\n      tag_168\n        /* \"#utility.yul\":7509:7533   */\n      tag_169\n        /* \"#utility.yul\":7527:7532   */\n      dup5\n        /* \"#utility.yul\":7509:7533   */\n      tag_58\n      jump\t// in\n    tag_169:\n        /* \"#utility.yul\":7500:7534   */\n      tag_74\n      jump\t// in\n    tag_168:\n        /* \"#utility.yul\":7482:7535   */\n      tag_58\n      jump\t// in\n    tag_167:\n        /* \"#utility.yul\":7469:7535   */\n      swap1\n      pop\n        /* \"#utility.yul\":7399:7541   */\n      swap2\n      swap1\n      pop\n      jump\t// out\n        /* \"#utility.yul\":7547:7622   */\n    tag_76:\n        /* \"#utility.yul\":7590:7593   */\n      0x00\n        /* \"#utility.yul\":7611:7616   */\n      dup2\n        /* \"#utility.yul\":7604:7616   */\n      swap1\n      pop\n        /* \"#utility.yul\":7547:7622   */\n      swap2\n      swap1\n      pop\n      jump\t// out\n        /* \"#utility.yul\":7628:7897   */\n    tag_77:\n        /* \"#utility.yul\":7738:7777   */\n      tag_172\n        /* \"#utility.yul\":7769:7776   */\n      dup4\n        /* \"#utility.yul\":7738:7777   */\n      tag_75\n      jump\t// in\n    tag_172:\n        /* \"#utility.yul\":7799:7890   */\n      tag_173\n        /* \"#utility.yul\":7848:7889   */\n      tag_174\n        /* \"#utility.yul\":7872:7888   */\n      dup3\n        /* \"#utility.yul\":7848:7889   */\n      tag_76\n      jump\t// in\n    tag_174:\n        /* \"#utility.yul\":7840:7846   */\n      dup5\n        /* \"#utility.yul\":7833:7837   */\n      dup5\n        /* \"#utility.yul\":7827:7838   */\n      sload\n        /* \"#utility.yul\":7799:7890   */\n      tag_73\n      jump\t// in\n    tag_173:\n        /* \"#utility.yul\":7793:7797   */\n      dup3\n        /* \"#utility.yul\":7786:7891   */\n      sstore\n        /* \"#utility.yul\":7704:7897   */\n      pop\n        /* \"#utility.yul\":7628:7897   */\n      pop\n      pop\n      pop\n      jump\t// out\n        /* \"#utility.yul\":7903:7976   */\n    tag_78:\n        /* \"#utility.yul\":7948:7951   */\n      0x00\n        /* \"#utility.yul\":7969:7970   */\n      0x00\n        /* \"#utility.yul\":7962:7970   */\n      swap1\n      pop\n        /* \"#utility.yul\":7903:7976   */\n      swap1\n      jump\t// out\n        /* \"#utility.yul\":7982:8171   */\n    tag_79:\n        /* \"#utility.yul\":8059:8091   */\n      tag_177\n      tag_78\n      jump\t// in\n    tag_177:\n        /* \"#utility.yul\":8100:8165   */\n      tag_178\n        /* \"#utility.yul\":8158:8164   */\n      dup2\n        /* \"#utility.yul\":8150:8156   */\n      dup5\n        /* \"#utility.yul\":8144:8148   */\n      dup5\n        /* \"#utility.yul\":8100:8165   */\n      tag_77\n      jump\t// in\n    tag_178:\n        /* \"#utility.yul\":8035:8171   */\n      pop\n        /* \"#utility.yul\":7982:8171   */\n      pop\n      pop\n      jump\t// out\n        /* \"#utility.yul\":8177:8363   */\n    tag_80:\n        /* \"#utility.yul\":8237:8357   */\n    tag_180:\n        /* \"#utility.yul\":8254:8257   */\n      dup2\n        /* \"#utility.yul\":8247:8252   */\n      dup2\n        /* \"#utility.yul\":8244:8258   */\n      lt\n        /* \"#utility.yul\":8237:8357   */\n      iszero\n      tag_182\n      jumpi\n        /* \"#utility.yul\":8308:8347   */\n      tag_183\n        /* \"#utility.yul\":8345:8346   */\n      0x00\n        /* \"#utility.yul\":8338:8343   */\n      dup3\n        /* \"#utility.yul\":8308:8347   */\n      tag_79\n      jump\t// in\n    tag_183:\n        /* \"#utility.yul\":8281:8282   */\n      0x01\n        /* \"#utility.yul\":8274:8279   */\n      dup2\n        /* \"#utility.yul\":8270:8283   */\n      add\n        /* \"#utility.yul\":8261:8283   */\n      swap1\n      pop\n        /* \"#utility.yul\":8237:8357   */\n      jump(tag_180)\n    tag_182:\n        /* \"#utility.yul\":8177:8363   */\n      pop\n      pop\n      jump\t// out\n        /* \"#utility.yul\":8369:8912   */\n    tag_81:\n        /* \"#utility.yul\":8470:8472   */\n      0x1f\n        /* \"#utility.yul\":8465:8468   */\n      dup3\n        /* \"#utility.yul\":8462:8473   */\n      gt\n        /* \"#utility.yul\":8459:8905   */\n      iszero\n      tag_185\n      jumpi\n        /* \"#utility.yul\":8504:8542   */\n      tag_186\n        /* \"#utility.yul\":8536:8541   */\n      dup2\n        /* \"#utility.yul\":8504:8542   */\n      tag_70\n      jump\t// in\n    tag_186:\n        /* \"#utility.yul\":8588:8617   */\n      tag_187\n        /* \"#utility.yul\":8606:8616   */\n      dup5\n        /* \"#utility.yul\":8588:8617   */\n      tag_71\n      jump\t// in\n    tag_187:\n        /* \"#utility.yul\":8578:8586   */\n      dup2\n        /* \"#utility.yul\":8574:8618   */\n      add\n        /* \"#utility.yul\":8771:8773   */\n      0x20\n        /* \"#utility.yul\":8759:8769   */\n      dup6\n        /* \"#utility.yul\":8756:8774   */\n      lt\n        /* \"#utility.yul\":8753:8802   */\n      iszero\n      tag_188\n      jumpi\n        /* \"#utility.yul\":8792:8800   */\n      dup2\n        /* \"#utility.yul\":8777:8800   */\n      swap1\n      pop\n        /* \"#utility.yul\":8753:8802   */\n    tag_188:\n        /* \"#utility.yul\":8815:8895   */\n      tag_189\n        /* \"#utility.yul\":8871:8893   */\n      tag_190\n        /* \"#utility.yul\":8889:8892   */\n      dup6\n        /* \"#utility.yul\":8871:8893   */\n      tag_71\n      jump\t// in\n    tag_190:\n        /* \"#utility.yul\":8861:8869   */\n      dup4\n        /* \"#utility.yul\":8857:8894   */\n      add\n        /* \"#utility.yul\":8844:8855   */\n      dup3\n        /* \"#utility.yul\":8815:8895   */\n      tag_80\n      jump\t// in\n    tag_189:\n        /* \"#utility.yul\":8474:8905   */\n      pop\n      pop\n        /* \"#utility.yul\":8459:8905   */\n    tag_185:\n        /* \"#utility.yul\":8369:8912   */\n      pop\n      pop\n      pop\n      jump\t// out\n        /* \"#utility.yul\":8918:9035   */\n    tag_82:\n        /* \"#utility.yul\":8972:8980   */\n      0x00\n        /* \"#utility.yul\":9022:9027   */\n      dup3\n        /* \"#utility.yul\":9016:9020   */\n      dup3\n        /* \"#utility.yul\":9012:9028   */\n      shr\n        /* \"#utility.yul\":8991:9028   */\n      swap1\n      pop\n        /* \"#utility.yul\":8918:9035   */\n      swap3\n      swap2\n      pop\n      pop\n      jump\t// out\n        /* \"#utility.yul\":9041:9210   */\n    tag_83:\n        /* \"#utility.yul\":9085:9091   */\n      0x00\n        /* \"#utility.yul\":9118:9169   */\n      tag_193\n        /* \"#utility.yul\":9166:9167   */\n      0x00\n        /* \"#utility.yul\":9162:9168   */\n      not\n        /* \"#utility.yul\":9154:9159   */\n      dup5\n        /* \"#utility.yul\":9151:9152   */\n      0x08\n        /* \"#utility.yul\":9147:9160   */\n      mul\n        /* \"#utility.yul\":9118:9169   */\n      tag_82\n      jump\t// in\n    tag_193:\n        /* \"#utility.yul\":9114:9170   */\n      not\n        /* \"#utility.yul\":9199:9203   */\n      dup1\n        /* \"#utility.yul\":9193:9197   */\n      dup4\n        /* \"#utility.yul\":9189:9204   */\n      and\n        /* \"#utility.yul\":9179:9204   */\n      swap2\n      pop\n        /* \"#utility.yul\":9092:9210   */\n      pop\n        /* \"#utility.yul\":9041:9210   */\n      swap3\n      swap2\n      pop\n      pop\n      jump\t// out\n        /* \"#utility.yul\":9215:9510   */\n    tag_84:\n        /* \"#utility.yul\":9291:9295   */\n      0x00\n        /* \"#utility.yul\":9437:9466   */\n      tag_195\n        /* \"#utility.yul\":9462:9465   */\n      dup4\n        /* \"#utility.yul\":9456:9460   */\n      dup4\n        /* \"#utility.yul\":9437:9466   */\n      tag_83\n      jump\t// in\n    tag_195:\n        /* \"#utility.yul\":9429:9466   */\n      swap2\n      pop\n        /* \"#utility.yul\":9499:9502   */\n      dup3\n        /* \"#utility.yul\":9496:9497   */\n      0x02\n        /* \"#utility.yul\":9492:9503   */\n      mul\n        /* \"#utility.yul\":9486:9490   */\n      dup3\n        /* \"#utility.yul\":9483:9504   */\n      or\n        /* \"#utility.yul\":9475:9504   */\n      swap1\n      pop\n        /* \"#utility.yul\":9215:9510   */\n      swap3\n      swap2\n      pop\n      pop\n      jump\t// out\n        /* \"#utility.yul\":9515:10910   */\n    tag_34:\n        /* \"#utility.yul\":9632:9669   */\n      tag_197\n        /* \"#utility.yul\":9665:9668   */\n      dup3\n        /* \"#utility.yul\":9632:9669   */\n      tag_65\n      jump\t// in\n    tag_197:\n        /* \"#utility.yul\":9734:9752   */\n      0xffffffffffffffff\n        /* \"#utility.yul\":9726:9732   */\n      dup2\n        /* \"#utility.yul\":9723:9753   */\n      gt\n        /* \"#utility.yul\":9720:9776   */\n      iszero\n      tag_198\n      jumpi\n        /* \"#utility.yul\":9756:9774   */\n      tag_199\n      tag_51\n      jump\t// in\n    tag_199:\n        /* \"#utility.yul\":9720:9776   */\n    tag_198:\n        /* \"#utility.yul\":9800:9838   */\n      tag_200\n        /* \"#utility.yul\":9832:9836   */\n      dup3\n        /* \"#utility.yul\":9826:9837   */\n      sload\n        /* \"#utility.yul\":9800:9838   */\n      tag_38\n      jump\t// in\n    tag_200:\n        /* \"#utility.yul\":9885:9952   */\n      tag_201\n        /* \"#utility.yul\":9945:9951   */\n      dup3\n        /* \"#utility.yul\":9937:9943   */\n      dup3\n        /* \"#utility.yul\":9931:9935   */\n      dup6\n        /* \"#utility.yul\":9885:9952   */\n      tag_81\n      jump\t// in\n    tag_201:\n        /* \"#utility.yul\":9979:9980   */\n      0x00\n        /* \"#utility.yul\":10003:10007   */\n      0x20\n        /* \"#utility.yul\":9990:10007   */\n      swap1\n      pop\n        /* \"#utility.yul\":10035:10037   */\n      0x1f\n        /* \"#utility.yul\":10027:10033   */\n      dup4\n        /* \"#utility.yul\":10024:10038   */\n      gt\n        /* \"#utility.yul\":10052:10053   */\n      0x01\n        /* \"#utility.yul\":10047:10665   */\n      dup2\n      eq\n      tag_203\n      jumpi\n        /* \"#utility.yul\":10709:10710   */\n      0x00\n        /* \"#utility.yul\":10726:10732   */\n      dup5\n        /* \"#utility.yul\":10723:10800   */\n      iszero\n      tag_204\n      jumpi\n        /* \"#utility.yul\":10775:10784   */\n      dup3\n        /* \"#utility.yul\":10770:10773   */\n      dup8\n        /* \"#utility.yul\":10766:10785   */\n      add\n        /* \"#utility.yul\":10760:10786   */\n      mload\n        /* \"#utility.yul\":10751:10786   */\n      swap1\n      pop\n        /* \"#utility.yul\":10723:10800   */\n    tag_204:\n        /* \"#utility.yul\":10826:10893   */\n      tag_205\n        /* \"#utility.yul\":10886:10892   */\n      dup6\n        /* \"#utility.yul\":10879:10884   */\n      dup3\n        /* \"#utility.yul\":10826:10893   */\n      tag_84\n      jump\t// in\n    tag_205:\n        /* \"#utility.yul\":10820:10824   */\n      dup7\n        /* \"#utility.yul\":10813:10894   */\n      sstore\n        /* \"#utility.yul\":10682:10904   */\n      pop\n        /* \"#utility.yul\":10017:10904   */\n      jump(tag_202)\n        /* \"#utility.yul\":10047:10665   */\n    tag_203:\n        /* \"#utility.yul\":10099:10103   */\n      0x1f\n        /* \"#utility.yul\":10095:10104   */\n      not\n        /* \"#utility.yul\":10087:10093   */\n      dup5\n        /* \"#utility.yul\":10083:10105   */\n      and\n        /* \"#utility.yul\":10133:10170   */\n      tag_206\n        /* \"#utility.yul\":10165:10169   */\n      dup7\n        /* \"#utility.yul\":10133:10170   */\n      tag_70\n      jump\t// in\n    tag_206:\n        /* \"#utility.yul\":10192:10193   */\n      0x00\n        /* \"#utility.yul\":10206:10414   */\n    tag_207:\n        /* \"#utility.yul\":10220:10227   */\n      dup3\n        /* \"#utility.yul\":10217:10218   */\n      dup2\n        /* \"#utility.yul\":10214:10228   */\n      lt\n        /* \"#utility.yul\":10206:10414   */\n      iszero\n      tag_209\n      jumpi\n        /* \"#utility.yul\":10299:10308   */\n      dup5\n        /* \"#utility.yul\":10294:10297   */\n      dup10\n        /* \"#utility.yul\":10290:10309   */\n      add\n        /* \"#utility.yul\":10284:10310   */\n      mload\n        /* \"#utility.yul\":10276:10282   */\n      dup3\n        /* \"#utility.yul\":10269:10311   */\n      sstore\n        /* \"#utility.yul\":10350:10351   */\n      0x01\n        /* \"#utility.yul\":10342:10348   */\n      dup3\n        /* \"#utility.yul\":10338:10352   */\n      add\n        /* \"#utility.yul\":10328:10352   */\n      swap2\n      pop\n        /* \"#utility.yul\":10397:10399   */\n      0x20\n        /* \"#utility.yul\":10386:10395   */\n      dup6\n        /* \"#utility.yul\":10382:10400   */\n      add\n        /* \"#utility.yul\":10369:10400   */\n      swap5\n      pop\n        /* \"#utility.yul\":10243:10247   */\n      0x20\n        /* \"#utility.yul\":10240:10241   */\n      dup2\n        /* \"#utility.yul\":10236:10248   */\n      add\n        /* \"#utility.yul\":10231:10248   */\n      swap1\n      pop\n        /* \"#utility.yul\":10206:10414   */\n      jump(tag_207)\n    tag_209:\n        /* \"#utility.yul\":10442:10448   */\n      dup7\n        /* \"#utility.yul\":10433:10440   */\n      dup4\n        /* \"#utility.yul\":10430:10449   */\n      lt\n        /* \"#utility.yul\":10427:10606   */\n      iszero\n      tag_210\n      jumpi\n        /* \"#utility.yul\":10500:10509   */\n      dup5\n        /* \"#utility.yul\":10495:10498   */\n      dup10\n        /* \"#utility.yul\":10491:10510   */\n      add\n        /* \"#utility.yul\":10485:10511   */\n      mload\n        /* \"#utility.yul\":10543:10591   */\n      tag_211\n        /* \"#utility.yul\":10585:10589   */\n      0x1f\n        /* \"#utility.yul\":10577:10583   */\n      dup10\n        /* \"#utility.yul\":10573:10590   */\n      and\n        /* \"#utility.yul\":10562:10571   */\n      dup3\n        /* \"#utility.yul\":10543:10591   */\n      tag_83\n      jump\t// in\n    tag_211:\n        /* \"#utility.yul\":10535:10541   */\n      dup4\n        /* \"#utility.yul\":10528:10592   */\n      sstore\n        /* \"#utility.yul\":10450:10606   */\n      pop\n        /* \"#utility.yul\":10427:10606   */\n    tag_210:\n        /* \"#utility.yul\":10652:10653   */\n      0x01\n        /* \"#utility.yul\":10648:10649   */\n      0x02\n        /* \"#utility.yul\":10640:10646   */\n      dup9\n        /* \"#utility.yul\":10636:10650   */\n      mul\n        /* \"#utility.yul\":10632:10654   */\n      add\n        /* \"#utility.yul\":10626:10630   */\n      dup9\n        /* \"#utility.yul\":10619:10655   */\n      sstore\n        /* \"#utility.yul\":10054:10665   */\n      pop\n      pop\n      pop\n        /* \"#utility.yul\":10017:10904   */\n    tag_202:\n      pop\n        /* \"#utility.yul\":9607:10910   */\n      pop\n      pop\n      pop\n        /* \"#utility.yul\":9515:10910   */\n      pop\n      pop\n      jump\t// out\n\n    auxdata: 0xa2646970667358221220426ad3b76afe9f022877e9b3701e541234d99091c23a99b9b9f6e84689e498f564736f6c634300081f0033\n}\n",
				"bytecode": {
					"linkReferences": {},
					"object": "6080604052348015600e575f5ffd5b5061087f8061001c5f395ff3fe608060405234801561000f575f5ffd5b5060043610610060575f3560e01c8063223668441461006457806370bc20e0146100825780637c846e5e1461009e578063a9ed8698146100bc578063ad4dbcea146100da578063daa71710146100f8575b5f5ffd5b61006c610116565b604051610079919061028a565b60405180910390f35b61009c60048036038101906100979190610423565b610128565b005b6100a661019d565b6040516100b391906104bc565b60405180910390f35b6100c46101c3565b6040516100d1919061028a565b60405180910390f35b6100e26101df565b6040516100ef91906104e4565b60405180910390f35b6101006101e5565b60405161010d919061055d565b60405180910390f35b60025f9054906101000a900460ff1681565b815f9081610136919061077a565b5080600181905550600160025f6101000a81548160ff02191690831515021790555033600260016101000a81548173ffffffffffffffffffffffffffffffffffffffff021916908373ffffffffffffffffffffffffffffffffffffffff1602179055505050565b600260019054906101000a900473ffffffffffffffffffffffffffffffffffffffff1681565b5f6012600154101580156101da5750603260015411155b905090565b60015481565b5f80546101f1906105aa565b80601f016020809104026020016040519081016040528092919081815260200182805461021d906105aa565b80156102685780601f1061023f57610100808354040283529160200191610268565b820191905f5260205f20905b81548152906001019060200180831161024b57829003601f168201915b505050505081565b5f8115159050919050565b61028481610270565b82525050565b5f60208201905061029d5f83018461027b565b92915050565b5f604051905090565b5f5ffd5b5f5ffd5b5f5ffd5b5f5ffd5b5f601f19601f8301169050919050565b7f4e487b71000000000000000000000000000000000000000000000000000000005f52604160045260245ffd5b610302826102bc565b810181811067ffffffffffffffff82111715610321576103206102cc565b5b80604052505050565b5f6103336102a3565b905061033f82826102f9565b919050565b5f67ffffffffffffffff82111561035e5761035d6102cc565b5b610367826102bc565b9050602081019050919050565b828183375f83830152505050565b5f61039461038f84610344565b61032a565b9050828152602081018484840111156103b0576103af6102b8565b5b6103bb848285610374565b509392505050565b5f82601f8301126103d7576103d66102b4565b5b81356103e7848260208601610382565b91505092915050565b5f819050919050565b610402816103f0565b811461040c575f5ffd5b50565b5f8135905061041d816103f9565b92915050565b5f5f60408385031215610439576104386102ac565b5b5f83013567ffffffffffffffff811115610456576104556102b0565b5b610462858286016103c3565b92505060206104738582860161040f565b9150509250929050565b5f73ffffffffffffffffffffffffffffffffffffffff82169050919050565b5f6104a68261047d565b9050919050565b6104b68161049c565b82525050565b5f6020820190506104cf5f8301846104ad565b92915050565b6104de816103f0565b82525050565b5f6020820190506104f75f8301846104d5565b92915050565b5f81519050919050565b5f82825260208201905092915050565b8281835e5f83830152505050565b5f61052f826104fd565b6105398185610507565b9350610549818560208601610517565b610552816102bc565b840191505092915050565b5f6020820190508181035f8301526105758184610525565b905092915050565b7f4e487b71000000000000000000000000000000000000000000000000000000005f52602260045260245ffd5b5f60028204905060018216806105c157607f821691505b6020821081036105d4576105d361057d565b5b50919050565b5f819050815f5260205f209050919050565b5f6020601f8301049050919050565b5f82821b905092915050565b5f600883026106367fffffffffffffffffffffffffffffffffffffffffffffffffffffffffffffffff826105fb565b61064086836105fb565b95508019841693508086168417925050509392505050565b5f819050919050565b5f61067b610676610671846103f0565b610658565b6103f0565b9050919050565b5f819050919050565b61069483610661565b6106a86106a082610682565b848454610607565b825550505050565b5f5f905090565b6106bf6106b0565b6106ca81848461068b565b505050565b5b818110156106ed576106e25f826106b7565b6001810190506106d0565b5050565b601f82111561073257610703816105da565b61070c846105ec565b8101602085101561071b578190505b61072f610727856105ec565b8301826106cf565b50505b505050565b5f82821c905092915050565b5f6107525f1984600802610737565b1980831691505092915050565b5f61076a8383610743565b9150826002028217905092915050565b610783826104fd565b67ffffffffffffffff81111561079c5761079b6102cc565b5b6107a682546105aa565b6107b18282856106f1565b5f60209050601f8311600181146107e2575f84156107d0578287015190505b6107da858261075f565b865550610841565b601f1984166107f0866105da565b5f5b82811015610817578489015182556001820191506020850194506020810190506107f2565b868310156108345784890151610830601f891682610743565b8355505b6001600288020188555050505b50505050505056fea2646970667358221220426ad3b76afe9f022877e9b3701e541234d99091c23a99b9b9f6e84689e498f564736f6c634300081f0033",
					"opcodes": "PUSH1 0x80 PUSH1 0x40 MSTORE CALLVALUE DUP1 ISZERO PUSH1 0xE JUMPI PUSH0 PUSH0 REVERT JUMPDEST POP PUSH2 0x87F DUP1 PUSH2 0x1C PUSH0 CODECOPY PUSH0 RETURN INVALID PUSH1 0x80 PUSH1 0x40 MSTORE CALLVALUE DUP1 ISZERO PUSH2 0xF JUMPI PUSH0 PUSH0 REVERT JUMPDEST POP PUSH1 0x4 CALLDATASIZE LT PUSH2 0x60 JUMPI PUSH0 CALLDATALOAD PUSH1 0xE0 SHR DUP1 PUSH4 0x22366844 EQ PUSH2 0x64 JUMPI DUP1 PUSH4 0x70BC20E0 EQ PUSH2 0x82 JUMPI DUP1 PUSH4 0x7C846E5E EQ PUSH2 0x9E JUMPI DUP1 PUSH4 0xA9ED8698 EQ PUSH2 0xBC JUMPI DUP1 PUSH4 0xAD4DBCEA EQ PUSH2 0xDA JUMPI DUP1 PUSH4 0xDAA71710 EQ PUSH2 0xF8 JUMPI JUMPDEST PUSH0 PUSH0 REVERT JUMPDEST PUSH2 0x6C PUSH2 0x116 JUMP JUMPDEST PUSH1 0x40 MLOAD PUSH2 0x79 SWAP2 SWAP1 PUSH2 0x28A JUMP JUMPDEST PUSH1 0x40 MLOAD DUP1 SWAP2 SUB SWAP1 RETURN JUMPDEST PUSH2 0x9C PUSH1 0x4 DUP1 CALLDATASIZE SUB DUP2 ADD SWAP1 PUSH2 0x97 SWAP2 SWAP1 PUSH2 0x423 JUMP JUMPDEST PUSH2 0x128 JUMP JUMPDEST STOP JUMPDEST PUSH2 0xA6 PUSH2 0x19D JUMP JUMPDEST PUSH1 0x40 MLOAD PUSH2 0xB3 SWAP2 SWAP1 PUSH2 0x4BC JUMP JUMPDEST PUSH1 0x40 MLOAD DUP1 SWAP2 SUB SWAP1 RETURN JUMPDEST PUSH2 0xC4 PUSH2 0x1C3 JUMP JUMPDEST PUSH1 0x40 MLOAD PUSH2 0xD1 SWAP2 SWAP1 PUSH2 0x28A JUMP JUMPDEST PUSH1 0x40 MLOAD DUP1 SWAP2 SUB SWAP1 RETURN JUMPDEST PUSH2 0xE2 PUSH2 0x1DF JUMP JUMPDEST PUSH1 0x40 MLOAD PUSH2 0xEF SWAP2 SWAP1 PUSH2 0x4E4 JUMP JUMPDEST PUSH1 0x40 MLOAD DUP1 SWAP2 SUB SWAP1 RETURN JUMPDEST PUSH2 0x100 PUSH2 0x1E5 JUMP JUMPDEST PUSH1 0x40 MLOAD PUSH2 0x10D SWAP2 SWAP1 PUSH2 0x55D JUMP JUMPDEST PUSH1 0x40 MLOAD DUP1 SWAP2 SUB SWAP1 RETURN JUMPDEST PUSH1 0x2 PUSH0 SWAP1 SLOAD SWAP1 PUSH2 0x100 EXP SWAP1 DIV PUSH1 0xFF AND DUP2 JUMP JUMPDEST DUP2 PUSH0 SWAP1 DUP2 PUSH2 0x136 SWAP2 SWAP1 PUSH2 0x77A JUMP JUMPDEST POP DUP1 PUSH1 0x1 DUP2 SWAP1 SSTORE POP PUSH1 0x1 PUSH1 0x2 PUSH0 PUSH2 0x100 EXP DUP2 SLOAD DUP2 PUSH1 0xFF MUL NOT AND SWAP1 DUP4 ISZERO ISZERO MUL OR SWAP1 SSTORE POP CALLER PUSH1 0x2 PUSH1 0x1 PUSH2 0x100 EXP DUP2 SLOAD DUP2 PUSH20 0xFFFFFFFFFFFFFFFFFFFFFFFFFFFFFFFFFFFFFFFF MUL NOT AND SWAP1 DUP4 PUSH20 0xFFFFFFFFFFFFFFFFFFFFFFFFFFFFFFFFFFFFFFFF AND MUL OR SWAP1 SSTORE POP POP POP JUMP JUMPDEST PUSH1 0x2 PUSH1 0x1 SWAP1 SLOAD SWAP1 PUSH2 0x100 EXP SWAP1 DIV PUSH20 0xFFFFFFFFFFFFFFFFFFFFFFFFFFFFFFFFFFFFFFFF AND DUP2 JUMP JUMPDEST PUSH0 PUSH1 0x12 PUSH1 0x1 SLOAD LT ISZERO DUP1 ISZERO PUSH2 0x1DA JUMPI POP PUSH1 0x32 PUSH1 0x1 SLOAD GT ISZERO JUMPDEST SWAP1 POP SWAP1 JUMP JUMPDEST PUSH1 0x1 SLOAD DUP2 JUMP JUMPDEST PUSH0 DUP1 SLOAD PUSH2 0x1F1 SWAP1 PUSH2 0x5AA JUMP JUMPDEST DUP1 PUSH1 0x1F ADD PUSH1 0x20 DUP1 SWAP2 DIV MUL PUSH1 0x20 ADD PUSH1 0x40 MLOAD SWAP1 DUP2 ADD PUSH1 0x40 MSTORE DUP1 SWAP3 SWAP2 SWAP1 DUP2 DUP2 MSTORE PUSH1 0x20 ADD DUP3 DUP1 SLOAD PUSH2 0x21D SWAP1 PUSH2 0x5AA JUMP JUMPDEST DUP1 ISZERO PUSH2 0x268 JUMPI DUP1 PUSH1 0x1F LT PUSH2 0x23F JUMPI PUSH2 0x100 DUP1 DUP4 SLOAD DIV MUL DUP4 MSTORE SWAP2 PUSH1 0x20 ADD SWAP2 PUSH2 0x268 JUMP JUMPDEST DUP3 ADD SWAP2 SWAP1 PUSH0 MSTORE PUSH1 0x20 PUSH0 KECCAK256 SWAP1 JUMPDEST DUP2 SLOAD DUP2 MSTORE SWAP1 PUSH1 0x1 ADD SWAP1 PUSH1 0x20 ADD DUP1 DUP4 GT PUSH2 0x24B JUMPI DUP3 SWAP1 SUB PUSH1 0x1F AND DUP3 ADD SWAP2 JUMPDEST POP POP POP POP POP DUP2 JUMP JUMPDEST PUSH0 DUP2 ISZERO ISZERO SWAP1 POP SWAP2 SWAP1 POP JUMP JUMPDEST PUSH2 0x284 DUP2 PUSH2 0x270 JUMP JUMPDEST DUP3 MSTORE POP POP JUMP JUMPDEST PUSH0 PUSH1 0x20 DUP3 ADD SWAP1 POP PUSH2 0x29D PUSH0 DUP4 ADD DUP5 PUSH2 0x27B JUMP JUMPDEST SWAP3 SWAP2 POP POP JUMP JUMPDEST PUSH0 PUSH1 0x40 MLOAD SWAP1 POP SWAP1 JUMP JUMPDEST PUSH0 PUSH0 REVERT JUMPDEST PUSH0 PUSH0 REVERT JUMPDEST PUSH0 PUSH0 REVERT JUMPDEST PUSH0 PUSH0 REVERT JUMPDEST PUSH0 PUSH1 0x1F NOT PUSH1 0x1F DUP4 ADD AND SWAP1 POP SWAP2 SWAP1 POP JUMP JUMPDEST PUSH32 0x4E487B7100000000000000000000000000000000000000000000000000000000 PUSH0 MSTORE PUSH1 0x41 PUSH1 0x4 MSTORE PUSH1 0x24 PUSH0 REVERT JUMPDEST PUSH2 0x302 DUP3 PUSH2 0x2BC JUMP JUMPDEST DUP2 ADD DUP2 DUP2 LT PUSH8 0xFFFFFFFFFFFFFFFF DUP3 GT OR ISZERO PUSH2 0x321 JUMPI PUSH2 0x320 PUSH2 0x2CC JUMP JUMPDEST JUMPDEST DUP1 PUSH1 0x40 MSTORE POP POP POP JUMP JUMPDEST PUSH0 PUSH2 0x333 PUSH2 0x2A3 JUMP JUMPDEST SWAP1 POP PUSH2 0x33F DUP3 DUP3 PUSH2 0x2F9 JUMP JUMPDEST SWAP2 SWAP1 POP JUMP JUMPDEST PUSH0 PUSH8 0xFFFFFFFFFFFFFFFF DUP3 GT ISZERO PUSH2 0x35E JUMPI PUSH2 0x35D PUSH2 0x2CC JUMP JUMPDEST JUMPDEST PUSH2 0x367 DUP3 PUSH2 0x2BC JUMP JUMPDEST SWAP1 POP PUSH1 0x20 DUP2 ADD SWAP1 POP SWAP2 SWAP1 POP JUMP JUMPDEST DUP3 DUP2 DUP4 CALLDATACOPY PUSH0 DUP4 DUP4 ADD MSTORE POP POP POP JUMP JUMPDEST PUSH0 PUSH2 0x394 PUSH2 0x38F DUP5 PUSH2 0x344 JUMP JUMPDEST PUSH2 0x32A JUMP JUMPDEST SWAP1 POP DUP3 DUP2 MSTORE PUSH1 0x20 DUP2 ADD DUP5 DUP5 DUP5 ADD GT ISZERO PUSH2 0x3B0 JUMPI PUSH2 0x3AF PUSH2 0x2B8 JUMP JUMPDEST JUMPDEST PUSH2 0x3BB DUP5 DUP3 DUP6 PUSH2 0x374 JUMP JUMPDEST POP SWAP4 SWAP3 POP POP POP JUMP JUMPDEST PUSH0 DUP3 PUSH1 0x1F DUP4 ADD SLT PUSH2 0x3D7 JUMPI PUSH2 0x3D6 PUSH2 0x2B4 JUMP JUMPDEST JUMPDEST DUP2 CALLDATALOAD PUSH2 0x3E7 DUP5 DUP3 PUSH1 0x20 DUP7 ADD PUSH2 0x382 JUMP JUMPDEST SWAP2 POP POP SWAP3 SWAP2 POP POP JUMP JUMPDEST PUSH0 DUP2 SWAP1 POP SWAP2 SWAP1 POP JUMP JUMPDEST PUSH2 0x402 DUP2 PUSH2 0x3F0 JUMP JUMPDEST DUP2 EQ PUSH2 0x40C JUMPI PUSH0 PUSH0 REVERT JUMPDEST POP JUMP JUMPDEST PUSH0 DUP2 CALLDATALOAD SWAP1 POP PUSH2 0x41D DUP2 PUSH2 0x3F9 JUMP JUMPDEST SWAP3 SWAP2 POP POP JUMP JUMPDEST PUSH0 PUSH0 PUSH1 0x40 DUP4 DUP6 SUB SLT ISZERO PUSH2 0x439 JUMPI PUSH2 0x438 PUSH2 0x2AC JUMP JUMPDEST JUMPDEST PUSH0 DUP4 ADD CALLDATALOAD PUSH8 0xFFFFFFFFFFFFFFFF DUP2 GT ISZERO PUSH2 0x456 JUMPI PUSH2 0x455 PUSH2 0x2B0 JUMP JUMPDEST JUMPDEST PUSH2 0x462 DUP6 DUP3 DUP7 ADD PUSH2 0x3C3 JUMP JUMPDEST SWAP3 POP POP PUSH1 0x20 PUSH2 0x473 DUP6 DUP3 DUP7 ADD PUSH2 0x40F JUMP JUMPDEST SWAP2 POP POP SWAP3 POP SWAP3 SWAP1 POP JUMP JUMPDEST PUSH0 PUSH20 0xFFFFFFFFFFFFFFFFFFFFFFFFFFFFFFFFFFFFFFFF DUP3 AND SWAP1 POP SWAP2 SWAP1 POP JUMP JUMPDEST PUSH0 PUSH2 0x4A6 DUP3 PUSH2 0x47D JUMP JUMPDEST SWAP1 POP SWAP2 SWAP1 POP JUMP JUMPDEST PUSH2 0x4B6 DUP2 PUSH2 0x49C JUMP JUMPDEST DUP3 MSTORE POP POP JUMP JUMPDEST PUSH0 PUSH1 0x20 DUP3 ADD SWAP1 POP PUSH2 0x4CF PUSH0 DUP4 ADD DUP5 PUSH2 0x4AD JUMP JUMPDEST SWAP3 SWAP2 POP POP JUMP JUMPDEST PUSH2 0x4DE DUP2 PUSH2 0x3F0 JUMP JUMPDEST DUP3 MSTORE POP POP JUMP JUMPDEST PUSH0 PUSH1 0x20 DUP3 ADD SWAP1 POP PUSH2 0x4F7 PUSH0 DUP4 ADD DUP5 PUSH2 0x4D5 JUMP JUMPDEST SWAP3 SWAP2 POP POP JUMP JUMPDEST PUSH0 DUP2 MLOAD SWAP1 POP SWAP2 SWAP1 POP JUMP JUMPDEST PUSH0 DUP3 DUP3 MSTORE PUSH1 0x20 DUP3 ADD SWAP1 POP SWAP3 SWAP2 POP POP JUMP JUMPDEST DUP3 DUP2 DUP4 MCOPY PUSH0 DUP4 DUP4 ADD MSTORE POP POP POP JUMP JUMPDEST PUSH0 PUSH2 0x52F DUP3 PUSH2 0x4FD JUMP JUMPDEST PUSH2 0x539 DUP2 DUP6 PUSH2 0x507 JUMP JUMPDEST SWAP4 POP PUSH2 0x549 DUP2 DUP6 PUSH1 0x20 DUP7 ADD PUSH2 0x517 JUMP JUMPDEST PUSH2 0x552 DUP2 PUSH2 0x2BC JUMP JUMPDEST DUP5 ADD SWAP2 POP POP SWAP3 SWAP2 POP POP JUMP JUMPDEST PUSH0 PUSH1 0x20 DUP3 ADD SWAP1 POP DUP2 DUP2 SUB PUSH0 DUP4 ADD MSTORE PUSH2 0x575 DUP2 DUP5 PUSH2 0x525 JUMP JUMPDEST SWAP1 POP SWAP3 SWAP2 POP POP JUMP JUMPDEST PUSH32 0x4E487B7100000000000000000000000000000000000000000000000000000000 PUSH0 MSTORE PUSH1 0x22 PUSH1 0x4 MSTORE PUSH1 0x24 PUSH0 REVERT JUMPDEST PUSH0 PUSH1 0x2 DUP3 DIV SWAP1 POP PUSH1 0x1 DUP3 AND DUP1 PUSH2 0x5C1 JUMPI PUSH1 0x7F DUP3 AND SWAP2 POP JUMPDEST PUSH1 0x20 DUP3 LT DUP2 SUB PUSH2 0x5D4 JUMPI PUSH2 0x5D3 PUSH2 0x57D JUMP JUMPDEST JUMPDEST POP SWAP2 SWAP1 POP JUMP JUMPDEST PUSH0 DUP2 SWAP1 POP DUP2 PUSH0 MSTORE PUSH1 0x20 PUSH0 KECCAK256 SWAP1 POP SWAP2 SWAP1 POP JUMP JUMPDEST PUSH0 PUSH1 0x20 PUSH1 0x1F DUP4 ADD DIV SWAP1 POP SWAP2 SWAP1 POP JUMP JUMPDEST PUSH0 DUP3 DUP3 SHL SWAP1 POP SWAP3 SWAP2 POP POP JUMP JUMPDEST PUSH0 PUSH1 0x8 DUP4 MUL PUSH2 0x636 PUSH32 0xFFFFFFFFFFFFFFFFFFFFFFFFFFFFFFFFFFFFFFFFFFFFFFFFFFFFFFFFFFFFFFFF DUP3 PUSH2 0x5FB JUMP JUMPDEST PUSH2 0x640 DUP7 DUP4 PUSH2 0x5FB JUMP JUMPDEST SWAP6 POP DUP1 NOT DUP5 AND SWAP4 POP DUP1 DUP7 AND DUP5 OR SWAP3 POP POP POP SWAP4 SWAP3 POP POP POP JUMP JUMPDEST PUSH0 DUP2 SWAP1 POP SWAP2 SWAP1 POP JUMP JUMPDEST PUSH0 PUSH2 0x67B PUSH2 0x676 PUSH2 0x671 DUP5 PUSH2 0x3F0 JUMP JUMPDEST PUSH2 0x658 JUMP JUMPDEST PUSH2 0x3F0 JUMP JUMPDEST SWAP1 POP SWAP2 SWAP1 POP JUMP JUMPDEST PUSH0 DUP2 SWAP1 POP SWAP2 SWAP1 POP JUMP JUMPDEST PUSH2 0x694 DUP4 PUSH2 0x661 JUMP JUMPDEST PUSH2 0x6A8 PUSH2 0x6A0 DUP3 PUSH2 0x682 JUMP JUMPDEST DUP5 DUP5 SLOAD PUSH2 0x607 JUMP JUMPDEST DUP3 SSTORE POP POP POP POP JUMP JUMPDEST PUSH0 PUSH0 SWAP1 POP SWAP1 JUMP JUMPDEST PUSH2 0x6BF PUSH2 0x6B0 JUMP JUMPDEST PUSH2 0x6CA DUP2 DUP5 DUP5 PUSH2 0x68B JUMP JUMPDEST POP POP POP JUMP JUMPDEST JUMPDEST DUP2 DUP2 LT ISZERO PUSH2 0x6ED JUMPI PUSH2 0x6E2 PUSH0 DUP3 PUSH2 0x6B7 JUMP JUMPDEST PUSH1 0x1 DUP2 ADD SWAP1 POP PUSH2 0x6D0 JUMP JUMPDEST POP POP JUMP JUMPDEST PUSH1 0x1F DUP3 GT ISZERO PUSH2 0x732 JUMPI PUSH2 0x703 DUP2 PUSH2 0x5DA JUMP JUMPDEST PUSH2 0x70C DUP5 PUSH2 0x5EC JUMP JUMPDEST DUP2 ADD PUSH1 0x20 DUP6 LT ISZERO PUSH2 0x71B JUMPI DUP2 SWAP1 POP JUMPDEST PUSH2 0x72F PUSH2 0x727 DUP6 PUSH2 0x5EC JUMP JUMPDEST DUP4 ADD DUP3 PUSH2 0x6CF JUMP JUMPDEST POP POP JUMPDEST POP POP POP JUMP JUMPDEST PUSH0 DUP3 DUP3 SHR SWAP1 POP SWAP3 SWAP2 POP POP JUMP JUMPDEST PUSH0 PUSH2 0x752 PUSH0 NOT DUP5 PUSH1 0x8 MUL PUSH2 0x737 JUMP JUMPDEST NOT DUP1 DUP4 AND SWAP2 POP POP SWAP3 SWAP2 POP POP JUMP JUMPDEST PUSH0 PUSH2 0x76A DUP4 DUP4 PUSH2 0x743 JUMP JUMPDEST SWAP2 POP DUP3 PUSH1 0x2 MUL DUP3 OR SWAP1 POP SWAP3 SWAP2 POP POP JUMP JUMPDEST PUSH2 0x783 DUP3 PUSH2 0x4FD JUMP JUMPDEST PUSH8 0xFFFFFFFFFFFFFFFF DUP2 GT ISZERO PUSH2 0x79C JUMPI PUSH2 0x79B PUSH2 0x2CC JUMP JUMPDEST JUMPDEST PUSH2 0x7A6 DUP3 SLOAD PUSH2 0x5AA JUMP JUMPDEST PUSH2 0x7B1 DUP3 DUP3 DUP6 PUSH2 0x6F1 JUMP JUMPDEST PUSH0 PUSH1 0x20 SWAP1 POP PUSH1 0x1F DUP4 GT PUSH1 0x1 DUP2 EQ PUSH2 0x7E2 JUMPI PUSH0 DUP5 ISZERO PUSH2 0x7D0 JUMPI DUP3 DUP8 ADD MLOAD SWAP1 POP JUMPDEST PUSH2 0x7DA DUP6 DUP3 PUSH2 0x75F JUMP JUMPDEST DUP7 SSTORE POP PUSH2 0x841 JUMP JUMPDEST PUSH1 0x1F NOT DUP5 AND PUSH2 0x7F0 DUP7 PUSH2 0x5DA JUMP JUMPDEST PUSH0 JUMPDEST DUP3 DUP2 LT ISZERO PUSH2 0x817 JUMPI DUP5 DUP10 ADD MLOAD DUP3 SSTORE PUSH1 0x1 DUP3 ADD SWAP2 POP PUSH1 0x20 DUP6 ADD SWAP5 POP PUSH1 0x20 DUP2 ADD SWAP1 POP PUSH2 0x7F2 JUMP JUMPDEST DUP7 DUP4 LT ISZERO PUSH2 0x834 JUMPI DUP5 DUP10 ADD MLOAD PUSH2 0x830 PUSH1 0x1F DUP10 AND DUP3 PUSH2 0x743 JUMP JUMPDEST DUP4 SSTORE POP JUMPDEST PUSH1 0x1 PUSH1 0x2 DUP9 MUL ADD DUP9 SSTORE POP POP POP JUMPDEST POP POP POP POP POP POP JUMP INVALID LOG2 PUSH5 0x6970667358 0x22 SLT KECCAK256 TIMESTAMP PUSH11 0xD3B76AFE9F022877E9B370 CLZ SLOAD SLT CALLVALUE 0xD9 SWAP1 SWAP2 0xC2 GASPRICE SWAP10 0xB9 0xB9 0xF6 0xE8 CHAINID DUP10 RETF SWAP9 CREATE2 PUSH5 0x736F6C6343 STOP ADDMOD 0x1F STOP CALLER "
				},
				"gasEstimates": {
					"creation": {
						"codeDepositCost": "435000",
						"executionCost": "466",
						"totalCost": "435466"
					},
					"external": {
						"RegisterStudent(string,uint256)": "infinite",
						"StudentAddress()": "2581",
						"StudentAge()": "2491",
						"StudentName()": "infinite",
						"isRegistered()": "2444",
						"isValidAge()": "4625"
					}
				},
				"methodIdentifiers": {
					"RegisterStudent(string,uint256)": "70bc20e0",
					"StudentAddress()": "7c846e5e",
					"StudentAge()": "ad4dbcea",
					"StudentName()": "daa71710",
					"isRegistered()": "22366844",
					"isValidAge()": "a9ed8698"
				}
			},
			"storageLayout": {
				"storage": [
					{
						"astId": 3,
						"contract": "studentinfo.sol:Student_info",
						"label": "StudentName",
						"offset": 0,
						"slot": "0",
						"type": "t_string_storage"
					},
					{
						"astId": 5,
						"contract": "studentinfo.sol:Student_info",
						"label": "StudentAge",
						"offset": 0,
						"slot": "1",
						"type": "t_uint256"
					},
					{
						"astId": 7,
						"contract": "studentinfo.sol:Student_info",
						"label": "isRegistered",
						"offset": 0,
						"slot": "2",
						"type": "t_bool"
					},
					{
						"astId": 9,
						"contract": "studentinfo.sol:Student_info",
						"label": "StudentAddress",
						"offset": 1,
						"slot": "2",
						"type": "t_address"
					}
				],
				"types": {
					"t_address": {
						"encoding": "inplace",
						"label": "address",
						"numberOfBytes": "20"
					},
					"t_bool": {
						"encoding": "inplace",
						"label": "bool",
						"numberOfBytes": "1"
					},
					"t_string_storage": {
						"encoding": "bytes",
						"label": "string",
						"numberOfBytes": "32"
					},
					"t_uint256": {
						"encoding": "inplace",
						"label": "uint256",
						"numberOfBytes": "32"
					}
				}
			},
			"userdoc": {
				"kind": "user",
				"methods": {},
				"version": 1
			}
		}
	}
}