{
	"data": {
		"bytecode": {
			"linkReferences": {},
			"object": "60806040527ffffffffffffffffffffffffffffffffffffffffffffffffffffffffffffffff65f556064600155600a60025f6101000a81548160ff021916908360ff16021790555061c350600260016101000a81548161ffff021916908361ffff160217905550633b9aca006003556040518060400160405280600e81526020017f48656c6c6f2045766572796f6e65000000000000000000000000000000000000815250600490816100b291906103cf565b506040518060400160405280600681526020017f5368617269660000000000000000000000000000000000000000000000000000815250600590816100f791906103cf565b505f60065f6101000a81548160ff0219169083151502179055506001600660016101000a81548160ff021916908315150217905550735b38da6a701c568545dcfcb03fcb875f56beddc4600660026101000a81548173ffffffffffffffffffffffffffffffffffffffff021916908373ffffffffffffffffffffffffffffffffffffffff16021790555034801561018c575f5ffd5b5061049e565b5f81519050919050565b7f4e487b71000000000000000000000000000000000000000000000000000000005f52604160045260245ffd5b7f4e487b71000000000000000000000000000000000000000000000000000000005f52602260045260245ffd5b5f600282049050600182168061020d57607f821691505b6020821081036102205761021f6101c9565b5b50919050565b5f819050815f5260205f209050919050565b5f6020601f8301049050919050565b5f82821b905092915050565b5f600883026102827fffffffffffffffffffffffffffffffffffffffffffffffffffffffffffffffff82610247565b61028c8683610247565b95508019841693508086168417925050509392505050565b5f819050919050565b5f819050919050565b5f6102d06102cb6102c6846102a4565b6102ad565b6102a4565b9050919050565b5f819050919050565b6102e9836102b6565b6102fd6102f5826102d7565b848454610253565b825550505050565b5f5f905090565b610314610305565b61031f8184846102e0565b505050565b5b81811015610342576103375f8261030c565b600181019050610325565b5050565b601f8211156103875761035881610226565b61036184610238565b81016020851015610370578190505b61038461037c85610238565b830182610324565b50505b505050565b5f82821c905092915050565b5f6103a75f198460080261038c565b1980831691505092915050565b5f6103bf8383610398565b9150826002028217905092915050565b6103d882610192565b67ffffffffffffffff8111156103f1576103f061019c565b5b6103fb82546101f6565b610406828285610346565b5f60209050601f831160018114610437575f8415610425578287015190505b61042f85826103b4565b865550610496565b601f19841661044586610226565b5f5b8281101561046c57848901518255600182019150602085019450602081019050610447565b868310156104895784890151610485601f891682610398565b8355505b6001600288020188555050505b505050505050565b6106ad806104ab5f395ff3fe608060405234801561000f575f5ffd5b50600436106100a7575f3560e01c806356658a021161006f57806356658a021461014157806380007e831461015f57806390b9bb0d1461017d578063a1fb1de91461019b578063adccea12146101b9578063fff1f29a146101d7576100a7565b806315d4266c146100ab57806322f3e2d4146100c957806323b5b771146100e7578063283f65021461010557806343a78b5014610123575b5f5ffd5b6100b36101f3565b6040516100c091906103b6565b60405180910390f35b6100d16101f9565b6040516100de91906103e9565b60405180910390f35b6100ef61020b565b6040516100fc919061041e565b60405180910390f35b61010d61021f565b60405161011a91906104a7565b60405180910390f35b61012b6102ab565b6040516101389190610506565b60405180910390f35b6101496102d1565b604051610156919061053a565b60405180910390f35b6101676102e3565b60405161017491906103e9565b60405180910390f35b6101856102f6565b60405161019291906103b6565b60405180910390f35b6101a36102fc565b6040516101b091906104a7565b60405180910390f35b6101c1610388565b6040516101ce919061056b565b60405180910390f35b6101f160048036038101906101ec91906105dc565b61038d565b005b60015481565b60065f9054906101000a900460ff1681565b600260019054906101000a900461ffff1681565b6005805461022c90610647565b80601f016020809104026020016040519081016040528092919081815260200182805461025890610647565b80156102a35780601f1061027a576101008083540402835291602001916102a3565b820191905f5260205f20905b81548152906001019060200180831161028657829003601f168201915b505050505081565b600660029054906101000a900473ffffffffffffffffffffffffffffffffffffffff1681565b60025f9054906101000a900460ff1681565b600660019054906101000a900460ff1681565b60035481565b6004805461030990610647565b80601f016020809104026020016040519081016040528092919081815260200182805461033590610647565b80156103805780601f1061035757610100808354040283529160200191610380565b820191905f5260205f20905b81548152906001019060200180831161036357829003601f168201915b505050505081565b5f5481565b81600181905550805f819055505050565b5f819050919050565b6103b08161039e565b82525050565b5f6020820190506103c95f8301846103a7565b92915050565b5f8115159050919050565b6103e3816103cf565b82525050565b5f6020820190506103fc5f8301846103da565b92915050565b5f61ffff82169050919050565b61041881610402565b82525050565b5f6020820190506104315f83018461040f565b92915050565b5f81519050919050565b5f82825260208201905092915050565b8281835e5f83830152505050565b5f601f19601f8301169050919050565b5f61047982610437565b6104838185610441565b9350610493818560208601610451565b61049c8161045f565b840191505092915050565b5f6020820190508181035f8301526104bf818461046f565b905092915050565b5f73ffffffffffffffffffffffffffffffffffffffff82169050919050565b5f6104f0826104c7565b9050919050565b610500816104e6565b82525050565b5f6020820190506105195f8301846104f7565b92915050565b5f60ff82169050919050565b6105348161051f565b82525050565b5f60208201905061054d5f83018461052b565b92915050565b5f819050919050565b61056581610553565b82525050565b5f60208201905061057e5f83018461055c565b92915050565b5f5ffd5b6105918161039e565b811461059b575f5ffd5b50565b5f813590506105ac81610588565b92915050565b6105bb81610553565b81146105c5575f5ffd5b50565b5f813590506105d6816105b2565b92915050565b5f5f604083850312156105f2576105f1610584565b5b5f6105ff8582860161059e565b9250506020610610858286016105c8565b9150509250929050565b7f4e487b71000000000000000000000000000000000000000000000000000000005f52602260045260245ffd5b5f600282049050600182168061065e57607f821691505b6020821081036106715761067061061a565b5b5091905056fea26469706673582212204cfb10e7a809b8182fa4190264dfea07ea3efd89697199b1614fd585b996b28164736f6c634300081f0033",
			"opcodes": "PUSH1 0x80 PUSH1 0x40 MSTORE PUSH32 0xFFFFFFFFFFFFFFFFFFFFFFFFFFFFFFFFFFFFFFFFFFFFFFFFFFFFFFFFFFFFFFF6 PUSH0 SSTORE PUSH1 0x64 PUSH1 0x1 SSTORE PUSH1 0xA PUSH1 0x2 PUSH0 PUSH2 0x100 EXP DUP2 SLOAD DUP2 PUSH1 0xFF MUL NOT AND SWAP1 DUP4 PUSH1 0xFF AND MUL OR SWAP1 SSTORE POP PUSH2 0xC350 PUSH1 0x2 PUSH1 0x1 PUSH2 0x100 EXP DUP2 SLOAD DUP2 PUSH2 0xFFFF MUL NOT AND SWAP1 DUP4 PUSH2 0xFFFF AND MUL OR SWAP1 SSTORE POP PUSH4 0x3B9ACA00 PUSH1 0x3 SSTORE PUSH1 0x40 MLOAD DUP1 PUSH1 0x40 ADD PUSH1 0x40 MSTORE DUP1 PUSH1 0xE DUP2 MSTORE PUSH1 0x20 ADD PUSH32 0x48656C6C6F2045766572796F6E65000000000000000000000000000000000000 DUP2 MSTORE POP PUSH1 0x4 SWAP1 DUP2 PUSH2 0xB2 SWAP2 SWAP1 PUSH2 0x3CF JUMP JUMPDEST POP PUSH1 0x40 MLOAD DUP1 PUSH1 0x40 ADD PUSH1 0x40 MSTORE DUP1 PUSH1 0x6 DUP2 MSTORE PUSH1 0x20 ADD PUSH32 0x5368617269660000000000000000000000000000000000000000000000000000 DUP2 MSTORE POP PUSH1 0x5 SWAP1 DUP2 PUSH2 0xF7 SWAP2 SWAP1 PUSH2 0x3CF JUMP JUMPDEST POP PUSH0 PUSH1 0x6 PUSH0 PUSH2 0x100 EXP DUP2 SLOAD DUP2 PUSH1 0xFF MUL NOT AND SWAP1 DUP4 ISZERO ISZERO MUL OR SWAP1 SSTORE POP PUSH1 0x1 PUSH1 0x6 PUSH1 0x1 PUSH2 0x100 EXP DUP2 SLOAD DUP2 PUSH1 0xFF MUL NOT AND SWAP1 DUP4 ISZERO ISZERO MUL OR SWAP1 SSTORE POP PUSH20 0x5B38DA6A701C568545DCFCB03FCB875F56BEDDC4 PUSH1 0x6 PUSH1 0x2 PUSH2 0x100 EXP DUP2 SLOAD DUP2 PUSH20 0xFFFFFFFFFFFFFFFFFFFFFFFFFFFFFFFFFFFFFFFF MUL NOT AND SWAP1 DUP4 PUSH20 0xFFFFFFFFFFFFFFFFFFFFFFFFFFFFFFFFFFFFFFFF AND MUL OR SWAP1 SSTORE POP CALLVALUE DUP1 ISZERO PUSH2 0x18C JUMPI PUSH0 PUSH0 REVERT JUMPDEST POP PUSH2 0x49E JUMP JUMPDEST PUSH0 DUP2 MLOAD SWAP1 POP SWAP2 SWAP1 POP JUMP JUMPDEST PUSH32 0x4E487B7100000000000000000000000000000000000000000000000000000000 PUSH0 MSTORE PUSH1 0x41 PUSH1 0x4 MSTORE PUSH1 0x24 PUSH0 REVERT JUMPDEST PUSH32 0x4E487B7100000000000000000000000000000000000000000000000000000000 PUSH0 MSTORE PUSH1 0x22 PUSH1 0x4 MSTORE PUSH1 0x24 PUSH0 REVERT JUMPDEST PUSH0 PUSH1 0x2 DUP3 DIV SWAP1 POP PUSH1 0x1 DUP3 AND DUP1 PUSH2 0x20D JUMPI PUSH1 0x7F DUP3 AND SWAP2 POP JUMPDEST PUSH1 0x20 DUP3 LT DUP2 SUB PUSH2 0x220 JUMPI PUSH2 0x21F PUSH2 0x1C9 JUMP JUMPDEST JUMPDEST POP SWAP2 SWAP1 POP JUMP JUMPDEST PUSH0 DUP2 SWAP1 POP DUP2 PUSH0 MSTORE PUSH1 0x20 PUSH0 KECCAK256 SWAP1 POP SWAP2 SWAP1 POP JUMP JUMPDEST PUSH0 PUSH1 0x20 PUSH1 0x1F DUP4 ADD DIV SWAP1 POP SWAP2 SWAP1 POP JUMP JUMPDEST PUSH0 DUP3 DUP3 SHL SWAP1 POP SWAP3 SWAP2 POP POP JUMP JUMPDEST PUSH0 PUSH1 0x8 DUP4 MUL PUSH2 0x282 PUSH32 0xFFFFFFFFFFFFFFFFFFFFFFFFFFFFFFFFFFFFFFFFFFFFFFFFFFFFFFFFFFFFFFFF DUP3 PUSH2 0x247 JUMP JUMPDEST PUSH2 0x28C DUP7 DUP4 PUSH2 0x247 JUMP JUMPDEST SWAP6 POP DUP1 NOT DUP5 AND SWAP4 POP DUP1 DUP7 AND DUP5 OR SWAP3 POP POP POP SWAP4 SWAP3 POP POP POP JUMP JUMPDEST PUSH0 DUP2 SWAP1 POP SWAP2 SWAP1 POP JUMP JUMPDEST PUSH0 DUP2 SWAP1 POP SWAP2 SWAP1 POP JUMP JUMPDEST PUSH0 PUSH2 0x2D0 PUSH2 0x2CB PUSH2 0x2C6 DUP5 PUSH2 0x2A4 JUMP JUMPDEST PUSH2 0x2AD JUMP JUMPDEST PUSH2 0x2A4 JUMP JUMPDEST SWAP1 POP SWAP2 SWAP1 POP JUMP JUMPDEST PUSH0 DUP2 SWAP1 POP SWAP2 SWAP1 POP JUMP JUMPDEST PUSH2 0x2E9 DUP4 PUSH2 0x2B6 JUMP JUMPDEST PUSH2 0x2FD PUSH2 0x2F5 DUP3 PUSH2 0x2D7 JUMP JUMPDEST DUP5 DUP5 SLOAD PUSH2 0x253 JUMP JUMPDEST DUP3 SSTORE POP POP POP POP JUMP JUMPDEST PUSH0 PUSH0 SWAP1 POP SWAP1 JUMP JUMPDEST PUSH2 0x314 PUSH2 0x305 JUMP JUMPDEST PUSH2 0x31F DUP2 DUP5 DUP5 PUSH2 0x2E0 JUMP JUMPDEST POP POP POP JUMP JUMPDEST JUMPDEST DUP2 DUP2 LT ISZERO PUSH2 0x342 JUMPI PUSH2 0x337 PUSH0 DUP3 PUSH2 0x30C JUMP JUMPDEST PUSH1 0x1 DUP2 ADD SWAP1 POP PUSH2 0x325 JUMP JUMPDEST POP POP JUMP JUMPDEST PUSH1 0x1F DUP3 GT ISZERO PUSH2 0x387 JUMPI PUSH2 0x358 DUP2 PUSH2 0x226 JUMP JUMPDEST PUSH2 0x361 DUP5 PUSH2 0x238 JUMP JUMPDEST DUP2 ADD PUSH1 0x20 DUP6 LT ISZERO PUSH2 0x370 JUMPI DUP2 SWAP1 POP JUMPDEST PUSH2 0x384 PUSH2 0x37C DUP6 PUSH2 0x238 JUMP JUMPDEST DUP4 ADD DUP3 PUSH2 0x324 JUMP JUMPDEST POP POP JUMPDEST POP POP POP JUMP JUMPDEST PUSH0 DUP3 DUP3 SHR SWAP1 POP SWAP3 SWAP2 POP POP JUMP JUMPDEST PUSH0 PUSH2 0x3A7 PUSH0 NOT DUP5 PUSH1 0x8 MUL PUSH2 0x38C JUMP JUMPDEST NOT DUP1 DUP4 AND SWAP2 POP POP SWAP3 SWAP2 POP POP JUMP JUMPDEST PUSH0 PUSH2 0x3BF DUP4 DUP4 PUSH2 0x398 JUMP JUMPDEST SWAP2 POP DUP3 PUSH1 0x2 MUL DUP3 OR SWAP1 POP SWAP3 SWAP2 POP POP JUMP JUMPDEST PUSH2 0x3D8 DUP3 PUSH2 0x192 JUMP JUMPDEST PUSH8 0xFFFFFFFFFFFFFFFF DUP2 GT ISZERO PUSH2 0x3F1 JUMPI PUSH2 0x3F0 PUSH2 0x19C JUMP JUMPDEST JUMPDEST PUSH2 0x3FB DUP3 SLOAD PUSH2 0x1F6 JUMP JUMPDEST PUSH2 0x406 DUP3 DUP3 DUP6 PUSH2 0x346 JUMP JUMPDEST PUSH0 PUSH1 0x20 SWAP1 POP PUSH1 0x1F DUP4 GT PUSH1 0x1 DUP2 EQ PUSH2 0x437 JUMPI PUSH0 DUP5 ISZERO PUSH2 0x425 JUMPI DUP3 DUP8 ADD MLOAD SWAP1 POP JUMPDEST PUSH2 0x42F DUP6 DUP3 PUSH2 0x3B4 JUMP JUMPDEST DUP7 SSTORE POP PUSH2 0x496 JUMP JUMPDEST PUSH1 0x1F NOT DUP5 AND PUSH2 0x445 DUP7 PUSH2 0x226 JUMP JUMPDEST PUSH0 JUMPDEST DUP3 DUP2 LT ISZERO PUSH2 0x46C JUMPI DUP5 DUP10 ADD MLOAD DUP3 SSTORE PUSH1 0x1 DUP3 ADD SWAP2 POP PUSH1 0x20 DUP6 ADD SWAP5 POP PUSH1 0x20 DUP2 ADD SWAP1 POP PUSH2 0x447 JUMP JUMPDEST DUP7 DUP4 LT ISZERO PUSH2 0x489 JUMPI DUP5 DUP10 ADD MLOAD PUSH2 0x485 PUSH1 0x1F DUP10 AND DUP3 PUSH2 0x398 JUMP JUMPDEST DUP4 SSTORE POP JUMPDEST PUSH1 0x1 PUSH1 0x2 DUP9 MUL ADD DUP9 SSTORE POP POP POP JUMPDEST POP POP POP POP POP POP JUMP JUMPDEST PUSH2 0x6AD DUP1 PUSH2 0x4AB PUSH0 CODECOPY PUSH0 RETURN INVALID PUSH1 0x80 PUSH1 0x40 MSTORE CALLVALUE DUP1 ISZERO PUSH2 0xF JUMPI PUSH0 PUSH0 REVERT JUMPDEST POP PUSH1 0x4 CALLDATASIZE LT PUSH2 0xA7 JUMPI PUSH0 CALLDATALOAD PUSH1 0xE0 SHR DUP1 PUSH4 0x56658A02 GT PUSH2 0x6F JUMPI DUP1 PUSH4 0x56658A02 EQ PUSH2 0x141 JUMPI DUP1 PUSH4 0x80007E83 EQ PUSH2 0x15F JUMPI DUP1 PUSH4 0x90B9BB0D EQ PUSH2 0x17D JUMPI DUP1 PUSH4 0xA1FB1DE9 EQ PUSH2 0x19B JUMPI DUP1 PUSH4 0xADCCEA12 EQ PUSH2 0x1B9 JUMPI DUP1 PUSH4 0xFFF1F29A EQ PUSH2 0x1D7 JUMPI PUSH2 0xA7 JUMP JUMPDEST DUP1 PUSH4 0x15D4266C EQ PUSH2 0xAB JUMPI DUP1 PUSH4 0x22F3E2D4 EQ PUSH2 0xC9 JUMPI DUP1 PUSH4 0x23B5B771 EQ PUSH2 0xE7 JUMPI DUP1 PUSH4 0x283F6502 EQ PUSH2 0x105 JUMPI DUP1 PUSH4 0x43A78B50 EQ PUSH2 0x123 JUMPI JUMPDEST PUSH0 PUSH0 REVERT JUMPDEST PUSH2 0xB3 PUSH2 0x1F3 JUMP JUMPDEST PUSH1 0x40 MLOAD PUSH2 0xC0 SWAP2 SWAP1 PUSH2 0x3B6 JUMP JUMPDEST PUSH1 0x40 MLOAD DUP1 SWAP2 SUB SWAP1 RETURN JUMPDEST PUSH2 0xD1 PUSH2 0x1F9 JUMP JUMPDEST PUSH1 0x40 MLOAD PUSH2 0xDE SWAP2 SWAP1 PUSH2 0x3E9 JUMP JUMPDEST PUSH1 0x40 MLOAD DUP1 SWAP2 SUB SWAP1 RETURN JUMPDEST PUSH2 0xEF PUSH2 0x20B JUMP JUMPDEST PUSH1 0x40 MLOAD PUSH2 0xFC SWAP2 SWAP1 PUSH2 0x41E JUMP JUMPDEST PUSH1 0x40 MLOAD DUP1 SWAP2 SUB SWAP1 RETURN JUMPDEST PUSH2 0x10D PUSH2 0x21F JUMP JUMPDEST PUSH1 0x40 MLOAD PUSH2 0x11A SWAP2 SWAP1 PUSH2 0x4A7 JUMP JUMPDEST PUSH1 0x40 MLOAD DUP1 SWAP2 SUB SWAP1 RETURN JUMPDEST PUSH2 0x12B PUSH2 0x2AB JUMP JUMPDEST PUSH1 0x40 MLOAD PUSH2 0x138 SWAP2 SWAP1 PUSH2 0x506 JUMP JUMPDEST PUSH1 0x40 MLOAD DUP1 SWAP2 SUB SWAP1 RETURN JUMPDEST PUSH2 0x149 PUSH2 0x2D1 JUMP JUMPDEST PUSH1 0x40 MLOAD PUSH2 0x156 SWAP2 SWAP1 PUSH2 0x53A JUMP JUMPDEST PUSH1 0x40 MLOAD DUP1 SWAP2 SUB SWAP1 RETURN JUMPDEST PUSH2 0x167 PUSH2 0x2E3 JUMP JUMPDEST PUSH1 0x40 MLOAD PUSH2 0x174 SWAP2 SWAP1 PUSH2 0x3E9 JUMP JUMPDEST PUSH1 0x40 MLOAD DUP1 SWAP2 SUB SWAP1 RETURN JUMPDEST PUSH2 0x185 PUSH2 0x2F6 JUMP JUMPDEST PUSH1 0x40 MLOAD PUSH2 0x192 SWAP2 SWAP1 PUSH2 0x3B6 JUMP JUMPDEST PUSH1 0x40 MLOAD DUP1 SWAP2 SUB SWAP1 RETURN JUMPDEST PUSH2 0x1A3 PUSH2 0x2FC JUMP JUMPDEST PUSH1 0x40 MLOAD PUSH2 0x1B0 SWAP2 SWAP1 PUSH2 0x4A7 JUMP JUMPDEST PUSH1 0x40 MLOAD DUP1 SWAP2 SUB SWAP1 RETURN JUMPDEST PUSH2 0x1C1 PUSH2 0x388 JUMP JUMPDEST PUSH1 0x40 MLOAD PUSH2 0x1CE SWAP2 SWAP1 PUSH2 0x56B JUMP JUMPDEST PUSH1 0x40 MLOAD DUP1 SWAP2 SUB SWAP1 RETURN JUMPDEST PUSH2 0x1F1 PUSH1 0x4 DUP1 CALLDATASIZE SUB DUP2 ADD SWAP1 PUSH2 0x1EC SWAP2 SWAP1 PUSH2 0x5DC JUMP JUMPDEST PUSH2 0x38D JUMP JUMPDEST STOP JUMPDEST PUSH1 0x1 SLOAD DUP2 JUMP JUMPDEST PUSH1 0x6 PUSH0 SWAP1 SLOAD SWAP1 PUSH2 0x100 EXP SWAP1 DIV PUSH1 0xFF AND DUP2 JUMP JUMPDEST PUSH1 0x2 PUSH1 0x1 SWAP1 SLOAD SWAP1 PUSH2 0x100 EXP SWAP1 DIV PUSH2 0xFFFF AND DUP2 JUMP JUMPDEST PUSH1 0x5 DUP1 SLOAD PUSH2 0x22C SWAP1 PUSH2 0x647 JUMP JUMPDEST DUP1 PUSH1 0x1F ADD PUSH1 0x20 DUP1 SWAP2 DIV MUL PUSH1 0x20 ADD PUSH1 0x40 MLOAD SWAP1 DUP2 ADD PUSH1 0x40 MSTORE DUP1 SWAP3 SWAP2 SWAP1 DUP2 DUP2 MSTORE PUSH1 0x20 ADD DUP3 DUP1 SLOAD PUSH2 0x258 SWAP1 PUSH2 0x647 JUMP JUMPDEST DUP1 ISZERO PUSH2 0x2A3 JUMPI DUP1 PUSH1 0x1F LT PUSH2 0x27A JUMPI PUSH2 0x100 DUP1 DUP4 SLOAD DIV MUL DUP4 MSTORE SWAP2 PUSH1 0x20 ADD SWAP2 PUSH2 0x2A3 JUMP JUMPDEST DUP3 ADD SWAP2 SWAP1 PUSH0 MSTORE PUSH1 0x20 PUSH0 KECCAK256 SWAP1 JUMPDEST DUP2 SLOAD DUP2 MSTORE SWAP1 PUSH1 0x1 ADD SWAP1 PUSH1 0x20 ADD DUP1 DUP4 GT PUSH2 0x286 JUMPI DUP3 SWAP1 SUB PUSH1 0x1F AND DUP3 ADD SWAP2 JUMPDEST POP POP POP POP POP DUP2 JUMP JUMPDEST PUSH1 0x6 PUSH1 0x2 SWAP1 SLOAD SWAP1 PUSH2 0x100 EXP SWAP1 DIV PUSH20 0xFFFFFFFFFFFFFFFFFFFFFFFFFFFFFFFFFFFFFFFF AND DUP2 JUMP JUMPDEST PUSH1 0x2 PUSH0 SWAP1 SLOAD SWAP1 PUSH2 0x100 EXP SWAP1 DIV PUSH1 0xFF AND DUP2 JUMP JUMPDEST PUSH1 0x6 PUSH1 0x1 SWAP1 SLOAD SWAP1 PUSH2 0x100 EXP SWAP1 DIV PUSH1 0xFF AND DUP2 JUMP JUMPDEST PUSH1 0x3 SLOAD DUP2 JUMP JUMPDEST PUSH1 0x4 DUP1 SLOAD PUSH2 0x309 SWAP1 PUSH2 0x647 JUMP JUMPDEST DUP1 PUSH1 0x1F ADD PUSH1 0x20 DUP1 SWAP2 DIV MUL PUSH1 0x20 ADD PUSH1 0x40 MLOAD SWAP1 DUP2 ADD PUSH1 0x40 MSTORE DUP1 SWAP3 SWAP2 SWAP1 DUP2 DUP2 MSTORE PUSH1 0x20 ADD DUP3 DUP1 SLOAD PUSH2 0x335 SWAP1 PUSH2 0x647 JUMP JUMPDEST DUP1 ISZERO PUSH2 0x380 JUMPI DUP1 PUSH1 0x1F LT PUSH2 0x357 JUMPI PUSH2 0x100 DUP1 DUP4 SLOAD DIV MUL DUP4 MSTORE SWAP2 PUSH1 0x20 ADD SWAP2 PUSH2 0x380 JUMP JUMPDEST DUP3 ADD SWAP2 SWAP1 PUSH0 MSTORE PUSH1 0x20 PUSH0 KECCAK256 SWAP1 JUMPDEST DUP2 SLOAD DUP2 MSTORE SWAP1 PUSH1 0x1 ADD SWAP1 PUSH1 0x20 ADD DUP1 DUP4 GT PUSH2 0x363 JUMPI DUP3 SWAP1 SUB PUSH1 0x1F AND DUP3 ADD SWAP2 JUMPDEST POP POP POP POP POP DUP2 JUMP JUMPDEST PUSH0 SLOAD DUP2 JUMP JUMPDEST DUP2 PUSH1 0x1 DUP2 SWAP1 SSTORE POP DUP1 PUSH0 DUP2 SWAP1 SSTORE POP POP POP JUMP JUMPDEST PUSH0 DUP2 SWAP1 POP SWAP2 SWAP1 POP JUMP JUMPDEST PUSH2 0x3B0 DUP2 PUSH2 0x39E JUMP JUMPDEST DUP3 MSTORE POP POP JUMP JUMPDEST PUSH0 PUSH1 0x20 DUP3 ADD SWAP1 POP PUSH2 0x3C9 PUSH0 DUP4 ADD DUP5 PUSH2 0x3A7 JUMP JUMPDEST SWAP3 SWAP2 POP POP JUMP JUMPDEST PUSH0 DUP2 ISZERO ISZERO SWAP1 POP SWAP2 SWAP1 POP JUMP JUMPDEST PUSH2 0x3E3 DUP2 PUSH2 0x3CF JUMP JUMPDEST DUP3 MSTORE POP POP JUMP JUMPDEST PUSH0 PUSH1 0x20 DUP3 ADD SWAP1 POP PUSH2 0x3FC PUSH0 DUP4 ADD DUP5 PUSH2 0x3DA JUMP JUMPDEST SWAP3 SWAP2 POP POP JUMP JUMPDEST PUSH0 PUSH2 0xFFFF DUP3 AND SWAP1 POP SWAP2 SWAP1 POP JUMP JUMPDEST PUSH2 0x418 DUP2 PUSH2 0x402 JUMP JUMPDEST DUP3 MSTORE POP POP JUMP JUMPDEST PUSH0 PUSH1 0x20 DUP3 ADD SWAP1 POP PUSH2 0x431 PUSH0 DUP4 ADD DUP5 PUSH2 0x40F JUMP JUMPDEST SWAP3 SWAP2 POP POP JUMP JUMPDEST PUSH0 DUP2 MLOAD SWAP1 POP SWAP2 SWAP1 POP JUMP JUMPDEST PUSH0 DUP3 DUP3 MSTORE PUSH1 0x20 DUP3 ADD SWAP1 POP SWAP3 SWAP2 POP POP JUMP JUMPDEST DUP3 DUP2 DUP4 MCOPY PUSH0 DUP4 DUP4 ADD MSTORE POP POP POP JUMP JUMPDEST PUSH0 PUSH1 0x1F NOT PUSH1 0x1F DUP4 ADD AND SWAP1 POP SWAP2 SWAP1 POP JUMP JUMPDEST PUSH0 PUSH2 0x479 DUP3 PUSH2 0x437 JUMP JUMPDEST PUSH2 0x483 DUP2 DUP6 PUSH2 0x441 JUMP JUMPDEST SWAP4 POP PUSH2 0x493 DUP2 DUP6 PUSH1 0x20 DUP7 ADD PUSH2 0x451 JUMP JUMPDEST PUSH2 0x49C DUP2 PUSH2 0x45F JUMP JUMPDEST DUP5 ADD SWAP2 POP POP SWAP3 SWAP2 POP POP JUMP JUMPDEST PUSH0 PUSH1 0x20 DUP3 ADD SWAP1 POP DUP2 DUP2 SUB PUSH0 DUP4 ADD MSTORE PUSH2 0x4BF DUP2 DUP5 PUSH2 0x46F JUMP JUMPDEST SWAP1 POP SWAP3 SWAP2 POP POP JUMP JUMPDEST PUSH0 PUSH20 0xFFFFFFFFFFFFFFFFFFFFFFFFFFFFFFFFFFFFFFFF DUP3 AND SWAP1 POP SWAP2 SWAP1 POP JUMP JUMPDEST PUSH0 PUSH2 0x4F0 DUP3 PUSH2 0x4C7 JUMP JUMPDEST SWAP1 POP SWAP2 SWAP1 POP JUMP JUMPDEST PUSH2 0x500 DUP2 PUSH2 0x4E6 JUMP JUMPDEST DUP3 MSTORE POP POP JUMP JUMPDEST PUSH0 PUSH1 0x20 DUP3 ADD SWAP1 POP PUSH2 0x519 PUSH0 DUP4 ADD DUP5 PUSH2 0x4F7 JUMP JUMPDEST SWAP3 SWAP2 POP POP JUMP JUMPDEST PUSH0 PUSH1 0xFF DUP3 AND SWAP1 POP SWAP2 SWAP1 POP JUMP JUMPDEST PUSH2 0x534 DUP2 PUSH2 0x51F JUMP JUMPDEST DUP3 MSTORE POP POP JUMP JUMPDEST PUSH0 PUSH1 0x20 DUP3 ADD SWAP1 POP PUSH2 0x54D PUSH0 DUP4 ADD DUP5 PUSH2 0x52B JUMP JUMPDEST SWAP3 SWAP2 POP POP JUMP JUMPDEST PUSH0 DUP2 SWAP1 POP SWAP2 SWAP1 POP JUMP JUMPDEST PUSH2 0x565 DUP2 PUSH2 0x553 JUMP JUMPDEST DUP3 MSTORE POP POP JUMP JUMPDEST PUSH0 PUSH1 0x20 DUP3 ADD SWAP1 POP PUSH2 0x57E PUSH0 DUP4 ADD DUP5 PUSH2 0x55C JUMP JUMPDEST SWAP3 SWAP2 POP POP JUMP JUMPDEST PUSH0 PUSH0 REVERT JUMPDEST PUSH2 0x591 DUP2 PUSH2 0x39E JUMP JUMPDEST DUP2 EQ PUSH2 0x59B JUMPI PUSH0 PUSH0 REVERT JUMPDEST POP JUMP JUMPDEST PUSH0 DUP2 CALLDATALOAD SWAP1 POP PUSH2 0x5AC DUP2 PUSH2 0x588 JUMP JUMPDEST SWAP3 SWAP2 POP POP JUMP JUMPDEST PUSH2 0x5BB DUP2 PUSH2 0x553 JUMP JUMPDEST DUP2 EQ PUSH2 0x5C5 JUMPI PUSH0 PUSH0 REVERT JUMPDEST POP JUMP JUMPDEST PUSH0 DUP2 CALLDATALOAD SWAP1 POP PUSH2 0x5D6 DUP2 PUSH2 0x5B2 JUMP JUMPDEST SWAP3 SWAP2 POP POP JUMP JUMPDEST PUSH0 PUSH0 PUSH1 0x40 DUP4 DUP6 SUB SLT ISZERO PUSH2 0x5F2 JUMPI PUSH2 0x5F1 PUSH2 0x584 JUMP JUMPDEST JUMPDEST PUSH0 PUSH2 0x5FF DUP6 DUP3 DUP7 ADD PUSH2 0x59E JUMP JUMPDEST SWAP3 POP POP PUSH1 0x20 PUSH2 0x610 DUP6 DUP3 DUP7 ADD PUSH2 0x5C8 JUMP JUMPDEST SWAP2 POP POP SWAP3 POP SWAP3 SWAP1 POP JUMP JUMPDEST PUSH32 0x4E487B7100000000000000000000000000000000000000000000000000000000 PUSH0 MSTORE PUSH1 0x22 PUSH1 0x4 MSTORE PUSH1 0x24 PUSH0 REVERT JUMPDEST PUSH0 PUSH1 0x2 DUP3 DIV SWAP1 POP PUSH1 0x1 DUP3 AND DUP1 PUSH2 0x65E JUMPI PUSH1 0x7F DUP3 AND SWAP2 POP JUMPDEST PUSH1 0x20 DUP3 LT DUP2 SUB PUSH2 0x671 JUMPI PUSH2 0x670 PUSH2 0x61A JUMP JUMPDEST JUMPDEST POP SWAP2 SWAP1 POP JUMP INVALID LOG2 PUSH5 0x6970667358 0x22 SLT KECCAK256 0x4C EXTSTATICCALL LT SWAPN 0xA8 MULMOD 0xB8 XOR 0x2F LOG4 NOT MUL PUSH5 0xDFEA07EA3E REVERT DUP10 PUSH10 0x7199B1614FD585B996B2 DUP2 PUSH5 0x736F6C6343 STOP ADDMOD 0x1F STOP CALLER "
		},
		"gasEstimates": {
			"creation": {
				"codeDepositCost": "341800",
				"executionCost": "infinite",
				"totalCost": "infinite"
			},
			"external": {
				"Message()": "infinite",
				"MyAddress()": "2648",
				"MyName()": "infinite",
				"UpdateValues(uint256,int256)": "44908",
				"isActive()": "2489",
				"isVerified()": "2539",
				"largeNum()": "2469",
				"mediumNum()": "2562",
				"num2()": "2426",
				"smallNum()": "2466",
				"temperature()": "2512"
			}
		},
		"methodIdentifiers": {
			"Message()": "a1fb1de9",
			"MyAddress()": "43a78b50",
			"MyName()": "283f6502",
			"UpdateValues(uint256,int256)": "fff1f29a",
			"isActive()": "22f3e2d4",
			"isVerified()": "80007e83",
			"largeNum()": "90b9bb0d",
			"mediumNum()": "23b5b771",
			"num2()": "15d4266c",
			"smallNum()": "56658a02",
			"temperature()": "adccea12"
		}
	},
	"abi": [
		{
			"inputs": [],
			"name": "Message",
			"outputs": [
				{
					"internalType": "string",
					"name": "",
					"type": "string"
				}
			],
			"stateMutability": "view",
			"type": "function"
		},
		{
			"inputs": [],
			"name": "MyAddress",
			"outputs": [
				{
					"internalType": "address",
					"name": "",
					"type": "address"
				}
			],
			"stateMutability": "view",
			"type": "function"
		},
		{
			"inputs": [],
			"name": "MyName",
			"outputs": [
				{
					"internalType": "string",
					"name": "",
					"type": "string"
				}
			],
			"stateMutability": "view",
			"type": "function"
		},
		{
			"inputs": [
				{
					"internalType": "uint256",
					"name": "newNum",
					"type": "uint256"
				},
				{
					"internalType": "int256",
					"name": "newTemp",
					"type": "int256"
				}
			],
			"name": "UpdateValues",
			"outputs": [],
			"stateMutability": "nonpayable",
			"type": "function"
		},
		{
			"inputs": [],
			"name": "isActive",
			"outputs": [
				{
					"internalType": "bool",
					"name": "",
					"type": "bool"
				}
			],
			"stateMutability": "view",
			"type": "function"
		},
		{
			"inputs": [],
			"name": "isVerified",
			"outputs": [
				{
					"internalType": "bool",
					"name": "",
					"type": "bool"
				}
			],
			"stateMutability": "view",
			"type": "function"
		},
		{
			"inputs": [],
			"name": "largeNum",
			"outputs": [
				{
					"internalType": "uint256",
					"name": "",
					"type": "uint256"
				}
			],
			"stateMutability": "view",
			"type": "function"
		},
		{
			"inputs": [],
			"name": "mediumNum",
			"outputs": [
				{
					"internalType": "uint16",
					"name": "",
					"type": "uint16"
				}
			],
			"stateMutability": "view",
			"type": "function"
		},
		{
			"inputs": [],
			"name": "num2",
			"outputs": [
				{
					"internalType": "uint256",
					"name": "",
					"type": "uint256"
				}
			],
			"stateMutability": "view",
			"type": "function"
		},
		{
			"inputs": [],
			"name": "smallNum",
			"outputs": [
				{
					"internalType": "uint8",
					"name": "",
					"type": "uint8"
				}
			],
			"stateMutability": "view",
			"type": "function"
		},
		{
			"inputs": [],
			"name": "temperature",
			"outputs": [
				{
					"internalType": "int256",
					"name": "",
					"type": "int256"
				}
			],
			"stateMutability": "view",
			"type": "function"
		}
	]
}