{
	"data": {
		"bytecode": {
			"linkReferences": {},
			"object": "6080604052348015600e575f5ffd5b5061084f8061001c5f395ff3fe608060405234801561000f575f5ffd5b5060043610610055575f3560e01c8063262a9dff146100595780635e9ad6b4146100775780639553de4e146100955780639731d420146100b3578063b508ba31146100cf575b5f5ffd5b6100616100ed565b60405161006e9190610279565b60405180910390f35b61007f6100f3565b60405161008c91906102ac565b60405180910390f35b61009d610105565b6040516100aa9190610335565b60405180910390f35b6100cd60048036038101906100c891906104bc565b610191565b005b6100d76101d6565b6040516100e49190610335565b60405180910390f35b60015481565b60035f9054906101000a900460ff1681565b6002805461011290610571565b80601f016020809104026020016040519081016040528092919081815260200182805461013e90610571565b80156101895780601f1061016057610100808354040283529160200191610189565b820191905f5260205f20905b81548152906001019060200180831161016c57829003601f168201915b505050505081565b825f908161019f919061074a565b508160018190555080600290816101b6919061074a565b50600160035f6101000a81548160ff021916908315150217905550505050565b5f80546101e290610571565b80601f016020809104026020016040519081016040528092919081815260200182805461020e90610571565b80156102595780601f1061023057610100808354040283529160200191610259565b820191905f5260205f20905b81548152906001019060200180831161023c57829003601f168201915b505050505081565b5f819050919050565b61027381610261565b82525050565b5f60208201905061028c5f83018461026a565b92915050565b5f8115159050919050565b6102a681610292565b82525050565b5f6020820190506102bf5f83018461029d565b92915050565b5f81519050919050565b5f82825260208201905092915050565b8281835e5f83830152505050565b5f601f19601f8301169050919050565b5f610307826102c5565b61031181856102cf565b93506103218185602086016102df565b61032a816102ed565b840191505092915050565b5f6020820190508181035f83015261034d81846102fd565b905092915050565b5f604051905090565b5f5ffd5b5f5ffd5b5f5ffd5b5f5ffd5b7f4e487b71000000000000000000000000000000000000000000000000000000005f52604160045260245ffd5b6103a4826102ed565b810181811067ffffffffffffffff821117156103c3576103c261036e565b5b80604052505050565b5f6103d5610355565b90506103e1828261039b565b919050565b5f67ffffffffffffffff821115610400576103ff61036e565b5b610409826102ed565b9050602081019050919050565b828183375f83830152505050565b5f610436610431846103e6565b6103cc565b9050828152602081018484840111156104525761045161036a565b5b61045d848285610416565b509392505050565b5f82601f83011261047957610478610366565b5b8135610489848260208601610424565b91505092915050565b61049b81610261565b81146104a5575f5ffd5b50565b5f813590506104b681610492565b92915050565b5f5f5f606084860312156104d3576104d261035e565b5b5f84013567ffffffffffffffff8111156104f0576104ef610362565b5b6104fc86828701610465565b935050602061050d868287016104a8565b925050604084013567ffffffffffffffff81111561052e5761052d610362565b5b61053a86828701610465565b9150509250925092565b7f4e487b71000000000000000000000000000000000000000000000000000000005f52602260045260245ffd5b5f600282049050600182168061058857607f821691505b60208210810361059b5761059a610544565b5b50919050565b5f819050815f5260205f209050919050565b5f6020601f8301049050919050565b5f82821b905092915050565b5f600883026105fd7fffffffffffffffffffffffffffffffffffffffffffffffffffffffffffffffff826105c2565b61060786836105c2565b95508019841693508086168417925050509392505050565b5f819050919050565b5f819050919050565b5f61064b6106466106418461061f565b610628565b61061f565b9050919050565b5f819050919050565b61066483610631565b61067861067082610652565b8484546105ce565b825550505050565b5f5f905090565b61068f610680565b61069a81848461065b565b505050565b5b818110156106bd576106b25f82610687565b6001810190506106a0565b5050565b601f821115610702576106d3816105a1565b6106dc846105b3565b810160208510156106eb578190505b6106ff6106f7856105b3565b83018261069f565b50505b505050565b5f82821c905092915050565b5f6107225f1984600802610707565b1980831691505092915050565b5f61073a8383610713565b9150826002028217905092915050565b610753826102c5565b67ffffffffffffffff81111561076c5761076b61036e565b5b6107768254610571565b6107818282856106c1565b5f60209050601f8311600181146107b2575f84156107a0578287015190505b6107aa858261072f565b865550610811565b601f1984166107c0866105a1565b5f5b828110156107e7578489015182556001820191506020850194506020810190506107c2565b868310156108045784890151610800601f891682610713565b8355505b6001600288020188555050505b50505050505056fea26469706673582212202efee74067797ec0af43f2c9b734912410e90bd2cd2ba2903151e23f3e1a040e64736f6c634300081f0033",
			"opcodes": "PUSH1 0x80 PUSH1 0x40 MSTORE CALLVALUE DUP1 ISZERO PUSH1 0xE JUMPI PUSH0 PUSH0 REVERT JUMPDEST POP PUSH2 0x84F DUP1 PUSH2 0x1C PUSH0 CODECOPY PUSH0 RETURN INVALID PUSH1 0x80 PUSH1 0x40 MSTORE CALLVALUE DUP1 ISZERO PUSH2 0xF JUMPI PUSH0 PUSH0 REVERT JUMPDEST POP PUSH1 0x4 CALLDATASIZE LT PUSH2 0x55 JUMPI PUSH0 CALLDATALOAD PUSH1 0xE0 SHR DUP1 PUSH4 0x262A9DFF EQ PUSH2 0x59 JUMPI DUP1 PUSH4 0x5E9AD6B4 EQ PUSH2 0x77 JUMPI DUP1 PUSH4 0x9553DE4E EQ PUSH2 0x95 JUMPI DUP1 PUSH4 0x9731D420 EQ PUSH2 0xB3 JUMPI DUP1 PUSH4 0xB508BA31 EQ PUSH2 0xCF JUMPI JUMPDEST PUSH0 PUSH0 REVERT JUMPDEST PUSH2 0x61 PUSH2 0xED JUMP JUMPDEST PUSH1 0x40 MLOAD PUSH2 0x6E SWAP2 SWAP1 PUSH2 0x279 JUMP JUMPDEST PUSH1 0x40 MLOAD DUP1 SWAP2 SUB SWAP1 RETURN JUMPDEST PUSH2 0x7F PUSH2 0xF3 JUMP JUMPDEST PUSH1 0x40 MLOAD PUSH2 0x8C SWAP2 SWAP1 PUSH2 0x2AC JUMP JUMPDEST PUSH1 0x40 MLOAD DUP1 SWAP2 SUB SWAP1 RETURN JUMPDEST PUSH2 0x9D PUSH2 0x105 JUMP JUMPDEST PUSH1 0x40 MLOAD PUSH2 0xAA SWAP2 SWAP1 PUSH2 0x335 JUMP JUMPDEST PUSH1 0x40 MLOAD DUP1 SWAP2 SUB SWAP1 RETURN JUMPDEST PUSH2 0xCD PUSH1 0x4 DUP1 CALLDATASIZE SUB DUP2 ADD SWAP1 PUSH2 0xC8 SWAP2 SWAP1 PUSH2 0x4BC JUMP JUMPDEST PUSH2 0x191 JUMP JUMPDEST STOP JUMPDEST PUSH2 0xD7 PUSH2 0x1D6 JUMP JUMPDEST PUSH1 0x40 MLOAD PUSH2 0xE4 SWAP2 SWAP1 PUSH2 0x335 JUMP JUMPDEST PUSH1 0x40 MLOAD DUP1 SWAP2 SUB SWAP1 RETURN JUMPDEST PUSH1 0x1 SLOAD DUP2 JUMP JUMPDEST PUSH1 0x3 PUSH0 SWAP1 SLOAD SWAP1 PUSH2 0x100 EXP SWAP1 DIV PUSH1 0xFF AND DUP2 JUMP JUMPDEST PUSH1 0x2 DUP1 SLOAD PUSH2 0x112 SWAP1 PUSH2 0x571 JUMP JUMPDEST DUP1 PUSH1 0x1F ADD PUSH1 0x20 DUP1 SWAP2 DIV MUL PUSH1 0x20 ADD PUSH1 0x40 MLOAD SWAP1 DUP2 ADD PUSH1 0x40 MSTORE DUP1 SWAP3 SWAP2 SWAP1 DUP2 DUP2 MSTORE PUSH1 0x20 ADD DUP3 DUP1 SLOAD PUSH2 0x13E SWAP1 PUSH2 0x571 JUMP JUMPDEST DUP1 ISZERO PUSH2 0x189 JUMPI DUP1 PUSH1 0x1F LT PUSH2 0x160 JUMPI PUSH2 0x100 DUP1 DUP4 SLOAD DIV MUL DUP4 MSTORE SWAP2 PUSH1 0x20 ADD SWAP2 PUSH2 0x189 JUMP JUMPDEST DUP3 ADD SWAP2 SWAP1 PUSH0 MSTORE PUSH1 0x20 PUSH0 KECCAK256 SWAP1 JUMPDEST DUP2 SLOAD DUP2 MSTORE SWAP1 PUSH1 0x1 ADD SWAP1 PUSH1 0x20 ADD DUP1 DUP4 GT PUSH2 0x16C JUMPI DUP3 SWAP1 SUB PUSH1 0x1F AND DUP3 ADD SWAP2 JUMPDEST POP POP POP POP POP DUP2 JUMP JUMPDEST DUP3 PUSH0 SWAP1 DUP2 PUSH2 0x19F SWAP2 SWAP1 PUSH2 0x74A JUMP JUMPDEST POP DUP2 PUSH1 0x1 DUP2 SWAP1 SSTORE POP DUP1 PUSH1 0x2 SWAP1 DUP2 PUSH2 0x1B6 SWAP2 SWAP1 PUSH2 0x74A JUMP JUMPDEST POP PUSH1 0x1 PUSH1 0x3 PUSH0 PUSH2 0x100 EXP DUP2 SLOAD DUP2 PUSH1 0xFF MUL NOT AND SWAP1 DUP4 ISZERO ISZERO MUL OR SWAP1 SSTORE POP POP POP POP JUMP JUMPDEST PUSH0 DUP1 SLOAD PUSH2 0x1E2 SWAP1 PUSH2 0x571 JUMP JUMPDEST DUP1 PUSH1 0x1F ADD PUSH1 0x20 DUP1 SWAP2 DIV MUL PUSH1 0x20 ADD PUSH1 0x40 MLOAD SWAP1 DUP2 ADD PUSH1 0x40 MSTORE DUP1 SWAP3 SWAP2 SWAP1 DUP2 DUP2 MSTORE PUSH1 0x20 ADD DUP3 DUP1 SLOAD PUSH2 0x20E SWAP1 PUSH2 0x571 JUMP JUMPDEST DUP1 ISZERO PUSH2 0x259 JUMPI DUP1 PUSH1 0x1F LT PUSH2 0x230 JUMPI PUSH2 0x100 DUP1 DUP4 SLOAD DIV MUL DUP4 MSTORE SWAP2 PUSH1 0x20 ADD SWAP2 PUSH2 0x259 JUMP JUMPDEST DUP3 ADD SWAP2 SWAP1 PUSH0 MSTORE PUSH1 0x20 PUSH0 KECCAK256 SWAP1 JUMPDEST DUP2 SLOAD DUP2 MSTORE SWAP1 PUSH1 0x1 ADD SWAP1 PUSH1 0x20 ADD DUP1 DUP4 GT PUSH2 0x23C JUMPI DUP3 SWAP1 SUB PUSH1 0x1F AND DUP3 ADD SWAP2 JUMPDEST POP POP POP POP POP DUP2 JUMP JUMPDEST PUSH0 DUP2 SWAP1 POP SWAP2 SWAP1 POP JUMP JUMPDEST PUSH2 0x273 DUP2 PUSH2 0x261 JUMP JUMPDEST DUP3 MSTORE POP POP JUMP JUMPDEST PUSH0 PUSH1 0x20 DUP3 ADD SWAP1 POP PUSH2 0x28C PUSH0 DUP4 ADD DUP5 PUSH2 0x26A JUMP JUMPDEST SWAP3 SWAP2 POP POP JUMP JUMPDEST PUSH0 DUP2 ISZERO ISZERO SWAP1 POP SWAP2 SWAP1 POP JUMP JUMPDEST PUSH2 0x2A6 DUP2 PUSH2 0x292 JUMP JUMPDEST DUP3 MSTORE POP POP JUMP JUMPDEST PUSH0 PUSH1 0x20 DUP3 ADD SWAP1 POP PUSH2 0x2BF PUSH0 DUP4 ADD DUP5 PUSH2 0x29D JUMP JUMPDEST SWAP3 SWAP2 POP POP JUMP JUMPDEST PUSH0 DUP2 MLOAD SWAP1 POP SWAP2 SWAP1 POP JUMP JUMPDEST PUSH0 DUP3 DUP3 MSTORE PUSH1 0x20 DUP3 ADD SWAP1 POP SWAP3 SWAP2 POP POP JUMP JUMPDEST DUP3 DUP2 DUP4 MCOPY PUSH0 DUP4 DUP4 ADD MSTORE POP POP POP JUMP JUMPDEST PUSH0 PUSH1 0x1F NOT PUSH1 0x1F DUP4 ADD AND SWAP1 POP SWAP2 SWAP1 POP JUMP JUMPDEST PUSH0 PUSH2 0x307 DUP3 PUSH2 0x2C5 JUMP JUMPDEST PUSH2 0x311 DUP2 DUP6 PUSH2 0x2CF JUMP JUMPDEST SWAP4 POP PUSH2 0x321 DUP2 DUP6 PUSH1 0x20 DUP7 ADD PUSH2 0x2DF JUMP JUMPDEST PUSH2 0x32A DUP2 PUSH2 0x2ED JUMP JUMPDEST DUP5 ADD SWAP2 POP POP SWAP3 SWAP2 POP POP JUMP JUMPDEST PUSH0 PUSH1 0x20 DUP3 ADD SWAP1 POP DUP2 DUP2 SUB PUSH0 DUP4 ADD MSTORE PUSH2 0x34D DUP2 DUP5 PUSH2 0x2FD JUMP JUMPDEST SWAP1 POP SWAP3 SWAP2 POP POP JUMP JUMPDEST PUSH0 PUSH1 0x40 MLOAD SWAP1 POP SWAP1 JUMP JUMPDEST PUSH0 PUSH0 REVERT JUMPDEST PUSH0 PUSH0 REVERT JUMPDEST PUSH0 PUSH0 REVERT JUMPDEST PUSH0 PUSH0 REVERT JUMPDEST PUSH32 0x4E487B7100000000000000000000000000000000000000000000000000000000 PUSH0 MSTORE PUSH1 0x41 PUSH1 0x4 MSTORE PUSH1 0x24 PUSH0 REVERT JUMPDEST PUSH2 0x3A4 DUP3 PUSH2 0x2ED JUMP JUMPDEST DUP2 ADD DUP2 DUP2 LT PUSH8 0xFFFFFFFFFFFFFFFF DUP3 GT OR ISZERO PUSH2 0x3C3 JUMPI PUSH2 0x3C2 PUSH2 0x36E JUMP JUMPDEST JUMPDEST DUP1 PUSH1 0x40 MSTORE POP POP POP JUMP JUMPDEST PUSH0 PUSH2 0x3D5 PUSH2 0x355 JUMP JUMPDEST SWAP1 POP PUSH2 0x3E1 DUP3 DUP3 PUSH2 0x39B JUMP JUMPDEST SWAP2 SWAP1 POP JUMP JUMPDEST PUSH0 PUSH8 0xFFFFFFFFFFFFFFFF DUP3 GT ISZERO PUSH2 0x400 JUMPI PUSH2 0x3FF PUSH2 0x36E JUMP JUMPDEST JUMPDEST PUSH2 0x409 DUP3 PUSH2 0x2ED JUMP JUMPDEST SWAP1 POP PUSH1 0x20 DUP2 ADD SWAP1 POP SWAP2 SWAP1 POP JUMP JUMPDEST DUP3 DUP2 DUP4 CALLDATACOPY PUSH0 DUP4 DUP4 ADD MSTORE POP POP POP JUMP JUMPDEST PUSH0 PUSH2 0x436 PUSH2 0x431 DUP5 PUSH2 0x3E6 JUMP JUMPDEST PUSH2 0x3CC JUMP JUMPDEST SWAP1 POP DUP3 DUP2 MSTORE PUSH1 0x20 DUP2 ADD DUP5 DUP5 DUP5 ADD GT ISZERO PUSH2 0x452 JUMPI PUSH2 0x451 PUSH2 0x36A JUMP JUMPDEST JUMPDEST PUSH2 0x45D DUP5 DUP3 DUP6 PUSH2 0x416 JUMP JUMPDEST POP SWAP4 SWAP3 POP POP POP JUMP JUMPDEST PUSH0 DUP3 PUSH1 0x1F DUP4 ADD SLT PUSH2 0x479 JUMPI PUSH2 0x478 PUSH2 0x366 JUMP JUMPDEST JUMPDEST DUP2 CALLDATALOAD PUSH2 0x489 DUP5 DUP3 PUSH1 0x20 DUP7 ADD PUSH2 0x424 JUMP JUMPDEST SWAP2 POP POP SWAP3 SWAP2 POP POP JUMP JUMPDEST PUSH2 0x49B DUP2 PUSH2 0x261 JUMP JUMPDEST DUP2 EQ PUSH2 0x4A5 JUMPI PUSH0 PUSH0 REVERT JUMPDEST POP JUMP JUMPDEST PUSH0 DUP2 CALLDATALOAD SWAP1 POP PUSH2 0x4B6 DUP2 PUSH2 0x492 JUMP JUMPDEST SWAP3 SWAP2 POP POP JUMP JUMPDEST PUSH0 PUSH0 PUSH0 PUSH1 0x60 DUP5 DUP7 SUB SLT ISZERO PUSH2 0x4D3 JUMPI PUSH2 0x4D2 PUSH2 0x35E JUMP JUMPDEST JUMPDEST PUSH0 DUP5 ADD CALLDATALOAD PUSH8 0xFFFFFFFFFFFFFFFF DUP2 GT ISZERO PUSH2 0x4F0 JUMPI PUSH2 0x4EF PUSH2 0x362 JUMP JUMPDEST JUMPDEST PUSH2 0x4FC DUP7 DUP3 DUP8 ADD PUSH2 0x465 JUMP JUMPDEST SWAP4 POP POP PUSH1 0x20 PUSH2 0x50D DUP7 DUP3 DUP8 ADD PUSH2 0x4A8 JUMP JUMPDEST SWAP3 POP POP PUSH1 0x40 DUP5 ADD CALLDATALOAD PUSH8 0xFFFFFFFFFFFFFFFF DUP2 GT ISZERO PUSH2 0x52E JUMPI PUSH2 0x52D PUSH2 0x362 JUMP JUMPDEST JUMPDEST PUSH2 0x53A DUP7 DUP3 DUP8 ADD PUSH2 0x465 JUMP JUMPDEST SWAP2 POP POP SWAP3 POP SWAP3 POP SWAP3 JUMP JUMPDEST PUSH32 0x4E487B7100000000000000000000000000000000000000000000000000000000 PUSH0 MSTORE PUSH1 0x22 PUSH1 0x4 MSTORE PUSH1 0x24 PUSH0 REVERT JUMPDEST PUSH0 PUSH1 0x2 DUP3 DIV SWAP1 POP PUSH1 0x1 DUP3 AND DUP1 PUSH2 0x588 JUMPI PUSH1 0x7F DUP3 AND SWAP2 POP JUMPDEST PUSH1 0x20 DUP3 LT DUP2 SUB PUSH2 0x59B JUMPI PUSH2 0x59A PUSH2 0x544 JUMP JUMPDEST JUMPDEST POP SWAP2 SWAP1 POP JUMP JUMPDEST PUSH0 DUP2 SWAP1 POP DUP2 PUSH0 MSTORE PUSH1 0x20 PUSH0 KECCAK256 SWAP1 POP SWAP2 SWAP1 POP JUMP JUMPDEST PUSH0 PUSH1 0x20 PUSH1 0x1F DUP4 ADD DIV SWAP1 POP SWAP2 SWAP1 POP JUMP JUMPDEST PUSH0 DUP3 DUP3 SHL SWAP1 POP SWAP3 SWAP2 POP POP JUMP JUMPDEST PUSH0 PUSH1 0x8 DUP4 MUL PUSH2 0x5FD PUSH32 0xFFFFFFFFFFFFFFFFFFFFFFFFFFFFFFFFFFFFFFFFFFFFFFFFFFFFFFFFFFFFFFFF DUP3 PUSH2 0x5C2 JUMP JUMPDEST PUSH2 0x607 DUP7 DUP4 PUSH2 0x5C2 JUMP JUMPDEST SWAP6 POP DUP1 NOT DUP5 AND SWAP4 POP DUP1 DUP7 AND DUP5 OR SWAP3 POP POP POP SWAP4 SWAP3 POP POP POP JUMP JUMPDEST PUSH0 DUP2 SWAP1 POP SWAP2 SWAP1 POP JUMP JUMPDEST PUSH0 DUP2 SWAP1 POP SWAP2 SWAP1 POP JUMP JUMPDEST PUSH0 PUSH2 0x64B PUSH2 0x646 PUSH2 0x641 DUP5 PUSH2 0x61F JUMP JUMPDEST PUSH2 0x628 JUMP JUMPDEST PUSH2 0x61F JUMP JUMPDEST SWAP1 POP SWAP2 SWAP1 POP JUMP JUMPDEST PUSH0 DUP2 SWAP1 POP SWAP2 SWAP1 POP JUMP JUMPDEST PUSH2 0x664 DUP4 PUSH2 0x631 JUMP JUMPDEST PUSH2 0x678 PUSH2 0x670 DUP3 PUSH2 0x652 JUMP JUMPDEST DUP5 DUP5 SLOAD PUSH2 0x5CE JUMP JUMPDEST DUP3 SSTORE POP POP POP POP JUMP JUMPDEST PUSH0 PUSH0 SWAP1 POP SWAP1 JUMP JUMPDEST PUSH2 0x68F PUSH2 0x680 JUMP JUMPDEST PUSH2 0x69A DUP2 DUP5 DUP5 PUSH2 0x65B JUMP JUMPDEST POP POP POP JUMP JUMPDEST JUMPDEST DUP2 DUP2 LT ISZERO PUSH2 0x6BD JUMPI PUSH2 0x6B2 PUSH0 DUP3 PUSH2 0x687 JUMP JUMPDEST PUSH1 0x1 DUP2 ADD SWAP1 POP PUSH2 0x6A0 JUMP JUMPDEST POP POP JUMP JUMPDEST PUSH1 0x1F DUP3 GT ISZERO PUSH2 0x702 JUMPI PUSH2 0x6D3 DUP2 PUSH2 0x5A1 JUMP JUMPDEST PUSH2 0x6DC DUP5 PUSH2 0x5B3 JUMP JUMPDEST DUP2 ADD PUSH1 0x20 DUP6 LT ISZERO PUSH2 0x6EB JUMPI DUP2 SWAP1 POP JUMPDEST PUSH2 0x6FF PUSH2 0x6F7 DUP6 PUSH2 0x5B3 JUMP JUMPDEST DUP4 ADD DUP3 PUSH2 0x69F JUMP JUMPDEST POP POP JUMPDEST POP POP POP JUMP JUMPDEST PUSH0 DUP3 DUP3 SHR SWAP1 POP SWAP3 SWAP2 POP POP JUMP JUMPDEST PUSH0 PUSH2 0x722 PUSH0 NOT DUP5 PUSH1 0x8 MUL PUSH2 0x707 JUMP JUMPDEST NOT DUP1 DUP4 AND SWAP2 POP POP SWAP3 SWAP2 POP POP JUMP JUMPDEST PUSH0 PUSH2 0x73A DUP4 DUP4 PUSH2 0x713 JUMP JUMPDEST SWAP2 POP DUP3 PUSH1 0x2 MUL DUP3 OR SWAP1 POP SWAP3 SWAP2 POP POP JUMP JUMPDEST PUSH2 0x753 DUP3 PUSH2 0x2C5 JUMP JUMPDEST PUSH8 0xFFFFFFFFFFFFFFFF DUP2 GT ISZERO PUSH2 0x76C JUMPI PUSH2 0x76B PUSH2 0x36E JUMP JUMPDEST JUMPDEST PUSH2 0x776 DUP3 SLOAD PUSH2 0x571 JUMP JUMPDEST PUSH2 0x781 DUP3 DUP3 DUP6 PUSH2 0x6C1 JUMP JUMPDEST PUSH0 PUSH1 0x20 SWAP1 POP PUSH1 0x1F DUP4 GT PUSH1 0x1 DUP2 EQ PUSH2 0x7B2 JUMPI PUSH0 DUP5 ISZERO PUSH2 0x7A0 JUMPI DUP3 DUP8 ADD MLOAD SWAP1 POP JUMPDEST PUSH2 0x7AA DUP6 DUP3 PUSH2 0x72F JUMP JUMPDEST DUP7 SSTORE POP PUSH2 0x811 JUMP JUMPDEST PUSH1 0x1F NOT DUP5 AND PUSH2 0x7C0 DUP7 PUSH2 0x5A1 JUMP JUMPDEST PUSH0 JUMPDEST DUP3 DUP2 LT ISZERO PUSH2 0x7E7 JUMPI DUP5 DUP10 ADD MLOAD DUP3 SSTORE PUSH1 0x1 DUP3 ADD SWAP2 POP PUSH1 0x20 DUP6 ADD SWAP5 POP PUSH1 0x20 DUP2 ADD SWAP1 POP PUSH2 0x7C2 JUMP JUMPDEST DUP7 DUP4 LT ISZERO PUSH2 0x804 JUMPI DUP5 DUP10 ADD MLOAD PUSH2 0x800 PUSH1 0x1F DUP10 AND DUP3 PUSH2 0x713 JUMP JUMPDEST DUP4 SSTORE POP JUMPDEST PUSH1 0x1 PUSH1 0x2 DUP9 MUL ADD DUP9 SSTORE POP POP POP JUMPDEST POP POP POP POP POP POP JUMP INVALID LOG2 PUSH5 0x6970667358 0x22 SLT KECCAK256 0x2E INVALID SWAPN 0x40 PUSH8 0x797EC0AF43F2C9B7 CALLVALUE SWAP2 0x24 LT 0xE9 SIGNEXTEND 0xD2 0xCD 0x2B LOG2 SWAP1 BALANCE MLOAD 0xE2 EXTCODEHASH RETURNDATACOPY BYTE DIV 0xE PUSH5 0x736F6C6343 STOP ADDMOD 0x1F STOP CALLER "
		},
		"gasEstimates": {
			"creation": {
				"codeDepositCost": "425400",
				"executionCost": "459",
				"totalCost": "425859"
			},
			"external": {
				"age()": "2403",
				"courseName()": "infinite",
				"isEnrolled()": "2466",
				"setProfile(string,int256,string)": "infinite",
				"studentName()": "infinite"
			}
		},
		"methodIdentifiers": {
			"age()": "262a9dff",
			"courseName()": "9553de4e",
			"isEnrolled()": "5e9ad6b4",
			"setProfile(string,int256,string)": "9731d420",
			"studentName()": "b508ba31"
		}
	},
	"abi": [
		{
			"inputs": [],
			"name": "age",
			"outputs": [
				{
					"internalType": "int256",
					"name": "",
					"type": "int256"
				}
			],
			"stateMutability": "view",
			"type": "function"
		},
		{
			"inputs": [],
			"name": "courseName",
			"outputs": [
				{
					"internalType": "string",
					"name": "",
					"type": "string"
				}
			],
			"stateMutability": "view",
			"type": "function"
		},
		{
			"inputs": [],
			"name": "isEnrolled",
			"outputs": [
				{
					"internalType": "bool",
					"name": "",
					"type": "bool"
				}
			],
			"stateMutability": "view",
			"type": "function"
		},
		{
			"inputs": [
				{
					"internalType": "string",
					"name": "_studentName",
					"type": "string"
				},
				{
					"internalType": "int256",
					"name": "_age",
					"type": "int256"
				},
				{
					"internalType": "string",
					"name": "_courseName",
					"type": "string"
				}
			],
			"name": "setProfile",
			"outputs": [],
			"stateMutability": "nonpayable",
			"type": "function"
		},
		{
			"inputs": [],
			"name": "studentName",
			"outputs": [
				{
					"internalType": "string",
					"name": "",
					"type": "string"
				}
			],
			"stateMutability": "view",
			"type": "function"
		}
	]
}